:400000000010002011000000950300009503000010B500F0C7F9C04670B5194C23688022D20213432360182000F0B4FB2268154B13402360144A154B1A602022144B1A6086
:40004000103A144B1A602032134B1A6080221206124B1A6000252560114A124B1A60124A124B1A60124A134B1A601349092000F04FFB092000F036FB104B1D6070BDC0464B
:4000800000010B40FFFFFBFF0600008004010B4014020240180202403002024008010B40FE00008000000240FE0000C040000240DF01008080000240A50900000C020B4081
:4000C00010B572B600240FE02B486200131959000B00411889881A5AC31858880004104300F02CF90134E4B2012CEDD922490C312248603000F008F9214A224B1A60224A87
:40010000224B1A6099231B04214A13609C21C905204A1160204A1360204A13608022D2051F4B1A601F490B783C22934314221343DBB20B701C4A117816230B43DBB2137069
:40014000B0221A4B1A601A4A1A4B1A603E231A4A13601A4A13608022194B1A60194A1A4B1A600423194A1360194A1360FFF754FF00F00AF910BDC046001C0000001E00009E
:40018000000033300000014000EE00300C00014000500F4008500F4010500F4030500F4038500F4001700F4000700F40000004400060C300080004400001044018010440C1
:4001C00000030440800DC00008030440000404401804044010B5064C2378002B07D1054B002B02D0044800E000BF0123237010BD7801002000000000FC1B0000084B10B53B
:40020000002B03D00749084800E000BF07480368002B00D110BD064B002BFBD09847F9E7000000007C010020FC1B0000C00000200000000070B562B600F044FA00F0CEF942
:4002400000F058F900F064FC00F08CFE00F0E4FE00F0E2FDFF2400F0CBFC00280FD1083001F01CF8C5B2FF2D03D0AC4202D1250000E0250001F000F800F0CEFD2C003F2C17
:400280000DD8A000C0B200F0CFF9002000F058F9002000F0E1F8002000F0ECFBDBE72300403BDBB23F2B0DD8FF2000F0BDF96000C0B200F045F9002000F0CEF8002000F067
:4002C000D9FBC8E72300803BDBB23F2B0FD8FF2000F0AAF9FF2000F033F9A0084300C018C0B200F0B9F8002000F0C4FBB3E7FF2000F09AF9FF2000F023F9FF2000F0ACF813
:40030000200000F0B7FBA6E7F0B50025002711E0BB00C658F3B2FF22964308E06A008A181478A419527822700135013BDBB2002BF4D10137092FEBD9F0BDC04610B50A00D6
:40034000002101F053FC10BD0C4B1B68002803D080221206134301E05B005B08074A1360074B1B68002803D080229204134301E0044A1340024A13607047C04680031A40CE
:4003800008010B40FFFFFFFD10B50120FFF7DCFF10BDC04610B501F0FDFB03680C2B00D1FEE7FEE770B50F4E0F4D13E029686B68AC68002202E001C901C30432A242FAD1BA
:4003C000E868002202E0002102C304328242FAD11035013E002EE9D101F0E2FBFFF72AFFFEE7C04601000000BC1F000010B500230AE0032B03D89A000949505800E009483E
:400400009900094A885001332F2BF2D9FFF758FE8022D205116801230B43136010BDC046000000009503000000000020034A117880235B420B43DBB21370704772000F4005
:40044000014B18707047C04602000F40014B18707047C04642000F40014B18707047C04622000F40014B18707047C04682000F40014B1878C0B2704762000F40014B187882
:40048000C0B2704752000F4010B501E0FFF7F6FFFFF7EEFFC306F9D410BDC04610B513490B783F2293430A221343DBB20B70104C227801231343DBB22370FF20FFF7C0FFCC
:4004C000FF20FFF7C3FF7F20FFF7C6FF0020FFF7C9FF01F087F8227810231343DBB2237001F084F8FFF7D0FF10BDC04672000F4092000F4010B5064B1B78002B04D1FFF7F4
:40050000CDFF0122024B1A70FFF790FF10BDC04694010020034A117880235B420B43DBB21370704770000F40014B18707047C04600000F40014B18707047C04640000F40FE
:40054000014B18707047C04620000F40014B18707047C04680000F40014B1878C0B2704760000F40014B1878C0B2704750000F4010B501E0FFF7F6FFFFF7EEFFC306F9D4B9
:4005800010BDC04610B513490B783F2293430A221343DBB20B70104C227801231343DBB22370FF20FFF7C0FFFF20FFF7C3FF7F20FFF7C6FF0020FFF7C9FF01F013F82278FA
:4005C00010231343DBB2237001F010F8FFF7D0FF10BDC04670000F4090000F4010B5064B1B78002B04D1FFF7CDFF0122024B1A70FFF790FF10BDC04695010020034A1178DA
:4006000080235B420B43DBB21370704771000F40014B18707047C04601000F40014B18707047C04641000F40014B18707047C04621000F40014B18707047C04681000F4041
:40064000014B1878C0B2704761000F40014B1878C0B2704751000F4010B501E0FFF7F6FFFFF7EEFFC306F9D410BDC04610B513490B783F2293430A221343DBB20B70104C82
:40068000227801231343DBB22370FF20FFF7C0FFFF20FFF7C3FF7F20FFF7C6FF0020FFF7C9FF00F09FFF227810231343DBB2237000F09CFFFFF7D0FF10BDC04671000F406F
:4006C00091000F4010B5064B1B78002B04D1FFF7CDFF0122024B1A70FFF790FF10BDC046960100201F2318401E3B8340014A13607047C04600E100E01F2318401E3B8340FE
:40070000014A13607047C04680E100E001BE704770B504000D001F2802D90020FFF7F6FF1034A40080239B059C4664442068256070BDC04670B504000E00032902D90020D1
:40074000FFF7E4FF1F2C02D90020FFF7DFFF03252540ED00063500F045FFA408A400074B9C46644421680323AB4099430B003100A9401943216000F039FF70BD00E400E0E0
:4007800010B5034B1B7B584300F022FF10BDC046C4000020F0B557464E46C0B483B0040000F020FF0190E71E2D2F74D83F4B1B78DBB29C4208D83E4B1B78DBB29A463D4BE6
:4007C0001B78DBB2994631E03B4B1B78DBB29C4208D83A4B1B78DBB29A46394B1B78DBB2994623E0374B1B78DBB29C4208D8364B1B78DBB29A46354B1B78DBB2994615E025
:40080000334B1B78DBB29C4208D8324B1B78DBB29A46314B1B78DBB2994607E02F4B1B78DBB29A462E4B1B78DBB299462D4BDE5D2F2E09D92A2C07D919222B4B1A60052013
:4008400000F0C6FE192503E0274B1D683F231D40B54206D9234BDA5D234B1A60052000F0B7FE1F4B9C4664442378DBB21F4A13601F4B52461A601F4B4A461A600520FFF7BD
:400880007FFFB5420AD2174BDA5D174B1A60052000F09EFE02E00020FFF738FF019800F0A5FE03B00CBC91469A46F0BDC0F1FF0FC1F1FF0FC2F1FF0FC3F1FF0FC4F1FF0FC2
:4008C000C5F1FF0FC6F1FF0FC7F1FF0FC8F1FF0FC9F1FF0FCAF1FF0FCBF1FF0FCCF1FF0FCDF1FF0F881E00002CFF0B4028FF0B401CFF0B4020FF0B40034B1868C0231B02C4
:40090000184000D00120704700010B4010B500F069FE044A1368C02109020B43136000F065FE10BD00010B4010B500F05BFE08490A68084B1A408024E40122430A600A6825
:4009400013408022120213430B6000F04FFE10BD00010B40FF3FFFFF70B5050000F042FE0400FFF7C9FF002803D0FFF7DDFF012100E0002108482840084A1568084B2B40CA
:40098000184310601368012901D1FFF7BFFF200000F02CFE70BDC0460404040010020B40FBFBFBFF10B5244B1B685B0715D5234B1B685B070ED5224BD969042001401F4CC3
:4009C00022688A432260DA698243DA611B69002B00D098470420FFF7BFFF174B1B685B0518D5164B1B685B0510D5154BD9698022D2001140114802688A430260D969114A54
:400A00000A40DA615B69002B00D098478020C000FFF7A2FF084B1B685B030CD5074B1B685B0304D5064B9B69002B00D098478020C002FFF791FF10BD10020B40D800002042
:400A400098010020FFFBFFFF034A117880235B420B43DBB21370704773000F40014B18707047C04603000F40014B18707047C04643000F40014B18707047C04623000F40CF
:400A8000014B18707047C04683000F40014B1878C0B2704763000F40014B1878C0B2704753000F4010B501E0FFF7F6FFFFF7EEFFC306F9D410BDC04610B513490B783F2293
:400AC00093430A221343DBB20B70104C227801231343DBB22370FF20FFF7C0FFFF20FFF7C3FF7F20FFF7C6FF0020FFF7C9FF00F079FD227810231343DBB2237000F076FD17
:400B0000FFF7D0FF10BDC04673000F4093000F4010B5064B1B78002B04D1FFF7CDFF0122024B1A70FFF790FF10BDC046B801002070B516480368DBB2154A13700F24A3436D
:400B40001900144D2B780F2213400B43E13293432A78A243134303600F4A104B1A60104A104B1A60104A1168104B0B40C021C9000B4313600F20FFF7BFFD0D490F20FFF7C0
:400B8000C7FD03210F20FFF7D5FD70BD00FF0840F801002062F1FF0F00020001080008400008A0010400084010000140FFF0FFFF1913000010B500F0F9FC00F0DBFC002124
:400BC000002000F0DFFC0021002000F0F7FC00F0E3FC00F0C5FC044A136804490B4313600F20FFF77FFD10BD0400084000100880024B1878012318407047C046BC0100204A
:400C00004000024B181880887047C046BC010020F8B5104F3E5C3818037A5D005D19EDB29B00DCB200F0DEFCB300FB181E6932680F21A1408A4311000422A2400A435C6A8C
:400C400023680721A9408B432360326000F0CEFCF8BDC046B81E0000F8B5194A145C13181F7AB900C9B27D007D19EDB2154B185CA300D3181E6933680F228A409343336098
:400C8000022800D10020012801D1002600E0062600F0A8FCA4000A4B1C19616A0B680722AA4093431A003300AB4013430B6000F09DFCA16B0B680122BA4093430B60F8BDEF
:400CC000B81E00001C02002010B5002403E02000FFF7C2FF0134042CF9D910BD044A11684002C023DB001840084310607047C04604000840CA0807231940063B8B40825C17
:400D0000134201D0012000E00020704710B504000134E4B2052C06D0210004480430FFF7E9FF0028F4D0200010BDC046DC000020F8B50400234B1B184C229B5C9B00224A02
:400D40009E5801002148FFF7D5FF214B9E4203D88640FF231B041E431E4B185D013880B2002100F00FFC1C4B185D013880B2002100F024FC0F20FFF7BFFC18480168184BD1
:400D80001940184B1B5D184A125D120413430B430360164F3D68164B1D40164B1D430F20FFF7A0FC2000FFF733FF00F01BFC04003D60002000F00CFC0F4B1E60200000F0D7
:400DC00015FCF8BDB81E0000DC000020FC010020FFFFFEFF24020020040200200800084000FF80FF0C0200201402002004000840FF1FDFFF200020000C00084010B5054BB4
:400E000000221A70C2B29A7381221A70FFF790FF10BDC046BC01002010B50C4C00232370FF33A373A07BC0B2FFF770FFA073A37BDBB2042B08D8217801230B43DBB223701E
:400E4000A07BC0B2FFF774FF10BDC046BC01002070B50500184B1C68A4B24300174AD3189C80174B1B184C229B5C9B00154A9A58154B9A4208D801001448FFF73BFF6B00C0
:400E80000E4AD31804419C802800FFF7E5FE0F20FFF732FC0E4A11680E4B0B40A02109020B4313600C4A11680C4B0B4013600F20FFF718FC70BDC0460C000840BC010020B7
:400EC000B81E0000DC000020FFFFFEFFFC01002004000840FF1FDFFF0800084000FF80FF10B5CC0807231940063B8B40DBB2002A04D0041922781343237003E00419227805
:400F00009A43227010BDC04670B50600002400250BE03000FFF772FFFFF76AFE0128FBD03000FFF76DFE24180135002DF1D0A0B270BDC046014B19547047C0461C020020FD
:400F400010B5002404E000212000FFF7F3FF0134042CF8D9FFF7ECFD0020FFF7BFFEFFF7B3FE10BD10B50B4BDB7B002B04D1FFF7E7FF0122074BDA73FFF71CFE00F092FA84
:400F80000122044B1A74044A13688021C9030B43136010BDBC01002004000840F0B5002714E00C4BDE5D0C4BDB5DF6181A00002404E08D5CAC4200D22C000132B242F8D36C
:400FC00001E0CC540133B342FBD301378742E8D3F0BDC046201F0000241F00004300054A9A5A05495A52081800210173017503495A527047C0010020D00100203C0200207E
:4010000010B50400FFF7FAFEFFF7F2FD0028FBD12000FFF7E3FF10BD10B5002403E02000FFF7EEFF0134042CF9D910BD70B5094D14352D180026FF20002308E0EC5C944211
:4010400003D9A64201D2260018000133DBB28B42F4D370BDD0010020F0B583B004000192009308AB1878344B14335918002C02D0661EF6B200E00026631CDDB20B5D9C4624
:401080002D4B243362465A70002C07D12A4B002624229E544A5D24339A7012E0019A013A944207D1895D244B24229954243300229A7006E08E5D204B24229E544A5D24331D
:4010C0009A7024231C4AD35C834204D91B1A242219498B5403E000212423174AD154164A243253781B1ADBB253709278904204D2101A114A2432907003E000210E4A243296
:4011000091700D490A00243292782420095C501AC9188918000200F051FC240200196B4600255D5F6843FE23DB019C466044000CC0B203B0F0BDC046D001002040184900A5
:401140004018800880B27047F0B5474680B482B004003C4B1E5C3C4B9B5D019342003B4BD75A3B4B5B7A002B08D03A4D9046515B3800FFF7E3FF070043465853E1B2334A3B
:40118000354800F0F7FA6300344A9A5A974207D30021334B1955BD1AADB20123984603E0D51BADB2002398464346002B15D12D4B9B5D9D4211D92A4B1B5D254A12191279EC
:4011C000934206D32000FFF709FF0022244B1A551EE00133224A13551AE06B469B889D4206D9204B9B5D9D4212D24346002B0FD113029C46194801190B7B66463343FF18A6
:40120000BF1A3A0A6300C2520F730022144B1A556B469E88B5420DD94346002B0AD0FF2D04D90E4B1C19FF23237507E00B4B1C19257503E0094B1C190023237502B004BC70
:401240009046F0BD041F00002C020020C0010020F80000203C0200208C020020D0010020300200203802002010B5040000F0A2F82000FFF769FF10BD10B5002409E0210047
:401280000548FFF737FD002802D02000FFF7ECFF0134042CF3D910BDE000002030B583B00400194B1B181D7B184B1A5C05210020FFF7BCFEFF281FD0154B1B5D0093FF2301
:4012C0009B0105220021FFF7C7FE010080B26B1CDBB20D4A5219127B002A06D10A4AD3181973551901232B730BE0074CE418217BFFF724FF207304E0034B5D1900232B73D2
:40130000044803B030BDC046F80000204C0200202C020020FFFF000010B50F20FFF7ECF901221E4B1A601E4B1878C0B2FFF790FD1C4B1B785BB2002B05DA1A4A1378012104
:401340008B43137026E0164C2078C0B2FFF7DEFC20702378DBB2042B05D8114B1878C0B2FFF7E6FC16E00F4B1A7801218A431A701B785B060ED500220B4B1A7006E00B4A71
:40138000D15C0B4AD1540133074A1370064B1B78002BF4D00F20FFF7A5F910BD14000840CA010020BC010020F701002000020020E000002070B582B0154B1C5C154EC1B2B8
:4013C000154D009533002200144800F051FA335D295D134A1155DB2B03D8DB08114A135514E0EC2B03D81B090E4A13550EE0F42B03D85B090B4A135508E0F92B03D89B094C
:40140000084A135502E00022064B1A5502B070BD041F00004C0200202C0200208C0200203802002048020020024A136840218B431360704704000840044A1168044B0B4031
:40144000802189000B4313607047C04608000840FFFCFFFC70B5002208E00D498B5C5D080C4CA55401335B088B54013203789A42F3D30F20FFF740F9074A1168074B0B40D1
:4014800007490B4313600F20FFF72CF970BDC0460C0200201402002008000840FFFCFFFC0002000170B5254B05221A70012159709A701332DA80224A9A80224A9A60FFF735
:4014C000B3FF002304E099001F48204A885001331A4A52789342F6D3002306E004211C4AD15402391B4AD1540133042BF6D9FFF7A3FF194E114C3100200000F09BF8174DAD
:4015000029000120FFF74AFD200000F0A4F83100200000F08FF829000120FFF73FFD200000F0BAF82000FFF795FF002403E02000FFF740FF0134042CF9D970BD8C0200205A
:40154000CC040000281F00000000FF0FDC00002004020020240200209A0D00000C020020034A1368802109060B4313607047C04600000240024A13685B005B081360704722
:4015800000000240034A13681B0C1B04034313607047C04600000240034A1368802109060B4313607047C04640000240024A13685B005B081360704740000240034A1368B2
:4015C0001B0C1B04034313607047C046400002400230800804D0C0460138FDD1C046C046C0467047EFF3108072B6704780F310887047C046F7B59C180023071C08268025B7
:40160000019100922370237800982B432370BB689B6C9847019B984202D22378AB432370013E6D08002EEED12378F82B01D9F8232370F7BD70B5051C0E1C00242B789C42A0
:4016400008D2AB68221C281C311C1B68FFF7D2FF0134F3E770BD38B5051C00242B789C4219D2AA6813681B5DDB080F2B00D90F23D16BD268C95C1155AA68042B04D9936D3E
:40168000906B211C012203E0936D906B211C002298470134E2E738BDF0B5041C002687B063789E4262D2A3685A6C925D0392002A01D1013203921A6C925D0192019922785A
:4016C000914251D29A689B69515C0F221140B2000492002205910499019D5A50019B5B000293039B019A9B189D423DD2A768E388A0885843FB68595D00F060F93B68595D7C
:4017000000F0D2F8059B5843194B40005A2802D95B084008FAE7BA6904991B0C1B045350A36882085B6B01215855A368C008DB69029F5A550F22A36849421B6A5855A368E9
:401740005B6A5A55A368986AC1530021D86AC153186B9B68C1535B19197801350A401A703B1C02330293BCE7013699E707B0F0BD0000FFFFF0B585684E002B6B925B9B19C0
:401780001C8887B0141B0094AC6A1A80A45B6B6A0294EC6A5F5CA45B2B6A03946C6B7F00645C5B180494AC680193645C1B780594009CE40FA4460F24251C6744009C3D40CF
:4017C000AC46E51764196C409C4203D2012B05D0013B00E00133FF273F2B00D89F00019D2B7065460F2D29D0002D24D0BC4225D8059C029F24090094974200D9171C039D0A
:40180000954200D2151C009A092A01D8141C01343A1C0A2C14D1EA1B934206D9049A92089A42924152429B1A00E001338268D26953543A1C04E0151C644601E0151C00243E
:401840006746836824015B6A5F5483689F6ABA53DA6A9B6895530F225B181D782A401A7083689B6859180B781C430C7007B0F0BD70B58068446BC069655C405CFF213F28EC
:4018800001D88100C9B246B2FF24002E01DB4000C4B28D4201D9291C6C08012081439954049B9C5470BD0000002243088B4274D303098B425FD3030A8B4244D3030B8B4230
:4018C00028D3030C8B420DD3FF22090212BA030C8B4202D31212090265D0030B8B4219D300E0090AC30B8B4201D3CB03C01A5241830B8B4201D38B03C01A5241430B8B427B
:4019000001D34B03C01A5241030B8B4201D30B03C01A5241C30A8B4201D3CB02C01A5241830A8B4201D38B02C01A5241430A8B4201D34B02C01A5241030A8B4201D30B02BB
:40194000C01A5241CDD2C3098B4201D3CB01C01A524183098B4201D38B01C01A524143098B4201D34B01C01A524103098B4201D30B01C01A5241C3088B4201D3CB00C01AB2
:40198000524183088B4201D38B00C01A524143088B4201D34B00C01A5241411A00D20146524110467047FFE701B5002000F0F0F802BDC0460029F7D076E7704703460B43C4
:4019C0007FD4002243088B4274D303098B425FD3030A8B4244D3030B8B4228D3030C8B420DD3FF22090212BA030C8B4202D31212090265D0030B8B4219D300E0090AC30BF0
:401A00008B4201D3CB03C01A5241830B8B4201D38B03C01A5241430B8B4201D34B03C01A5241030B8B4201D30B03C01A5241C30A8B4201D3CB02C01A5241830A8B4201D3F6
:401A40008B02C01A5241430A8B4201D34B02C01A5241030A8B4201D30B02C01A5241CDD2C3098B4201D3CB01C01A524183098B4201D38B01C01A524143098B4201D34B01F8
:401A8000C01A524103098B4201D30B01C01A5241C3088B4201D3CB00C01A524183088B4201D38B00C01A524143088B4201D34B00C01A5241411A00D2014652411046704713
:401AC0005DE0CA0F00D04942031000D34042534000229C4603098B422DD3030A8B4212D3FC22890112BA030A8B420CD3890192118B4208D3890192118B4204D389013AD077
:401B0000921100E08909C3098B4201D3CB01C01A524183098B4201D38B01C01A524143098B4201D34B01C01A524103098B4201D30B01C01A5241C3088B4201D3CB00C01AE7
:401B4000524183088B4201D38B00C01A5241D9D243088B4201D34B00C01A5241411A00D20146634652415B10104601D34042002B00D54942704763465B1000D3404201B537
:401B8000002000F005F802BD0029F8D016E770477047C046014B18687047C046700100200E4B70B500251E000D4CE41AA410A54204D0AB00F35898470135F8E700F0ECF997
:401BC000084B00251E00084CE41AA410A54204D0AB00F35898470135F8E770BDA41F0000A41F0000A41F0000AC1F000003008218934202D019700133FAE7704700000000CA
:401C000000300F40000400400F400004800D810D820D830D060307011220130114182404261228042A093003320433013420361838083F044020410545D14720483349FF6A
:401C40004AFF4BFF4DA04F04501852805405580459045A045B045F01604062C06440654066C068C06AC06CC06EC08A038F0194189C049E12A404A609A701AE20B018B204E7
:401C8000B420B501B603B808BF10C020C105C5D0C602C710C82EC9FFCAFFCBFFCDA0CF04D018D280D405D804D904DA04DB04DF01E040E2C0E440E540E6C0E8C0EAC0ECC0CF
:401CC000EEC00004051009020A100E200F02102816201780180419401A101B021D301E601F60220427082F20300238043F8040044520482249014F81500A562057415941AE
:401D00005A085E405F09710277808702C044C2ACC4A6CA40CC01CE12D024D218D6DB08180F0116031C041E1228042A092B012E2030183220330134043603382039023F059E
:401D40004030410545D046024710483649FF4AFF4BFF4DA04F04501852805405580459045A045B045F01604062C06440654066C068C06AC06CC06EC08603870192209701BF
:401D80009C18A004A209A404A612B018B203B301B420B604B880BF04C020C106C5D1C702C817C9FFCAFFCBFFCDA0CF04D018D280D405D804D904DA04DB04DF01E040E2C05B
:401DC000E440E540E6C0E8C0EAC0ECC0EEC00004051009020A010D080F0210A016081780180419081A411D181E821F082204250126042F08300838043F8040044508482819
:401E000049014F8150885608574159015A485E885F01710277808109A601AF40B601C044C2A9C4CCCA20CC02CE12D044D214D6DBE405EA105F02612067808740D680D8C094
:401E4000E210AD20B702EA106E027A01DC0358026702800282018301A601D6030101100104000F4057300F402E310F4058320F4033330F4007400F4003410F4003420F4025
:401E800007430F4002600F40030405060708090A0B0C0E0F101112131415161718191B1C1D1E1F2021222325262728292A2B2E2F30313233343500000101010101000000E3
:401EC00001020304050000000000014004000140080001400C00014010000140080004400801044008020440080304400804044000000440000104400002044000030440CA
:401F0000000404400000000000000000020000000400000008000000100000002000000005000000000000000C02002014020020080100200402002024020020041F0000FA
:401F4000DC0000206C020020500200205802002080020020600200207402002098020020FC010020841F0000241F0000201F0000090F0000310D0000010C0000F50C0000D1
:401F8000E10E00000101010202020204040404040404040443000000F8B5C046F8BC08BC9E467047FD010000ED030000F8B5C046F8BC08BC9E467047D5010000D01F000081
:401FC000C0000020B8000000280100000000000000000000010000000000E02EC05D00001800000000366E01040404000000FF0F1F00000008010440080104400801044017
:402000000801044008010440010000001E1E1E1E1E010000010000000202020202000000000000000000000000000000000000000000000000000000000000000000000063
:40204000941F0000000000000000000000000000000000000000000000000000000000000000000000000000000000000000000000000000000000000000000000000000AD
:4020800010010020000000000000000000000000000000000000000000000000000000000000000000000000000000000000000000000000000000000000000000000000EF
:4020C00000000000000000000000000000000000000000000000000000000000000000000000000000000000000000000000000000000000000000000000000000000000E0
:40210000000000000000000000000000000000000000000000000000000000000000000000000000000000000000000000000000000000000000000000000000000000009F
:40214000000000000000000000000000000000000000000000000000000000000000000000000000000000000000000000000000000000000000000000000000000000005F
:40218000000000000000000000000000000000000000000000000000000000000000000000000000000000000000000000000000000000000000000000000000000000001F
:0200000490303A
:02000000F268A4
:0200000490402A
:200000000000000000000000000000000000000000000000000000000000000000000000E0
:0200000490501A
:0C000000000204C81193110104D303FB9B
:0200000490600A
:0100000001FE
:00000001FF