:400000000010002011000000690300006903000010B500F0B1F9C04670B5164C23688022D20213432360182000F012FA2268124B13402360114A124B1A602022114B1A60A6
:40004000103A114B1A6080221206104B1A60002525600F4A0F4B1A600F4A104B1A601049092000F0D9F9092000F0CAF90D4B1D6070BDC04600010B40FFFFFBFF06000080DA
:4000800004010B40080202403002024008010B4001000080000002401000008040000240610600000C020B4010B572B600240FE02A486200131959000B00411889881A5A05
:4000C000C31858880004104300F048F90134E4B2012CEDD921490C312148203000F024F9C02292041F4B1A601F4A204B1A6099221F4B1A6099231B041E4A13608021890564
:400100001D4A11601D4A1360982252051C4B1A601C490B783C22934314221343DBB20B70194A117816230B43DBB213704022174B1A60C0225203164B1A605022154B1A604C
:40014000154A164B1A600223154A13603121154A1160154A1360FFF75FFF10BD300E0000B00F00000800014000EE03030C0001401000014020500F4028500F4030500F400C
:4001800038500F4001700F4000700F40000204400802044000030440806D18000803044000040440080404401804044010B5064C2378002B07D1054B002B02D0044800E094
:4001C00000BF0123237010BD48010020000000002C0E0000084B10B5002B03D00749084800E000BF07480368002B00D110BD064B002BFBD09847F9E7000000004C010020CE
:400200002C0E0000C00000200000000070B503000278114802705A7842709A7882700F4DDA782A701A796A705A79AA700C4C9A792270DA7962701B7AA37000F01FFD094BE3
:400240001870280000F01AFD074B1870200000F015FD064B187070BD9C010020940100209801002091010020900100206401002010B5064B187800F01DFB054B187800F034
:400280008DFB044B187800F0FDFB10BD91010020900100206401002010B5002000F00AFB002000F07BFB002000F0ECFB10BDC04630B585B000F03AFA00F04AFB00F0BCFBF6
:4002C00000F02EFCFFF7E8FF00F0BCFAC0B25728FAD124E000F0B6FAC0B2002805D0422803D001AB1855013464B2422819D101A800F0BEFA0D2000F037FA0A2000F034FAB6
:4003000001A8FFF783FF002303E0002101AAD1540133082BF9DDFFF7ABFF582501E000245925582DD6D1CFE7F0B50025002711E0BB00C658F3B2FF22964308E06A008A1898
:400340001478A419527822700135013BDBB2002BF4D10137072FEBD9F0BDC04610B50A00002100F0BDFC10BD10B500F08DFC03680C2B00D1FEE7FEE770B50F4E0F4D13E052
:4003800029686B68AC68002202E001C901C30432A242FAD1E868002202E0002102C304328242FAD11035013E002EE9D100F072FCFFF77EFFFEE7C0460100000048110000CD
:4003C00010B500230AE0032B03D89A000949505800E009489900094A885001332F2BF2D9FFF762FE8022D205116801230B43136010BDC046000000006903000000000020B4
:400400001F2318401E3B8340014A13607047C04600E100E001BE704770B504000D001F2802D90020FFF7F6FF1034A40080239B059C4664442068256070BDC04610B5034BE9
:400440001B7B584300F07CFB10BDC046C4000020F0B557464E46C0B483B0040000F07AFB0190E71E2D2F74D83F4B1B78DBB29C4208D83E4B1B78DBB29A463D4B1B78DBB270
:40048000994631E03B4B1B78DBB29C4208D83A4B1B78DBB29A46394B1B78DBB2994623E0374B1B78DBB29C4208D8364B1B78DBB29A46354B1B78DBB2994615E0334B1B7877
:4004C000DBB29C4208D8324B1B78DBB29A46314B1B78DBB2994607E02F4B1B78DBB29A462E4B1B78DBB299462D4BDE5D2F2E09D92A2C07D919222B4B1A60052000F020FB5D
:40050000192503E0274B1D683F231D40B54206D9234BDA5D234B1A60052000F011FB1F4B9C4664442378DBB21F4A13601F4B52461A601F4B4A461A600520FFF77FFFB542E8
:400540000AD2174BDA5D174B1A60052000F0F8FA02E00020FFF75EFF019800F0FFFA03B00CBC91469A46F0BDC0F1FF0FC1F1FF0FC2F1FF0FC3F1FF0FC4F1FF0FC5F1FF0FE4
:40058000C6F1FF0FC7F1FF0FC8F1FF0FC9F1FF0FCAF1FF0FCBF1FF0FCCF1FF0FCDF1FF0FF00F00002CFF0B4028FF0B401CFF0B4020FF0B40034B1868C0231B02184000D04A
:4005C0000120704700010B4010B500F0C3FA044A1368C02109020B43136000F0BFFA10BD00010B4010B500F0B5FA08490A68084B1A408024E40122430A600A68134080229A
:40060000120213430B6000F0A9FA10BD00010B40FF3FFFFF70B5050000F09CFA0400FFF7C9FF002803D0FFF7DDFF012100E0002108482840084A1568084B2B40184310608B
:400640001368012901D1FFF7BFFF200000F086FA70BDC0460404040010020B40FBFBFBFF10B5244B1B685B0715D5234B1B685B070ED5224BD969042001401F4C22688A4324
:400680002260DA698243DA611B69002B00D098470420FFF7BFFF174B1B685B0518D5164B1B685B0510D5154BD9698022D2001140114802688A430260D969114A0A40DA6169
:4006C0005B69002B00D098478020C000FFF7A2FF084B1B685B030CD5074B1B685B0304D5064B9B69002B00D098478020C002FFF791FF10BD10020B40D80000206801002082
:40070000FFFBFFFF10B500F08BF810BD10B500F039F810BD10B5044A1368802109060B431360FFF7EFFF10BD0000064010B5064B1B78002B04D1FFF7E9FF0122024B1A7092
:40074000FFF7E8FF10BDC04688010020014B18687047C04640030640024B1B680F2018407047C04608030640044B1B680F221340082BF9D0024B18607047C0460802064085
:4007800040020640134A144B1A600023134A13601349144A1160144A14490A6007201449086014490B6006381349086013490A60134A1360134A1360134A1360134A13607C
:4007C000134A1360134A1360134A13601268134B1A8070470B000002000006404000064001000A0048000640070000800003064004030640100306404400064000020640A6
:4008000004020640880E0640C80E0640480F0640080F0640C80F0640880F06408A01002005490B68F0229343603A13430B60034B1A88034B1A607047100001408A01002066
:40084000880F064010B5FFF787FF002802D0FFF77DFF00E00020054B1A68D8239B001A4203D01A00014B1A60002010BDC00F064070B50500002402E0FFF776FF0134285D20
:400880000028F9D170BDC046034A117880235B420B43DBB21370704770000F40014B18707047C04600000F40014B18707047C04640000F40014B18707047C04620000F4029
:4008C000014B18707047C04680000F40014B1878C0B2704760000F40014B1878C0B2704750000F4010B501E0FFF7F6FFFFF7EEFFC306F9D410BDC04610B513490B783F225E
:4009000093430C221343DBB20B70104C227801231343DBB22370FF20FFF7C0FFFF20FFF7C3FF7F20FFF7C6FF0020FFF7C9FF00F011F9227810231343DBB2237000F00EF9AE
:40094000FFF7D0FF10BDC04670000F4090000F4010B5064B1B78002B04D1FFF7CDFF0122024B1A70FFF790FF10BDC0468C010020034A117880235B420B43DBB213707047AC
:4009800073000F40014B18707047C04603000F40014B18707047C04643000F40014B18707047C04623000F40014B18707047C04683000F40014B1878C0B2704763000F4052
:4009C000014B1878C0B2704753000F4010B501E0FFF7F6FFFFF7EEFFC306F9D410BDC04610B513490B783F2293430C221343DBB20B70104C227801231343DBB22370FF205D
:400A0000FFF7C0FFFF20FFF7C3FF7F20FFF7C6FF0020FFF7C9FF00F09DF8227810231343DBB2237000F09AF8FFF7D0FF10BDC04673000F4093000F4010B5064B1B78002B98
:400A400004D1FFF7CDFF0122024B1A70FFF790FF10BDC0468D010020034A117880235B420B43DBB21370704772000F40014B18707047C04602000F40014B18707047C04680
:400A800042000F40014B18707047C04622000F40014B18707047C04682000F40014B1878C0B2704762000F40014B1878C0B2704752000F4010B501E0FFF7F6FFFFF7EEFF71
:400AC000C306F9D410BDC04610B513490B783F2293430C221343DBB20B70104C227801231343DBB22370FF20FFF7C0FFFF20FFF7C3FF7F20FFF7C6FF0020FFF7C9FF00F0C3
:400B000029F8227810231343DBB2237000F026F8FFF7D0FF10BDC04672000F4092000F4010B5064B1B78002B04D1FFF7CDFF0122024B1A70FFF790FF10BDC0468E0100209D
:400B40000230800804D0C0460138FDD1C046C046C0467047EFF3108072B6704780F310887047C046002243088B4274D303098B425FD3030A8B4244D3030B8B4228D3030C96
:400B80008B420DD3FF22090212BA030C8B4202D31212090265D0030B8B4219D300E0090AC30B8B4201D3CB03C01A5241830B8B4201D38B03C01A5241430B8B4201D34B03B0
:400BC000C01A5241030B8B4201D30B03C01A5241C30A8B4201D3CB02C01A5241830A8B4201D38B02C01A5241430A8B4201D34B02C01A5241030A8B4201D30B02C01A5241BE
:400C0000CDD2C3098B4201D3CB01C01A524183098B4201D38B01C01A524143098B4201D34B01C01A524103098B4201D30B01C01A5241C3088B4201D3CB00C01A524183084E
:400C40008B4201D38B00C01A524143088B4201D34B00C01A5241411A00D20146524110467047FFE701B5002000F006F802BDC0460029F7D076E770477047C04610B50A2202
:400C8000002100F0C7F810BD014B18687047C0463C0100200E4B70B500251E000D4CE41AA410A54204D0AB00F35898470135F8E700F038FA084B00251E00084CE41AA41082
:400CC000A54204D0AB00F35898470135F8E770BD3011000030110000301100003811000003008218934202D019700133FAE77047F0B51E00454B87B01B680192029308221E
:400D00000B00059003911C7802995D1C09194878104001D02B00F6E72D2C04D19D1C5C780123009304E000902B2C01D15C789D1C002E02D0102E0AD162E0302C5ED1202208
:400D40002B789343582B54D110266C780235009F31007B1E9F412E4BFF183800FFF788FF380004913100FFF7FDFE00230322070094461800029A121951780422114201D069
:400D8000303C07E06246114017D03722012900D02032A41AA64210DD5A1C0BD0B84207D802D1049B9C4203DC70430123201801E001235B422C780135DCE75A1C0BD1009837
:400DC000059A431E9841124BC01822231360019B002B0AD117E0009A002A00D04042019A002A10D0039A002B00D06A1E019B1A6009E03024002EAAD10826A8E70A26A6E743
:400E0000302C9CD0A3E707B0F0BDC04640010020FFFFFF7F10B513000A00010002480068FFF766FF10BDC0463C0100200000000000300F40000400400F400004800D820DC7
:400E4000830D06040701120813011C012407300132043301340836023F044020410545D14720482349FF4AFF4BFF4DA04F04501852805405580459045A045B045F01604056
:400E800062C06440654066C068C06AC06CC06EC0000409020A01102018241A41220430023804400448224901500259015A487102C004C209C404CC01CE02D004D208D60B44
:400EC0000F01140118071E0423012E08300132023404350136083F104010410545D14602480749FF4AFF4BFF4DA04F04501852805405580459045A045B045F01604062C049
:400F00006440654066C068C06AC06CC06EC086048701920897019C01A407B001B204B301B408B602BF04C020C106C5D1C702C813C9FFCAFFCBFFCDA0CF04D018D280D40529
:400F4000D804D904DA04DB04DF01E040E2C0E440E540E6C0E8C0EAC0ECC0EEC0000409020A010D800E200F081020178018041A611D801EA41F80220427082F8030083804FE
:400F80003F8040044580482849014F895008574059015A485E805F097102778082108604A810C004C2E9C484CA80CC02CE12D014D214D6DBE002E404E8046208D8025C08E0
:400FC000661080088610AA08D601D8010101100103000F4027300F4018310F404E320F402F330F4002420F4007430F4002600F40030405060708090A0B0C0E0F101112134D
:401000001415161718191B1C1D1E1F2021222325262728292A2B2E2F3031323334354300002020202020202020202828282828202020202020202020202020202020202023
:401040002088101010101010101010101010101010040404040404040404041010101010101041414141414101010101010101010101010101010101010101011010101066
:4010800010104242424242420202020202020202020202020202020202020202101010102000000000000000000000000000000000000000000000000000000000000000FC
:4010C00000000000000000000000000000000000000000000000000000000000000000000000000000000000000000000000000000000000000000000000000000000000F0
:40110000000000000000000000000000000000000000000000000000000000000000000000000000F8B5C046F8BC08BC9E467047D5010000C1030000F8B5C046F8BC08BC24
:401140009E467047AD01000058110000C0000020880000005800000000000000010000000000E02EC05D00001800000000366E010404040000000000000000000000000008
:4011800000000000000000000000000000000000000000001E1000000000000000000000000000000000000000000000000000000000000000000000000000000000000001
:4011C0000000000000000000000000000000000000000000DC00002020100000000000000000000000000000000000000000000000000000000000000000000000000000C3
:4012000000000000000000000000000000000000000000000000000000000000000000000000000000000000000000000000000000000000000000000000000000000000AE
:40124000000000000000000000000000000000000000000000000000000000000000000000000000000000000000000000000000000000000000000000000000000000006E
:40128000000000000000000000000000000000000000000000000000000000000000000000000000000000000000000000000000000000000000000000000000000000002E
:4012C00000000000000000000000000000000000000000000000000000000000000000000000000000000000000000000000000000000000000000000000000000000000EE
:0200000490303A
:02000000A0DA84
:0200000490402A
:200000000000000000000000000000000000000000000000000000000000000000000000E0
:0200000490501A
:0C000000000204C81193110104CDB26D80
:0200000490600A
:0100000001FE
:00000001FF