:400000000040002011000000C5040000C504000010B500F05FFAC04670B51222224B1A6000F080FB214800F047FD012000F09AFB302000F0C9FA1E4A1E4B1A601E4C80255E
:40004000ED0525601D4A116802230B4313601C4A1C4B1A6000221C4B1A601C4A136808218B431360FA20C00000F028FB184800F01BFB88229201174B1A60174A174B1A6005
:4000800080221206164B1A608022D202154B1A604022154B1A601549082000F0DBFA082000F0CCFA256070BD30001040001BB7000600008004010B400C020B4078002E40DD
:4000C0002D3E00007C002E4064F02E406CF02E40DC0500000003014040FF00800000014008010B4000010B40080101407D08000010B572B600221F4B1A6000240FE01E481F
:400100006200131959000B00411889881A5AC31858880004104300F0CFF90134E4B2012CEDD9EE221206154B1A6099231B04144A1360144A1360144A1360144A1360144AE8
:40014000117806230B43DBB21370D8221204114B1A60114A114B1A602023114A1360C4218902104A1160104A1360FFF755FF00F093F910BD6CF02E4014110000000002407B
:400180000003024000500F4010500F4030500F4000700F4008000440B60D00000801044000030440080304401803044010B5064C2378002B07D1054B002B02D0044800E09F
:4001C00000BF0123237010BD5801002000000000740F0000084B10B5002B03D00749084800E000BF07480368002B00D110BD064B002BFBD09847F9E7000000005C01002065
:40020000740F0000C00000200000000070B5084D8400605D00F0A8F92C19607800F0B0F9A07800F0B9F9E07800F0C2F970BDC046780F000010B5074A136801331360072B78
:4002400002DD0022034B1A60024B1868FFF7DEFF10BDC0467401002010B5074A1368013B1360002B02DA0722034B1A60024B1868FFF7CCFF10BDC0467401002010B50E4864
:4002800000F00EFC0D4800F00BFC0D4800F008FC0C4C200000F004FC0B4800F001FC0B4800F0FEFB200000F0FBFB094800F0F8FB084800F0F5FB10BD9C0F0000C80F000012
:4002C000F40F00000C1000002810000044100000601000007C10000030B583B000F0CAFBC0B24D2801D0532860D14D2801D14D2500E05325002455E000F0BCFBC0B200287B
:4003000007D00300303BDBB2092B02D801AB18550134032C01D14D2D03D0012C42D1532D40D14D2D11D1234800F0BAFB01A800F0B7FB0A2000F026FB0D2000F023FB01A89A
:4003400000F040FD1C4B58600DE0532D0BD101A800F038FD194B1860062806DD06221A60174800F09DFB002319E0002806DC0122124B1A60134800F093FBF4E7124800F086
:400380008FFB01A800F08CFB0A2000F0FBFA0D2000F0F8FAE7E7002101AAD1540133022BF9DD5825582DA7D1012000E0002003B030BDC046A810000074010020C40000200D
:4003C000BC100000E01000000411000010B5054B5B685843B421490000F008FC024B986010BDC046C40000207401002010B501000C2000F0FBFB014B986010BDC400002049
:4004000010B562B600F0A0FAFFF738FFFFF764FF002838D01E4C6068FFF7D8FF1D4B1868FFF7E4FFE268A3689A4213DA9B1A184A136100240AE0FFF7FDFE164B986800F0E6
:400440001BF9134AD3680133D3600134104B1B699C42F0DB0E4AD3689268934213DD9B1A0B4A136100240AE0FFF7F6FE094B986800F002F9064AD368013BD3600134044B27
:400480001B699C42F0DBFA20400000F0F5F8BDE774010020C40000200323044A1360044A13600022034B1A607047C0463000304030003140000E3F4010B50A00002100F0BE
:4004C000B3FC10BD10B500F083FC03680C2B00D1FEE7FEE770B50F4E0F4D13E029686B68AC68002202E001C901C30432A242FAD1E868002202E0002102C304328242FAD150
:400500001035013E002EE9D100F068FCFFF778FFFEE7C046010000007812000010B50E4A136801218B43136000230AE0032B03D89A000A49505800E009489900094A88507D
:4005400001332F2BF2D9FFF7D3FD034A116801230B43136010BDC0460000104000000000C504000000000020044A1368DBB201218B430840184310607047C046000104404A
:4005800004490A68D2B202239A43400018401043086070470001044004490A68D2B204239A43800018401043086070470001044004490A68D2B208239A43C000184010431B
:4005C000086070470001044010B586B0040000F07CFA0E4B1B6800930D4B1B680193033C0C4B1B5D02930C4B1B68039304AA0B4B04936B4605930A4B1A600A490A4A116076
:400600001B6800F066FA06B010BDC04608010B4000010B402011000030001040B6EA0000080010401700008004001040024B1B68012018407047C0460C002E401F23184010
:400640001E3B8340014A13607047C04600E100E001BE704770B504000D001F2802D90020FFF7F6FF1034A40080239B059C4664442068256070BDC04610B5040006E0084B52
:40068000586800F019FA074B9C46644480231B029C42F4D8024B9868604300F00DFA10BDD00000200080FFFF10B5034B1B7B584300F002FA10BDC046D000002010B5040053
:4006C0000F4A116801230B4313600E4A0E4B1A600E4A1368802109020B431360002809D100200CE00120FFF7DFFFFFF79FFF002804D1013C002CF5D1102000E0002010BD18
:4007000060F02E400220000078002E4010002E40034B1868C0231B02184000D00120704700010B4010B50D4B1A6801218A431A601A68022082431A60094A10683024A0436E
:40074000203C204310601068093CA043014311601A68802109060A431A6010BD00F02E4000FF2E4070B51D4B1B6801241C40002802D0012816D02BE0184B196801229143E4
:4007800019601968022081431960154B19682E3081432038014319601968093881430A431A6018E00D4B1A6802218A431A600C4A10680725A8430143116011683020814318
:4007C000103801431160196801220A431A6002E00020FFF73DFF200070BDC04600F02E4000FF2E4010B500F070F9044A1368C02109020B43136000F06CF910BD00010B403D
:4008000010B500F062F908490A68084B1A408024E40122430A600A6813408022120213430B6000F056F910BD00010B40FF3FFFFF70B5050000F049F90400FFF769FF00282A
:4008400003D0FFF7DDFF012100E0002108482840084A1568084B2B40184310601368012901D1FFF7BFFF200000F033F970BDC0460404040010020B40FBFBFBFF10B5244B79
:400880001B685B0715D5234B5B685B070ED5224B596A042001401F4C62688A4362605A6A82435A629B69002B00D098470420FFF7BFFF174B1B685B0518D5164B5B685B05E9
:4008C00010D5154B596A8022D2001140114842688A434260596A114A0A405A62DB69002B00D098478020C000FFF7A2FF084B1B685B030CD5074B5B685B0304D5064B1B6A49
:40090000002B00D098478020C002FFF791FF10BD10020B40E400002088010020FFFBFFFF10B500F091F810BD10B500F039F810BD10B5044A1368802109060B431360FFF773
:40094000EFFF10BD0000254010B5064B1B78002B04D1FFF7E9FF0122024B1A70FFF7E8FF10BDC046B0010020014B18687047C04640032540024B1B681F2018407047C04600
:4009800008032540044B1B681F221340082BF9D0024B18607047C0460802254040022540154A164B1A600023154A13601549164A1160164A16490A600720164908601649F9
:4009C0000B6006381549086015490A60154A13600421154A1160154A1360154A1360154A1360154A1360154A1360154A13601268144B1A807047C0460B000002000025406B
:400A00004000254001000A00480025400700008000032540040325401003254044002540000225400402254050002540880E2540C80E2540480F2540080F2540C80F2540AC
:400A4000880F2540B2010020064A1168064B0B40902109040B431360044B1A88044B1A607047C04600030240FFFF0FFFB2010020880F254010B5FFF77DFF002802D0FFF705
:400A800073FF00E00020054B1A68D8239B001A4203D01A00014B1A60002010BDC00F254070B50500002402E0FFF76CFF0134285D0028F9D170BDC0460230800803D00138F6
:400AC000FDD1C046C046C0467047EFF3108072B6704780F310887047002243088B4274D303098B425FD3030A8B4244D3030B8B4228D3030C8B420DD3FF22090212BA030C36
:400B00008B4202D31212090265D0030B8B4219D300E0090AC30B8B4201D3CB03C01A5241830B8B4201D38B03C01A5241430B8B4201D34B03C01A5241030B8B4201D30B03BA
:400B4000C01A5241C30A8B4201D3CB02C01A5241830A8B4201D38B02C01A5241430A8B4201D34B02C01A5241030A8B4201D30B02C01A5241CDD2C3098B4201D3CB01C01AB6
:400B8000524183098B4201D38B01C01A524143098B4201D34B01C01A524103098B4201D30B01C01A5241C3088B4201D3CB00C01A524183088B4201D38B00C01A524143089D
:400BC0008B4201D34B00C01A5241411A00D20146524110467047FFE701B5002000F0F0F802BDC0460029F7D076E7704703460B437FD4002243088B4274D303098B425FD3B5
:400C0000030A8B4244D3030B8B4228D3030C8B420DD3FF22090212BA030C8B4202D31212090265D0030B8B4219D300E0090AC30B8B4201D3CB03C01A5241830B8B4201D391
:400C40008B03C01A5241430B8B4201D34B03C01A5241030B8B4201D30B03C01A5241C30A8B4201D3CB02C01A5241830A8B4201D38B02C01A5241430A8B4201D34B02C01AC0
:400C80005241030A8B4201D30B02C01A5241CDD2C3098B4201D3CB01C01A524183098B4201D38B01C01A524143098B4201D34B01C01A524103098B4201D30B01C01A524142
:400CC000C3088B4201D3CB00C01A524183088B4201D38B00C01A524143088B4201D34B00C01A5241411A00D201465241104670475DE0CA0F00D04942031000D34042534008
:400D000000229C4603098B422DD3030A8B4212D3FC22890112BA030A8B420CD3890192118B4208D3890192118B4204D389013AD0921100E08909C3098B4201D3CB01C01A88
:400D4000524183098B4201D38B01C01A524143098B4201D34B01C01A524103098B4201D30B01C01A5241C3088B4201D3CB00C01A524183088B4201D38B00C01A5241D9D27B
:400D800043088B4201D34B00C01A5241411A00D20146634652415B10104601D34042002B00D54942704763465B1000D3404201B5002000F005F802BD0029F8D016E77047F6
:400DC0007047C04610B50A22002100F0C7F810BD014B18687047C0464C0100200E4B70B500251E000D4CE41AA410A54204D0AB00F35898470135F8E700F02CFA084B0025B3
:400E00001E00084CE41AA410A54204D0AB00F35898470135F8E770BD6012000060120000601200006812000003008218934202D019700133FAE77047F0B51E00454B87B0C9
:400E40001B680192029308220B00059003911C7802995D1C09194878104001D02B00F6E72D2C04D19D1C5C780123009304E000902B2C01D15C789D1C002E02D0102E0AD101
:400E800062E0302C5ED120222B789343582B54D110266C780235009F31007B1E9F412E4BFF183800FFF79EFE380004913100FFF713FE00230322070094461800029A121901
:400EC00051780422114201D0303C07E06246114017D03722012900D02032A41AA64210DD5A1C0BD0B84207D802D1049B9C4203DC70430123201801E001235B422C78013590
:400F0000DCE75A1C0BD10098059A431E9841124BC01822231360019B002B0AD117E0009A002A00D04042019A002A10D0039A002B00D06A1E019B1A6009E03024002EAAD1CE
:400F40000826A8E70A26A6E7302C9CD0A3E707B0F0BDC04650010020FFFFFF7F10B513000A00010002480068FFF766FF10BDC0464C0100200000000001000000010100001B
:400F8000000100000001010000000100000001010000000101000001080000003D3D3D3D3D3D3D3D3D4D6F746F7220436F6E74726F6C205465726D696E616C3D3D3D3D3D5C
:400FC0003D3D3D3D0A0D00002A2A2A2A2A2A2A2A2A2A2A2A2A2A2A20436F6D6D616E6473202A2A2A2A2A2A2A2A2A2A2A2A2A2A2A0A0D00000953583A200953657473207427
:4010000068652073706565642E0A0D00090958206D75737420626520636F6D70726568656E6465640A0D000009096265747765656E203120616E6420362072706D732E0AFE
:401040000D0000000A094D583A2009536574732074686520706F736974696F6E2E0A0D0009096265747765656E2030C2BA20616E6420393939C2BA2E0A0D00003D3D3D3DD3
:401080003D3D3D3D3D3D3D3D3D3D3D3D3D3D3D3D3D3D3D3D3D3D3D3D3D3D3D3D3D3D3D3D3D3D3D3D0A0D000054686520706F736974696F6E2069733A20000000496E7661EB
:4010C0006C69642073706565642E2053657474656420746F203672706D2E0D0A00000000496E76616C69642073706565642E2053657474656420746F203172706D2E0D0A4B
:40110000000000005468652073706565642069733A20000000300F40000400400F400004030405060708090A0B0C0E0F101112131415161718191B1C1D1E1F202122232580
:40114000262728292A2B2E2F30313233343543000020202020202020202028282828282020202020202020202020202020202020208810101010101010101010101010101D
:4011800010040404040404040404041010101010101041414141414101010101010101010101010101010101010101011010101010104242424242420202020202020202F1
:4011C0000202020202020202020202021010101020000000000000000000000000000000000000000000000000000000000000000000000000000000000000000000000077
:4012000000000000000000000000000000000000000000000000000000000000000000000000000000000000000000000000000000000000000000000000000000000000AE
:401240000000000000000000000000000000000000000000F8B5C046F8BC08BC9E467047D50100001D050000F8B5C046F8BC08BC9E467047AD01000088120000C0000020C2
:4012800098000000600000000000000006000000EC0F000002000000010000000000C05D80BB000030000000006CDC02F00000000404040000000000000000000000000064
:4012C00000000000000000000000000000000000000000004E110000000000000000000000000000000000000000000000000000000000000000000000000000000000008F
:401300000000000000000000000000000000000000000000EC0000205011000000000000000000000000000000000000000000000000000000000000000000000000000040
:40134000000000000000000000000000000000000000000000000000000000000000000000000000000000000000000000000000000000000000000000000000000000006D
:40138000000000000000000000000000000000000000000000000000000000000000000000000000000000000000000000000000000000000000000000000000000000002D
:4013C00000000000000000000000000000000000000000000000000000000000000000000000000000000000000000000000000000000000000000000000000000000000ED
:4014000000000000000000000000000000000000000000000000000000000000000000000000000000000000000000000000000000000000000000000000000000000000AC
:020000040001F9
:0200000490303A
:0200000077ED9A
:0200000490402A
:4000000000000000000000000000000000000000000000000000000000000000000000000000000000000000000000000000000000000000000000000000000000000000C0
:400040000000000000000000000000000000000000000000000000000000000000000000000000000000000000000000000000000000000000000000000000000000000080
:0200000490501A
:0C00000000020E34119E00010E39898BA5
:0200000490600A
:0100000001FE
:00000001FF