:4000000000400020110000008D0500008D05000010B500F0C3FAC04670B51222334B1A6000F068FC324801F0FBFB012000F082FC302000F08FFB2F4A2F4B1A602F4C8025C7
:40004000ED0525602E4A116802230B4313602D4A2D4B1A6000222D4B1A602D4A136808218B431360FA20C00000F010FC294800F003FC294A294B1A60294B2A4A1A60FE2240
:40008000120229490A602949196029490A60294A1A6088218901284A1160284A1A60C0218900274A1160274A1A6080221206264B1A608022D202254B1A604422244B1A600F
:4000C000043A244B1A600132234B1A600232234B1A60013A224B1A602249082000F094FB082000F071FB256070BDC04630001040001BB7000600008004010B400C020B40B1
:4001000078002E402D3E00007C002E4064F02E406CF02E40DC050000007F2500100301400000014044FF00800003014040FF00800403014041FF00800C03014043FF0080FE
:400140000803014042FF008008010B4000010B401C010140140101401001014008010140040101404D0A000010B572B60022334B1A6000240FE032486200131959000B005F
:40018000411889881A5AC31858880004104300F0C3F90134E4B2012CEDD9294801000C312C3000F09FF98022D202264B1A60264A264B1A60264A274B1A6099231B04264AEF
:4001C0001360264A1360264A1360264A1360264A136026490B783C22934314221343DBB20B70234A117816230B43DBB213700123204A13602049214A11609021204A1160E7
:400200002049214A1160222220490A60C02040031F4908601F490A60023A1F490A601F481F4908601F490A601F4A13601F4A1360FFF7F2FE00F096F910BDC0466CF02E40CC
:40024000DC1F000014000B40080000EE0000024000000FF0000102400003024000500F4010500F4020500F4030500F4001700F4000700F40000004403600D800080004406C
:40028000000104400060C30008010440000204400802044018020440000304400010DB000803044018030440000404401804044010B5064C2378002B07D1054B002B02D00D
:4002C000044800E000BF0123237010BD7001002000000000801E0000084B10B5002B03D00749084800E000BF07480368002B00D110BD064B002BFBD09847F9E70000000082
:4003000074010020801E0000C00000200000000010B500F0B1F9012000F0EAFB002000F0E7FB10BD074A136858000749415A9180312B02DC0133136002E00022014B1A60CB
:400340007047C0468C010020841E000000220FE093000949CB186A33198883B2994206D193000549CB186821595A044B99800132312AEDDD7047C046841E00008C010020A7
:4003800010B5084B1B68632B03DC0533054A136002E00522034B1A60024B186800F0D2FB10BDC046C400002070B500F02BFC040002281CD11A4DE888FFF7AAFFAB68312BED
:4003C00003DC0133164A93600DE00022144B9A6001F020F9012804D1124B1879FFF7B6FF01E0FFF79FFF022000F012FC14E0012812D10B4DA888FFF78BFFEB68092B03DC8B
:400400000133074AD36004E00022054BDA60FFF7B7FF012000F0FCFB200000F0F9FB70BD8C010020C400002010B562B6284801F0E9F9FF2000F068FB00F00EF900F0D2FBB8
:4004400001F01CF900F022FE224801F0A7F900F05FFE012001F0D2F8012001F0E3F8012001F0ECF801F084F9C0B21B4B5871002807D01B79984204D0174B1871174801F0D4
:400480008DF900F029FC0028ECD100F037FF144C2061012000F032FF6061002000F02EFF002805D0002001F0A9F8012001F0BAF8012000F023FF002805D0002001F0B2F817
:4004C000012001F09BF800F0B3FE00F039FDC9E7A9030000B81F0000C4000020C01F00008C010020F0B50025002711E0BB00C658F3B2FF22964308E06A008A181478A41956
:40050000527822700135013BDBB2002BF4D10137032FEBD9F0BDC04610B50A00002101F0A7FC10BD0C4B1B68002803D080221206134301E05B005B08074A1360074B1B6821
:40054000002803D080229204134301E0044A1340024A13607047C04680033A4008010B40FFFFFFFD10B50323054A1360054A13600022054B1A600120FFF7D4FF10BDC04691
:400580003000304030003140000E3F4010B501F043FC03680C2B00D1FEE7FEE770B50F4E0F4D13E029686B68AC68002202E001C901C30432A242FAD1E868002202E0002106
:4005C00002C304328242FAD11035013E002EE9D101F028FCFFF728FFFEE7C046010000004C21000010B50E4A136801218B43136000230AE0032B03D89A000A49505800E0F4
:4006000009489900094A885001332F2BF2D9FFF7ABFD034A116801230B43136010BDC04600001040000000008D0500000000002010B500F02FF810BD10B500F045F810BDC6
:4006400010B5044A1368802109060B431360FFF7EFFF10BD0000244010B5064B1B78002B04D1FFF7E9FF0122024B1A70FFF7E8FF10BDC046B0010020044B1B681F221340FE
:40068000082BF9D0024B18607047C0460802244040022440024B1A88024B1A607047C046B2010020880F244005490A68054B1A408006C0231B051840104308607047C046A4
:4006C00020002440FFFFFFF310B5124A124B1A60124A134B1A60134B134A13600721134A1160134A13600023124A1360124A1360124A1360124A1360124A1360124A136069
:40070000124A13601268124B1A800020FFF7CCFF10BDC0460F0000010000244001000080200024400F01008000032440040324400002244004022440880E2440C80E2440E6
:40074000480F2440080F2440C80F2440880F2440B201002010B586B0040001F06AF80E4B1B6800930D4B1B680193033C0C4B1B5D02930C4B1B68039304AA0B4B04936B46AB
:4007800005930A4B1A600A490A4A11601B6801F054F806B010BDC04608010B4000010B401820000030001040B6EA0000080010401700008004001040024B1B6801201840ED
:4007C0007047C0460C002E401F2318401E3B8340014A13607047C04600E100E01F2318401E3B8340014A13607047C04680E100E01F2318401E3B8340014A13607047C0462D
:4008000080E200E001BE704770B504000D001F2802D90020FFF7F6FF1034A40080239B059C4664442068256070BDC04670B504000E00032902D90020FFF7E4FF1F2C02D94B
:400840000020FFF7DFFF03252540ED00063500F0F0FFA408A400074B9C46644421680323AB4099430B003100A9401943216000F0E4FF70BD00E400E010B5034B1B7B584344
:4008800000F0CEFF10BDC046CC00002010B504000F4A116801230B4313600E4A0E4B1A600E4A1368802109020B431360002809D100200CE00120FFF7DFFFFFF77DFF002834
:4008C00004D1013C002CF5D1102000E0002010BD60F02E400220000078002E4010002E40034B1868C0231B02184000D00120704700010B4010B50D4B1A6801218A431A6091
:400900001A68022082431A60094A10683024A043203C204310601068093CA043014311601A68802109060A431A6010BD00F02E4000FF2E4070B51D4B1B6801241C40002804
:4009400002D0012816D02BE0184B19680122914319601968022081431960154B19682E3081432038014319601968093881430A431A6018E00D4B1A6802218A431A600C4A60
:4009800010680725A84301431160116830208143103801431160196801220A431A6002E00020FFF72FFF200070BDC04600F02E4000FF2E4010B500F03CFF044A1368C02120
:4009C00009020B43136000F038FF10BD00010B4010B500F02EFF08490A68084B1A408024E40122430A600A6813408022120213430B6000F022FF10BD00010B40FF3FFFFF9F
:400A000070B5050000F015FF0400FFF769FF002803D0FFF7DDFF012100E0002108482840084A1568084B2B40184310601368012901D1FFF7BFFF200000F0FFFE70BDC046BB
:400A40000404040010020B40FBFBFBFF10B5244B1B685B0715D5234B5B685B070ED5224B596A042001401F4C62688A4362605A6A82435A629B69002B00D098470420FFF70E
:400A8000BFFF174B1B685B0518D5164B5B685B0510D5154B596A8022D2001140114842688A434260596A114A0A405A62DB69002B00D098478020C000FFF7A2FF084B1B6874
:400AC0005B030CD5074B5B685B0304D5064B1B6A002B00D098478020C002FFF791FF10BD10020B40E0000020B4010020FFFBFFFF04490A68D2B220239A434001184010438D
:400B00000860704700010440044B1B68002BFBDB0002034B1843014B1860704700000140440000800004000C014B18607047C046080120400004000C014B18607047C046C8
:400B4000140120400004000C014B18607047C0460C01204070B504000D0000F06AFEAC40024B1C6000F069FE70BDC0460800204010B500F05EFE064A116801230B4313600E
:400B800000F05BFE18210120FFF7E4FF10BDC04600002040014B18607047C0463801204010B50D4C8023DB042360236823600020FFF7B8FF236823600C22084B1A60032042
:400BC000FFF7E8FF3122064B1A606420FFF7B2FF3C20FFF7B7FF10BD00012040240120402801204010B5064B1B78002B04D1FFF7D7FF0122024B1A70FFF7BAFF10BDC0469A
:400C0000DC010020014B18687047C04630012040014B18607047C0463001204070B5154C2368DBB2144A13700F2083431900134D2B780F2213400B43E13293432A788243D9
:400C4000134323600E4A0F4B1A600F4A0F4B1A600F490B688343062213430B600130FFF7BDFD0C491020FFF7CFFD03211020FFF7DDFD70BD00FF28400402002062F1FF0F61
:400C800000020001080028400008A00104002840000402402513000010B500F093FC00F067FC0021002000F06FFC0021002000F095FCFF2000F04EFC402000F075FC044AD1
:400CC000136804490B4313601020FFF77DFD10BD0400284000100880024B1878012318407047C046E00100204000024B181880887047C046E0010020F8B5104F3E5C38186A
:400D000003795D005D19EDB29B00DCB200F091FDB300FB189E6832680F21A1408A4311000422A2400A435C6A23680721A9408B432360326000F081FDF8BDC046482000009E
:400D4000F8B5194A145C13181F79B900C9B27D007D19EDB2154B185CA300D3189E6833680F228A4093433360022800D10020012801D1002600E0062600F05BFDA4000A4B5A
:400D80001C19616A0B680722AA4093431A003300AB4013430B6000F050FD216C0B680122BA4093430B60F8BD482000001C02002010B5002403E02000FFF7C2FF0134012CE3
:400DC000F9D910BD044A11684002C023DB001840084310607047C04604002840CA0807231940063B8B40825C134201D0012000E00020704710B504000134E4B2022C06D07C
:400E0000210004480830FFF7E9FF0028F4D0200010BDC046E8000020F8B50400324B1B185C229B5C9B00314A9D5801003048FFF7D5FF304B9D4203D88540FF231B041D4389
:400E400000F0C0FB00F094FB2B4B185D013880B2002100F099FB294B185D013880B2002100F0BCFBFF2000F075FB402000F09CFB1020FFF7B3FC80225202214B1A60204BAF
:400E80001B681B0CFBD101221E4B1A601020FFF7AFFC1020FFF798FC1020FFF79FFC1A4801681A4B19401A4B1B5D1A4A125D120413430B430360184F3E68184B1E40184BE3
:400EC0001E431020FFF780FC2000FFF715FF00F0B0FC04003E60002000F0A2FC084B1D60200000F0AAFCF8BD48200000E800002008020020FFFFFEFF200200201002002095
:400F00000C002840140028400800284000FF80FF140200201802002004002840FF1FDFFF2000200010B5054B00221A70C2B21A7281221A70FFF770FF10BDC046E001002094
:400F400010B50C4C00232370FF332372207AC0B2FFF750FF2072237ADBB2012B08D8217801230B43DBB22370207AC0B2FFF754FF10BDC046E001002070B50500184B1C6859
:400F8000A4B24300174AD3189C80174B1B185C229B5C9B00154A9A58154B9A4208D801001448FFF71BFF6B000E4AD31804419C802800FFF7C5FE1020FFF710FC0E4A1168BE
:400FC0000E4B0B40A02109020B4313600C4A11680C4B0B4013601020FFF7F6FB70BDC0460C002840E001002048200000E8000020FFFFFEFF0802002004002840FF1FDFFF20
:401000000800284000FF80FF10B5CC0807231940063B8B40DBB2002A04D0041922781343237003E0041922789A43227010BDC04670B50600002400250BE03000FFF772FF9D
:40104000FFF74AFE0128FBD03000FFF74DFE24180135002DF1D0A0B270BDC046014B19547047C0461C02002010B5002404E000212000FFF7F3FF0134012CF8D9FFF7CEFD4A
:401080000020FFF79FFEFFF793FE10BD10B50B4B5B7A002B04D1FFF7E7FF0122074B5A72FFF7FAFD00F004FA0122044B9A72044A13688021C9030B43136010BDE0010020FE
:4010C0000400284010B5084B1B5C4100074A8C5A074A8C5210180021017101720549C95CD318197310BDC046A4200000E4010020EC010020FC00002010B50400FFF712FFA1
:40110000FFF7EAFD0028FBD12000FFF7DBFF10BD10B5002403E02000FFF7EEFF0134012CF9D910BDF0B54F4680B482B00400344B1B5C9946334B4A469B5C0193324A45007E
:40114000AE5AC1B2314800F057FC314BE95A8E4206D300222F4B1A55751AADB2012702E08D1BADB20027002F16D12B4B4A469B5C9D4211D9274B1B5D284A121912799342DC
:4011800006D32000FFF79EFF0022224B1A551EE00133204A13551AE06B469B889D4206D91D4B4A469B5C9D4211D2002F0FD10B02174A9446101902791343F3185B1A190A70
:4011C00062006646B15203710022124B1A556B469E88B5420CD9002F0AD0FF2D04D90C4B1C19FF23237207E0094B1C19257203E0074B1C190023237202B004BC9146F0BD55
:40120000A420000024020020E401002050020020EC010020280200202C020020FC00002010B5040000F0CCF82000FFF77BFF10BD10B5002409E021000548FFF7CFFD002868
:4012400002D02000FFF7ECFF0134012CF3D910BDF0000020F0B5474680B40400224B1D5C224B5F5D224B5E5D224B5B5D9846010021481030FFF7B2FD002810D01E4B1B19F8
:401280001B7ABE1BB34223DA1B4E3000103000222100FFF7B9FE751943462B7318E0164B1B191B7ABE19B3420EDB134B5D192B7B013BDBB22B73002B0AD1012221000E48F8
:4012C0001030FFF7A1FE03E00B4B5D1943462B73210009481030FFF781FD002800D0012004BC9046F0BDC046A42000003402002030020020FC000020EC01002070B5084BAE
:401300001A1814791D5C651900262000FFF7A2FF002800D001260134A542F6D8300070BDB020000010B51020FFF758FA01221E4B1A601E4B1878C0B2FFF71EFE1C4B1B782A
:401340005BB2002B05DA1A4A137801218B43137026E0164C2078C0B2FFF74CFD20702378DBB2012B05D8114B1878C0B2FFF754FD16E00F4B1A7801218A431A701B785B068E
:401380000ED500220B4B1A7006E00B4AD15C0B4AD1540133074A1370064B1B78002BF4D01020FFF711FA10BD14002840E8010020E0010020FD0100200C020020F0000020AB
:4013C00070B582B0154B1C5C154EC1B2154D009533002200144800F08DFB335D295D134A1155DB2B03D8DB08114A135514E0EC2B03D81B090E4A13550EE0F42B03D85B0952
:401400000B4A135508E0F92B03D89B09084A135502E00022064B1A5502B070BDA42000003402002024020020500200202C02002030020020024A136840218B431360704775
:4014400004002840044A1168044B0B40802189000B4313607047C04608002840FFFCFFFC70B5002308E00D49CA5C55080C4CE55401325208CA54013302789342F3D31020D3
:40148000FFF7ACF9074A1168074B0B4007490B4313601020FFF798F970BDC046140200201802002008002840FFFCFFFC0002000170B5204B02221A705A709A702E32DA808A
:4014C0001D4A9A801D4A9A60FFF7B4FF002304E099001B481B4A88500133164A52789342F6D3002306E01021174AD1540C39174AD1540133012BF6D9FFF7A4FF144D0D4C18
:401500002900200000F0D8F9200000F0E6F92900200000F0D1F9200000F000FA2000FFF79FFF002403E02000FFF74AFF0134012CF9D970BD5002002098090000B82000003F
:401540000000FF0FE800002010020020200200209A0D0000044B1B68002BFBDB0002034B1843014B186070470000014040000080034B1B68002BFBDB024A014B1A607047A5
:40158000000001404000004010B5064A13680724234000021843CB00FF2119400143116010BDC04600030140044B1B68002BFBDB0002034B1843014B1860704700000140A5
:4015C00041000080034B1B68002BFBDB024A014B1A607047000001404100004010B5064A13680724234000021843CB00FF2119400143116010BDC0460403014004490A687F
:40160000D2B240239A438001184010430860704700020440024B186880090123184070470402044004490A68D2B240239A43800118401043086070470003044004490A68AE
:401640007F231A40C301D8B2104308607047C0460003044010B500F075F810BD10B500F01DF810BD10B5044A1368802109060B431360FFF7EFFF10BD0000254010B5064BB0
:401680001B78002B04D1FFF7E9FF0122024B1A70FFF7E8FF10BDC046FE010020154A164B1A600023154A13601549164A1160164A16490A6007201649086016490B60063873
:4016C0001549086015490A60154A13600421154A1160154A1360154A1360154A1360154A1360154A1360154A13601268144B1A807047C0460B000002000025404000254062
:4017000001000A00480025400700008000032540040325401003254044002540000225400402254050002540880E2540C80E2540480F2540080F2540C80F2540880F254048
:4017400000020020064A1168064B0B40902109040B431360044B1A88044B1A607047C04600030240FFFF0FFF00020020880F254010B500F06BF8002802D000F061F800E042
:401780000020054B1A68D8239B001A4203D01A00014B1A60002010BDC00F254070B50500002402E000F05AF80134285D0028F9D170BDC0468423014AD05070470000002037
:4017C00010B5040000F035F8044A1168044B0B40A4031C43146000F030F810BD10E400E0FF3FFFFF80229202014B1A607047C04600E100E080229202014B1A607047C04600
:4018000080E100E010B50400FFF7F4FF2000FFF7D1FF0320FFF7D4FFFFF7E4FF10BDC0460230800803D00138FDD1C046C046C0467047EFF3108072B6704780F310887047C7
:40184000014B18687047C04640032540024B1B681F2018407047C04608032540044B1B681F221340082BF9D0024B18607047C0460802254040022540F7B59C180023071C03
:4018800008268025019100922370237800982B432370BB689B6C9847019B984202D22378AB432370013E6D08002EEED12378F82B01D9F8232370F7BD70B5051C0E1C0024CC
:4018C0002B789C4208D2AB68221C281C311C1B68FFF7D2FF0134F3E770BD38B5051C00242B789C4219D2AA6813681B5DDB080F2B00D90F23D16BD268C95C1155AA68042B18
:4019000004D9936D906B211C012203E0936D906B211C002298470134E2E738BDF0B5041C002687B063789E4262D2A3685A6C925D0392002A01D1013203921A6C925D01922E
:4019400001992278914251D29A689B69515C0F221140B2000492002205910499019D5A50019B5B000293039B019A9B189D423DD2A768E388A0885843FB68595D00F060F91E
:401980003B68595D00F0D2F8059B5843194B40005A2802D95B084008FAE7BA6904991B0C1B045350A36882085B6B01215855A368C008DB69029F5A550F22A36849421B6AC6
:4019C0005855A3685B6A5A55A368986AC1530021D86AC153186B9B68C1535B19197801350A401A703B1C02330293BCE7013699E707B0F0BD0000FFFFF0B585684E002B6B27
:401A0000925B9B191C8887B0141B0094AC6A1A80A45B6B6A0294EC6A5F5CA45B2B6A03946C6B7F00645C5B180494AC680193645C1B780594009CE40FA4460F24251C6744C4
:401A4000009C3D40AC46E51764196C409C4203D2012B05D0013B00E00133FF273F2B00D89F00019D2B7065460F2D29D0002D24D0BC4225D8059C029F24090094974200D941
:401A8000171C039D954200D2151C009A092A01D8141C01343A1C0A2C14D1EA1B934206D9049A92089A42924152429B1A00E001338268D26953543A1C04E0151C644601E03E
:401AC000151C00246746836824015B6A5F5483689F6ABA53DA6A9B6895530F225B181D782A401A7083689B6859180B781C430C7007B0F0BD70B58068446BC069655C405C9C
:401B0000FF213F2801D88100C9B246B2FF24002E01DB4000C4B28D4201D9291C6C08012081439954049B9C5470BD0000002243088B4274D303098B425FD3030A8B4244D301
:401B4000030B8B4228D3030C8B420DD3FF22090212BA030C8B4202D31212090265D0030B8B4219D300E0090AC30B8B4201D3CB03C01A5241830B8B4201D38B03C01A524138
:401B8000430B8B4201D34B03C01A5241030B8B4201D30B03C01A5241C30A8B4201D3CB02C01A5241830A8B4201D38B02C01A5241430A8B4201D34B02C01A5241030A8B42FF
:401BC00001D30B02C01A5241CDD2C3098B4201D3CB01C01A524183098B4201D38B01C01A524143098B4201D34B01C01A524103098B4201D30B01C01A5241C3088B4201D3F4
:401C0000CB00C01A524183088B4201D38B00C01A524143088B4201D34B00C01A5241411A00D20146524110467047FFE701B5002000F0F0F802BDC0460029F7D076E7704733
:401C400003460B437FD4002243088B4274D303098B425FD3030A8B4244D3030B8B4228D3030C8B420DD3FF22090212BA030C8B4202D31212090265D0030B8B4219D300E0B7
:401C8000090AC30B8B4201D3CB03C01A5241830B8B4201D38B03C01A5241430B8B4201D34B03C01A5241030B8B4201D30B03C01A5241C30A8B4201D3CB02C01A5241830A34
:401CC0008B4201D38B02C01A5241430A8B4201D34B02C01A5241030A8B4201D30B02C01A5241CDD2C3098B4201D3CB01C01A524183098B4201D38B01C01A524143098B42F5
:401D000001D34B01C01A524103098B4201D30B01C01A5241C3088B4201D3CB00C01A524183088B4201D38B00C01A524143088B4201D34B00C01A5241411A00D2014652417D
:401D4000104670475DE0CA0F00D04942031000D34042534000229C4603098B422DD3030A8B4212D3FC22890112BA030A8B420CD3890192118B4208D3890192118B4204D37B
:401D800089013AD0921100E08909C3098B4201D3CB01C01A524183098B4201D38B01C01A524143098B4201D34B01C01A524103098B4201D30B01C01A5241C3088B4201D376
:401DC000CB00C01A524183088B4201D38B00C01A5241D9D243088B4201D34B00C01A5241411A00D20146634652415B10104601D34042002B00D54942704763465B1000D348
:401E0000404201B5002000F005F802BD0029F8D016E770477047C046014B18687047C046680100200E4B70B500251E000D4CE41AA410A54204D0AB00F35898470135F8E7B9
:401E400000F072F9084B00251E00084CE41AA410A54204D0AB00F35898470135F8E770BD3421000034210000342100003C21000003008218934202D019700133FAE77047A4
:401E8000000000003F0006001B030F0326032D033D0307003F032F0337034F1239004F10390331033D02360340101E00B0053800B62036243F0033033F4433072D0363101E
:401EC0003E00B008360C802C80308908000300408008390000240F00810008004010400880047607002823127B0200003F003000060031001B0332000F03330026033400F2
:401F00002D0335003D033600070037003F0338002F033900370341004F124200390043004F10440039034500310346003D02470036034800401049001E004A00B0054B0063
:401F400038004C00B6204D0036244E003F004F00330350003F445100330752002D035300631054003E005500B0085600360C5700802C58008030590089085A0000032D00F2
:401F800000402E0080082F0039005B0000245C000F005D0081005E0008005F0040103A0040083B0080043C0076073D0000283E0023123F007B024000486F6C61210A0D005C
:401FC000496E74726F64756365206120636861726163746572210A0D0000000000300F40000400400F40000438283E1458045F0119081A04AD08AE043B043F029304A301C9
:40200000AF05CEC0EA40EE1004300F4002310F4002330F4008410F40030405060708090A0B0C0E0F101112131415161718191B1C1D1E1F2021222325262728292A2B2E2F54
:4020400030313233343500000202000001050000000002400001024000020240000302400004024000050240000602400800044008010440080204400803044008040440BE
:4020800008050440080604400000044000010440000204400003044000040440000504400006044000010000020000002000000001010000000100001402002018020020F6
:4020C000040100201002002020020020A4200000E800002044020020380200203C0200204C02002040020020480200205C0200200802002014210000B4200000B0200000A2
:4021000031100000190E0000E90C0000DD0D0000091000000404040808080810101010101010101043000000F8B5C046F8BC08BC9E467047D9020000E5050000F8B5C04602
:40214000F8BC08BC9E467047B102000060210000C0000020B0000000F000000000000000000000000500000041410000010000000000C05D80BB000030000000006CDC023E
:40218000F0000000040404000000FF0F0000FF0F030000000802044008020440050500001E1E0000020200000000000000000000000000000000000000000000000000001E
:4021C000000000000000000024210000000000000000000000000000000000000000000000000000000000000000000000000000000000000000000000000000000000009A
:402200000000000000000000080100200000000000000000000000000000000000000000000000000000000000000000000000000000000000000000000000000000000075
:40224000000000000000000000000000000000000000000000000000000000000000000000000000000000000000000000000000000000000000000000000000000000005E
:40228000000000000000000000000000000000000000000000000000000000000000000000000000000000000000000000000000000000000000000000000000000000001E
:4022C00000000000000000000000000000000000000000000000000000000000000000000000000000000000000000000000000000000000000000000000000000000000DE
:40230000000000000000000000000000000000000000000000000000000000000000000000000000000000000000000000000000000000000000000000000000000000009D
:020000040001F9
:0200000490303A
:0200000051D5D8
:0200000490402A
:4000000000000000000000000000000000000000000000000000000000000000000000000000000000000000000000000000000000000000000000000000000000000000C0
:400040000000000000000000000000000000000000000000000000000000000000000000000000000000000000000000000000000000000000000000000000000000000080
:0200000490501A
:0C00000000020E34119E00010E3E6373DE
:0200000490600A
:0100000001FE
:00000001FF