:400000000040002011000000E5040000E504000010B500F06FFAC04670B512222B4B1A6000F014FC2A4801F0CFFA012000F02EFC302000F03BFB274A274B1A60274C8025BE
:40004000ED052560264A116802230B431360254A254B1A600022254B1A60254A136808218B431360FA20C00000F0BCFB214800F0AFFBC0229200204B1A60204B204A1A6055
:40008000FE2212021F490A601F4919601F490A601F4A1A60802212061E4B1A608022D2021D4B1A6042231D4A136040211C4A116001311C4A11601C4A13601C49082000F0D9
:4000C0004FFB082000F02CFB256070BD30001040001BB7000600008004010B400C020B4078002E402D3E00007C002E4064F02E406CF02E40DC05000008030140000001400F
:4001000042FF00800003014040FF00800403014041FF008008010B4000010B402C010140140101401001014004010140A509000010B572B60022324B1A6000240FE03148B7
:400140006200131959000B00411889881A5AC31858880004104300F08BF90134E4B2012CEDD928490C3128486C3000F067F98022D202264B1A60264A264B1A60264A274BC3
:400180001A6099231B04264A1360A821C903254A1160254A1360254A1360254A136025490B783C22934314221343DBB20B70224A117816230B43DBB2137001231F4A1360A7
:4001C0001F49204A116090211F4A11601F49204A116022221F490A60C02040031E4908601E490A60D82109041D4A11601D4A13601D4A1360FFF710FF00F060F910BDC04662
:400200006CF02E40281D0000A81D000014000B40030000EE0000024000000FF00001024000500F4008500F4010500F4020500F4030500F4001700F4000700F4000000440D0
:400240000600D80008000440000104400060C3000801044000020440080204401802044008030440000404401804044010B5064C2378002B07D1054B002B02D0044800E088
:4002800000BF0123237010BD6801002000000000F01B0000084B10B5002B03D00749084800E000BF07480368002B00D110BD064B002BFBD09847F9E7000000006C010020FC
:4002C000F01B0000C00000200000000010B500F07FF9012000F0B8FB002000F0B5FB10BD0B4A1368013313600A4A93420FD1084A536858000849415A118100211160312B44
:4003000002DC0133536002E00022014B5A60704784010020C05D0000F41B000000220FE093000949CB186A331B88412B06D19300CB186821595A054B198100E00132013228
:40034000312AEDDD7047C046F41B000084010020064B1B68064A934203DCC833034A136002E0C822014B1A607047C046C4000020DF2E000010B562B6FF2000F071FB00F0CC
:4003800017F900F0EBFB00F039FE00F079FE012001F0ECF8012001F0FDF8012001F006F9244B188800F080FB00F04EFC002821D100F05CFF204CE060012000F057FF20610E
:4003C000002000F053FF002805D0002001F0CEF8012001F0DFF8012000F048FF002805D0002001F0D7F8012001F0C0F800F0D8FE00F05EFD002416E000F0C0FB012805D10A
:400400000D4B1889FFF762FF013403E00A4B988AFFF75CFF01F0B6F8012802D1FFF77EFF01E0FFF75DFFF423FF339C42E4DDFFF78FFFB5E7C400002084010020F0B50025F0
:40044000002711E0BB00C658F3B2FF22964308E06A008A181478A419527822700135013BDBB2002BF4D10137072FEBD9F0BDC04610B50A00002101F0B3FB10BD0C4B1B6849
:40048000002803D080221206134301E05B005B08074A1360074B1B68002803D080229204134301E0044A1340024A13607047C04680033A4008010B40FFFFFFFD10B503233C
:4004C000054A1360054A13600022054B1A600120FFF7D4FF10BDC0463000304030003140000E3F4010B501F04FFB03680C2B00D1FEE7FEE770B50F4E0F4D13E029686B688F
:40050000AC68002202E001C901C30432A242FAD1E868002202E0002102C304328242FAD11035013E002EE9D101F034FBFFF722FFFEE7C04601000000681F000010B50E4AFE
:40054000136801218B43136000230AE0032B03D89A000A49505800E009489900094A885001332F2BF2D9FFF7E3FD034A116801230B43136010BDC046000010400000000000
:40058000E50400000000002010B500F02FF810BD10B500F045F810BD10B5044A1368802109060B431360FFF7EFFF10BD0000244010B5064B1B78002B04D1FFF7E9FF01220C
:4005C000024B1A70FFF7E8FF10BDC046A4010020044B1B681F221340082BF9D0024B18607047C0460802244040022440024B1A88024B1A607047C046A6010020880F244082
:4006000005490A68054B1A408006C0231B051840104308607047C04620002440FFFFFFF310B5124A124B1A60124A134B1A60134B134A13600721134A1160134A1360002340
:40064000124A1360124A1360124A1360124A1360124A1360124A1360124A13601268124B1A800020FFF7CCFF10BDC0460F0000010000244001000080200024400F010080A3
:4006800000032440040324400002244004022440880E2440C80E2440480F2440080F2440C80F2440880F2440A601002010B586B0040000F092FF0E4B1B6800930D4B1B6867
:4006C0000193033C0C4B1B5D02930C4B1B68039304AA0B4B04936B4605930A4B1A600A490A4A11601B6800F07CFF06B010BDC04608010B4000010B40341E0000300010409F
:40070000B6EA0000080010401700008004001040024B1B68012018407047C0460C002E401F2318401E3B8340014A13607047C04600E100E01F2318401E3B8340014A1360F0
:400740007047C04680E100E01F2318401E3B8340014A13607047C04680E200E001BE704770B504000D001F2802D90020FFF7F6FF1034A40080239B059C466444206825606D
:4007800070BDC04670B504000E00032902D90020FFF7E4FF1F2C02D90020FFF7DFFF03252540ED00063500F018FFA408A400074B9C46644421680323AB4099430B0031001B
:4007C000A9401943216000F00CFF70BD00E400E010B5034B1B7B584300F0F6FE10BDC046C800002010B504000F4A116801230B4313600E4A0E4B1A600E4A1368802109023A
:400800000B431360002809D100200CE00120FFF7DFFFFFF77DFF002804D1013C002CF5D1102000E0002010BD60F02E400220000078002E4010002E40034B1868C0231B0247
:40084000184000D00120704700010B4010B50D4B1A6801218A431A601A68022082431A60094A10683024A043203C204310601068093CA043014311601A68802109060A433C
:400880001A6010BD00F02E4000FF2E4070B51D4B1B6801241C40002802D0012816D02BE0184B19680122914319601968022081431960154B19682E30814320380143196035
:4008C0001968093881430A431A6018E00D4B1A6802218A431A600C4A10680725A84301431160116830208143103801431160196801220A431A6002E00020FFF72FFF20009A
:4009000070BDC04600F02E4000FF2E4010B500F064FE044A1368C02109020B43136000F060FE10BD00010B4010B500F056FE08490A68084B1A408024E40122430A600A6882
:4009400013408022120213430B6000F04AFE10BD00010B40FF3FFFFF70B5050000F03DFE0400FFF769FF002803D0FFF7DDFF012100E0002108482840084A1568084B2B4034
:40098000184310601368012901D1FFF7BFFF200000F027FE70BDC0460404040010020B40FBFBFBFF10B5244B1B685B0715D5234B5B685B070ED5224B596A042001401F4C07
:4009C00062688A4362605A6A82435A629B69002B00D098470420FFF7BFFF174B1B685B0518D5164B5B685B0510D5154B596A8022D2001140114842688A434260596A114A90
:400A00000A405A62DB69002B00D098478020C000FFF7A2FF084B1B685B030CD5074B5B685B0304D5064B1B6A002B00D098478020C002FFF791FF10BD10020B40DC0000207C
:400A4000A8010020FFFBFFFF04490A68D2B220239A434001184010430860704700010440044B1B68002BFBDB0002034B1843014B186070470000014042000080034A117830
:400A800080235B420B43DBB21370704773000F40014B18807047C04604100F40014B18807047C04684100F40014B18807047C04644100F40014B18707047C04683000F40F0
:400AC000014B1878C0B2704763000F40014B188880B27047A4100F4010B501E0FFF7F6FFFFF7EEFFC306F9D410BDC04670B516490B783F22934309221343DBB20B70134967
:400B00000A7801231A43D2B20A70114C22781343DBB223700F4D2800FFF7BAFF2800FFF7BDFF0D48FFF7C0FF0020FFF7C3FF00F054FD227810231343DBB2237000F051FD96
:400B4000FFF7CAFF70BDC04673000F4092000F4093000F40E02E00007017000010B5064B1B78002B04D1FFF7C1FF0122024B1A70FFF784FF10BDC046D0010020024B1B6803
:400B8000012018407047C0460400044070B5154C2368DBB2144A13700F2083431900134D2B780F2213400B43E13293432A788243134323600E4A0F4B1A600F4A0F4B1A60D3
:400BC0000F490B688343062213430B600130FFF7B1FD0C491020FFF7C3FD03211020FFF7D1FD70BD00FF2840F401002062F1FF0F00020001080028400008A00104002840C1
:400C0000000402409512000010B500F093FC00F067FC0021002000F06FFC0021002000F095FCFF2000F04EFC402000F075FC044A136804490B4313601020FFF771FD10BD80
:400C40000400284000100880024B1878012318407047C046D40100204000024B181880887047C046D4010020F8B5104F3E5C381803795D005D19EDB29B00DCB200F0ADFC48
:400C8000B300FB189E6832680F21A1408A4311000422A2400A435C6A23680721A9408B432360326000F09DFCF8BDC046641E0000F8B5194A145C13181F79B900C9B27D008B
:400CC0007D19EDB2154B185CA300D3189E6833680F228A4093433360022800D10020012801D1002600E0062600F077FCA4000A4B1C19616A0B680722AA4093431A0033000B
:400D0000AB4013430B6000F06CFC216C0B680122BA4093430B60F8BD641E00000C02002010B5002403E02000FFF7C2FF0134012CF9D910BD044A11684002C023DB00184029
:400D4000084310607047C04604002840CA0807231940063B8B40825C134201D0012000E00020704710B504000134E4B2022C06D0210004480830FFF7E9FF0028F4D020002B
:400D800010BDC046E4000020F8B50400324B1B185C229B5C9B00314A9D5801003048FFF7D5FF304B9D4203D88540FF231B041D4300F0C0FB00F094FB2B4B185D013880B21D
:400DC000002100F099FB294B185D013880B2002100F0BCFBFF2000F075FB402000F09CFB1020FFF7A7FC80225202214B1A60204B1B681B0CFBD101221E4B1A601020FFF71A
:400E0000A3FC1020FFF78CFC1020FFF793FC1A4801681A4B19401A4B1B5D1A4A125D120413430B430360184F3E68184B1E40184B1E431020FFF774FC2000FFF715FF00F018
:400E4000CCFB04003E60002000F0BEFB084B1D60200000F0C6FBF8BD641E0000E4000020F8010020FFFFFEFF10020020000200200C002840140028400800284000FF80FF1E
:400E8000040200200802002004002840FF1FDFFF2000200010B5054B00221A70C2B21A7281221A70FFF770FF10BDC046D401002010B50C4C00232370FF332372207AC0B279
:400EC000FFF750FF2072237ADBB2012B08D8217801230B43DBB22370207AC0B2FFF754FF10BDC046D401002070B50500184B1C68A4B24300174AD3189C80174B1B185C2278
:400F00009B5C9B00154A9A58154B9A4208D801001448FFF71BFF6B000E4AD31804419C802800FFF7C5FE1020FFF704FC0E4A11680E4B0B40A02109020B4313600C4A11685E
:400F40000C4B0B4013601020FFF7EAFB70BDC0460C002840D4010020641E0000E4000020FFFFFEFFF801002004002840FF1FDFFF0800284000FF80FF10B5CC0807231940A9
:400F8000063B8B40DBB2002A04D0041922781343237003E0041922789A43227010BDC04670B50600002400250BE03000FFF772FFFFF74AFE0128FBD03000FFF74DFE241849
:400FC0000135002DF1D0A0B270BDC046014B19547047C0460C02002010B5002404E000212000FFF7F3FF0134012CF8D9FFF7CEFD0020FFF79FFEFFF793FE10BD10B50B4B98
:401000005B7A002B04D1FFF7E7FF0122074B5A72FFF7FAFD00F004FA0122044B9A72044A13688021C9030B43136010BDD40100200400284010B5084B1B5C4100074A8C5A39
:40104000074A8C5210180021017101720549C95CD318197310BDC046C01E0000D8010020E0010020F800002010B50400FFF712FFFFF7EAFD0028FBD12000FFF7DBFF10BD08
:4010800010B5002403E02000FFF7EEFF0134012CF9D910BDF0B54F4680B482B00400344B1B5C9946334B4A469B5C0193324A4500AE5AC1B2314800F057FB314BE95A8E42C8
:4010C00006D300222F4B1A55751AADB2012702E08D1BADB20027002F16D12B4B4A469B5C9D4211D9274B1B5D284A12191279934206D32000FFF79EFF0022224B1A551EE09B
:401100000133204A13551AE06B469B889D4206D91D4B4A469B5C9D4211D2002F0FD10B02174A9446101902791343F3185B1A190A62006646B15203710022124B1A556B4654
:401140009E88B5420CD9002F0AD0FF2D04D90C4B1C19FF23237207E0094B1C19257203E0074B1C190023237202B004BC9146F0BDC01E000014020020D8010020400200208A
:40118000E0010020180200201C020020F800002010B5040000F0CCF82000FFF77BFF10BD10B5002409E021000548FFF7CFFD002802D02000FFF7ECFF0134012CF3D910BDCC
:4011C000EC000020F0B5474680B40400224B1D5C224B5F5D224B5E5D224B5B5D9846010021481030FFF7B2FD002810D01E4B1B191B7ABE1BB34223DA1B4E300010300022F0
:401200002100FFF7B9FE751943462B7318E0164B1B191B7ABE19B3420EDB134B5D192B7B013BDBB22B73002B0AD1012221000E481030FFF7A1FE03E00B4B5D1943462B7328
:40124000210009481030FFF781FD002800D0012004BC9046F0BDC046C01E00002402002020020020F8000020E001002070B5084B1A1814791D5C651900262000FFF7A2FF5C
:40128000002800D001260134A542F6D8300070BDCC1E000010B51020FFF74CFA01221E4B1A601E4B1878C0B2FFF71EFE1C4B1B785BB2002B05DA1A4A137801218B431370B7
:4012C00026E0164C2078C0B2FFF74CFD20702378DBB2012B05D8114B1878C0B2FFF754FD16E00F4B1A7801218A431A701B785B060ED500220B4B1A7006E00B4AD15C0B4AE6
:40130000D1540133074A1370064B1B78002BF4D01020FFF705FA10BD14002840DC010020D4010020F1010020FC010020EC00002070B582B0154B1C5C154EC1B2154D009516
:4013400033002200144800F08DFA335D295D134A1155DB2B03D8DB08114A135514E0EC2B03D81B090E4A13550EE0F42B03D85B090B4A135508E0F92B03D89B09084A1355CD
:4013800002E00022064B1A5502B070BDC01E00002402002014020020400200201C02002020020020024A136840218B431360704704002840044A1168044B0B408021890037
:4013C0000B4313607047C04608002840FFFCFFFC70B5002308E00D49CA5C55080C4CE55401325208CA54013302789342F3D31020FFF7A0F9074A1168074B0B4007490B43B7
:4014000013601020FFF78CF970BDC046040200200802002008002840FFFCFFFC0002000170B5204B02221A705A709A702E32DA801D4A9A801D4A9A60FFF7B4FF002304E044
:4014400099001B481B4A88500133164A52789342F6D3002306E01021174AD1540C39174AD1540133012BF6D9FFF7A4FF144D0D4C2900200000F0D8F8200000F0E6F829000A
:40148000200000F0D1F8200000F000F92000FFF79FFF002403E02000FFF74AFF0134012CF9D970BD4002002098090000D41E00000000FF0FE4000020000200201002002074
:4014C0009A0D0000044B1B68002BFBDB0002034B1843014B186070470000014040000080034B1B68002BFBDB024A014B1A607047000001404000004010B5064A1368072434
:40150000234000021843CB00FF2119400143116010BDC04600030140044B1B68002BFBDB0002034B1843014B186070470000014041000080034B1B68002BFBDB024A014B76
:401540001A607047000001404100004010B5064A13680724234000021843CB00FF2119400143116010BDC0460403014004490A68D2B240239A43800118401043086070471B
:4015800000020440024B186880090123184070470402044004490A68D2B240239A43800118401043086070470003044004490A687F231A40C301D8B2104308607047C0467C
:4015C00000030440000000000230800803D00138FDD1C046C046C0467047EFF3108072B6704780F310887047F7B59C180023071C08268025019100922370237800982B4363
:401600002370BB689B6C9847019B984202D22378AB432370013E6D08002EEED12378F82B01D9F8232370F7BD70B5051C0E1C00242B789C4208D2AB68221C281C311C1B68B9
:40164000FFF7D2FF0134F3E770BD38B5051C00242B789C4219D2AA6813681B5DDB080F2B00D90F23D16BD268C95C1155AA68042B04D9936D906B211C012203E0936D906B44
:40168000211C002298470134E2E738BDF0B5041C002687B063789E4262D2A3685A6C925D0392002A01D1013203921A6C925D019201992278914251D29A689B69515C0F22B9
:4016C0001140B2000492002205910499019D5A50019B5B000293039B019A9B189D423DD2A768E388A0885843FB68595D00F060F93B68595D00F0D2F8059B5843194B4000BD
:401700005A2802D95B084008FAE7BA6904991B0C1B045350A36882085B6B01215855A368C008DB69029F5A550F22A36849421B6A5855A3685B6A5A55A368986AC1530021CC
:40174000D86AC153186B9B68C1535B19197801350A401A703B1C02330293BCE7013699E707B0F0BD0000FFFFF0B585684E002B6B925B9B191C8887B0141B0094AC6A1A8028
:40178000A45B6B6A0294EC6A5F5CA45B2B6A03946C6B7F00645C5B180494AC680193645C1B780594009CE40FA4460F24251C6744009C3D40AC46E51764196C409C4203D253
:4017C000012B05D0013B00E00133FF273F2B00D89F00019D2B7065460F2D29D0002D24D0BC4225D8059C029F24090094974200D9171C039D954200D2151C009A092A01D854
:40180000141C01343A1C0A2C14D1EA1B934206D9049A92089A42924152429B1A00E001338268D26953543A1C04E0151C644601E0151C00246746836824015B6A5F5483689E
:401840009F6ABA53DA6A9B6895530F225B181D782A401A7083689B6859180B781C430C7007B0F0BD70B58068446BC069655C405CFF213F2801D88100C9B246B2FF24002EEE
:4018800001DB4000C4B28D4201D9291C6C08012081439954049B9C5470BD0000002243088B4274D303098B425FD3030A8B4244D3030B8B4228D3030C8B420DD3FF2209026B
:4018C00012BA030C8B4202D31212090265D0030B8B4219D300E0090AC30B8B4201D3CB03C01A5241830B8B4201D38B03C01A5241430B8B4201D34B03C01A5241030B8B42F4
:4019000001D30B03C01A5241C30A8B4201D3CB02C01A5241830A8B4201D38B02C01A5241430A8B4201D34B02C01A5241030A8B4201D30B02C01A5241CDD2C3098B4201D3AC
:40194000CB01C01A524183098B4201D38B01C01A524143098B4201D34B01C01A524103098B4201D30B01C01A5241C3088B4201D3CB00C01A524183088B4201D38B00C01A07
:40198000524143088B4201D34B00C01A5241411A00D20146524110467047FFE701B5002000F0F0F802BDC0460029F7D076E7704703460B437FD4002243088B4274D3030908
:4019C0008B425FD3030A8B4244D3030B8B4228D3030C8B420DD3FF22090212BA030C8B4202D31212090265D0030B8B4219D300E0090AC30B8B4201D3CB03C01A5241830B66
:401A00008B4201D38B03C01A5241430B8B4201D34B03C01A5241030B8B4201D30B03C01A5241C30A8B4201D3CB02C01A5241830A8B4201D38B02C01A5241430A8B4201D378
:401A40004B02C01A5241030A8B4201D30B02C01A5241CDD2C3098B4201D3CB01C01A524183098B4201D38B01C01A524143098B4201D34B01C01A524103098B4201D30B01BA
:401A8000C01A5241C3088B4201D3CB00C01A524183088B4201D38B00C01A524143088B4201D34B00C01A5241411A00D201465241104670475DE0CA0F00D04942031000D3E2
:401AC0004042534000229C4603098B422DD3030A8B4212D3FC22890112BA030A8B420CD3890192118B4208D3890192118B4204D389013AD0921100E08909C3098B4201D34C
:401B0000CB01C01A524183098B4201D38B01C01A524143098B4201D34B01C01A524103098B4201D30B01C01A5241C3088B4201D3CB00C01A524183088B4201D38B00C01A45
:401B40005241D9D243088B4201D34B00C01A5241411A00D20146634652415B10104601D34042002B00D54942704763465B1000D3404201B5002000F005F802BD0029F8D09E
:401B800016E770477047C046014B18687047C046640100200E4B70B500251E000D4CE41AA410A54204D0AB00F35898470135F8E700F0C8F9084B00251E00084CE41AA410E8
:401BC000A54204D0AB00F35898470135F8E770BD501F0000501F0000501F0000581F000003008218934202D019700133FAE77047000000003F0006001B030F0326032D03E8
:401C00003D0307003F032F0337034F1239004F10390331033D02360340101E00B0053800B62036243F0033033F4433072D0363103E00B008360C802C803089080003004006
:401C40008008390000240F00810008004010400880047607002823127B0200003F003000060031001B0332000F033300260334002D0335003D033600070037003F03380049
:401C80002F033900370341004F124200390043004F10440039034500310346003D02470036034800401049001E004A00B0054B0038004C00B6204D0036244E003F004F009C
:401CC000330350003F445100330752002D035300631054003E005500B0085600360C5700802C58008030590089085A0000032D0000402E0080082F0039005B0000245C0019
:401D00000F005D0081005E0008005F0040103A0040083B0080043C0076073D0000283E0023123F007B02400000300F40000400400F400004830DB880BE40D804DF011F809C
:401D40004060410549FF4AFF4BFF4DA04F0450185A045F01604062C06440654066C068C06AC06CC06EC086068E0292019B01A60CAD01B004B101B202B401B608BE04C02085
:401D8000C105C5D1C720C823C9FFCAFFCBFFCDAFCE0FCF04D018D280D405D804D904DA04DB04DF01E040E2C0E440E540E6C0E8C0EAC0ECC0EEC00004020209021020180449
:401DC00019481B122380294030204004482049014A024E024F20520259095B8071028F02AB80AF80C005C208C404CA08CC04D004D238D60BE6405010D4203B023F028C10BD
:401E000093029420A301AB01AF01CEC0EE3001011001000001000F4004300F4001310F403B320F4020330F4002400F400A410F4002600F40030405060708090A0B0C0E0FA4
:401E4000101112131415161718191B1C1D1E1F2021222325262728292A2B2E2F3031323334350000020200000105000000000240000102400002024000030240000402407C
:401E80000005024000060240080004400801044008020440080304400804044008050440080604400000044000010440000204400003044000040440000504400006044079
:401EC00000010000020000002000000001010000000100000402002008020020000100200002002010020020C01E0000E400002034020020280200202C0200203C020020C9
:401F000030020020380200204C020020F8010020301F0000D01E0000CC1E0000A10F0000890D0000590C00004D0D0000790F000004040408080808101010101010101010FE
:401F400043000000F8B5C046F8BC08BC9E467047950200003D050000F8B5C046F8BC08BC9E4670476D020000781F0000C0000020A8000000E800000000000000C80000007B
:401F8000010000000000C05D80BB000030000000006CDC02F0000000040404000000FF0F0000FF0F030000000802044008020440050500001E1E000002020000000000004D
:401FC00000000000000000000000000000000000000000000000000000000000401F0000000000000000000000000000000000000000000000000000000000000000000082
:40200000000000000000000000000000000000000000000000000000000000000401002000000000000000000000000000000000000000000000000000000000000000007B
:402040000000000000000000000000000000000000000000000000000000000000000000000000000000000000000000000000000000000000000000000000000000000060
:402080000000000000000000000000000000000000000000000000000000000000000000000000000000000000000000000000000000000000000000000000000000000020
:4020C00000000000000000000000000000000000000000000000000000000000000000000000000000000000000000000000000000000000000000000000000000000000E0
:40210000000000000000000000000000000000000000000000000000000000000000000000000000000000000000000000000000000000000000000000000000000000009F
:020000040001F9
:0200000490303A
:02000000E5B960
:0200000490402A
:4000000000000000000000000000000000000000000000000000000000000000000000000000000000000000000000000000000000000000000000000000000000000000C0
:400040000000000000000000000000000000000000000000000000000000000000000000000000000000000000000000000000000000000000000000000000000000000080
:0200000490501A
:0C00000000020E34119E00010E3DF75767
:0200000490600A
:0100000001FE
:00000001FF