:400000000010002011000000D1040000D104000080B500AF00F066FA80B500AF154B154A12688021C9020A431A60182000F00CFE104B104A126810490A401A600F4B104A1F
:400040001A60104B20221A600F4B10221A600F4B822212061A60074B00221A600C4B0D4A1A600D4B0D4A1A600D4B00221A60C046BD4680BD00010B40FFFFFBFF04010B404C
:4000800006000080080202401C02024008010B40000002401300008040000240380100800C020B4080B582B000AF72B6FB1D00221A7022E0FB1D1A7813005B009B185B0027
:4000C0002E4A9B183B603B681A78597809020A43997809040A43DB781B06134318003B681A795B791B0213439BB2190000F0D6F9FB1D1A78FB1D01321A70FB1D1B78012B97
:40010000D8D91F4BEE2212021A601E4B90221A601D4B992212041A601C4B992212041A601B4B992212041A601A4A1A4B1B78DBB206210B43DBB21370174B40221A60174B4D
:40014000802252031A60164B08221A60154B08221A60154BD82212011A60144B02221A60134B30221A60134B02221A60FFF754FF00F0A4F9C046BD4602B080BD2C160000EB
:400180000C0001401000014010500F4020500F4030500F4000700F40000104400801044000020440180204400803044000040440080404401804044010B5064C2378002B4B
:4001C00007D1054B002B02D0044800E000BF0123237010BD480100200000000010160000084B10B5002B03D00749084800E000BF07480368002B00D110BD064B002BFBD0BD
:400200009847F9E7000000004C01002010160000C80000200000000090B587B000AF1523FB1800221A701623FB1800221A8000F019FA00F0F1FA354B180000F0A3FC62B63D
:4002400000F0FAFB324B3B61386901F047F9031C3049181C01F00CF8031C181C01F01CF903003B613B691900002000F015FCC046294B1B78DBB2002BFAD0002000F0EAFB93
:4002800003001A003B1D1A80244B1B68002B03D0002000F0A5F902E0012000F0A1F91523FB1818781523FB181A783B1D5200D35E0E22BC18190000F005FC03002380162384
:4002C000FA180E23FB180021525E00215B5E9A4204D1134B1B78DBB2002B13D00E23FB1800229A5E1523FB181B781100180000F019F81623FB180E22BA1812881A80084B85
:4003000000221A70044B00221A70B0E74D040000204E00005D74214168010020640100206901002080B582B000AF0200FB1D1A703B1D0A1C1A800C2000F0B4F93F4B1800B8
:4003400000F03CFAFB1D1A78FB1D01321A70FB1DFA1D127830321A70FB1D1B78180000F0A1F9374B180000F029FA3B1D00229B5E002B09DA334B180000F020FA3B1D1B881D
:400380005B429AB23B1D1A803B1D00229A5EFA239900100000F0F6FD03003033180000F081F93B1D00229A5EFA239900100000F06FFE0B001A003B1D1A803B1D00229B5E40
:4003C0006421180000F0DEFD03003033180000F069F93B1D00229B5E6421180000F058FE0B001A003B1D1A803B1D00229B5E0A21180000F0C7FD03003033180000F052F935
:400400003B1D00229B5E0A21180000F041FE0B001A003B1D1A803B1D00229B5E3033180000F040F9084B180000F0C8F9002000F0E1F9C046BD4602B080BDC046141600007B
:4004400020160000241600002816000080B582B000AF0C4B1B687B607B68012213400AD0094B1A68094B1A60094A084B1B681360084B01221A70084B7A681A60C046BD46D8
:4004800002B080BD1C021A403C021A406401002030021A406801002010021A4080B582B000AF786039603A687B680021180001F0A7F8C046BD4602B080BDC04680B500AF80
:4004C000024B08221A60C046BD4680BD00031A4080B500AF01F068F803001B680C2B00D1FEE7FEE780B586B000AF224B7B61224B3B61204B7B6135E03B691B68FB603B69ED
:400500005B68BB603B699B683B6000237B600CE0FB681A68BB681A60BB680433BB60FB680433FB607B6804337B607A683B689A42EED13B69DB683B6000237B6008E0BB6825
:4005400000221A60BB680433BB607B6804337B607A683B689A42F2D13B6910333B617B69013B7B617B69002BC6D101F023F8FFF753FEFEE701000000D016000080B582B0A6
:4005800000AF00237B600FE07B68032B04D8104B7A689200D35800E00E4B0F4A796889008B507B6801337B607B682F2BECD9FFF779FD0A4B00221A608023DB058022D20594
:4005C000126801210A431A60C046BD4602B080BD00000000D104000000000020C000002080B584B000AF0200FB1D1A700F4B1B68DAB20F23FB1840218A431A70FB1D1B78FE
:400600009B01DBB240221340D9B20F23FB180F22BA1812780A431A70044B0F22BA1812781A60C046BD4604B080BDC0460001044080B500AF00F04CF8C046BD4680BDC046A9
:4006400080B500AF064B064A1268802109060A431A6000F019F800F01DF8C046BD4680BD0000064080B500AF064B1B78002B04D1FFF7DEFF034B01221A70FFF7E1FFC04600
:40068000BD4680BD6A01002080B500AFC046BD4680BDC04680B500AF00F078F8C046BD4680BDC04680B582B000AF7860C046064B1B680F221340082BF9D0044B7A681A60BC
:4006C000C046BD4602B080BD080206404002064080B500AF1A4B1B4A1A601B4B00221A601A4B1B4A1A601B4B07221A601A4B07221A601A4B00221A60194B01221A60194B45
:40070000194A1A60194B00221A60194B00221A60184B00221A60184B00221A60174B00221A60174B00221A60164B00221A60154B1B689AB2144B1A80C046BD4680BDC04671
:400740000000064007000002400006404800064001000A0000030640040306401003064044000640000206400700008004020640880E0640C80E0640480F0640080F064085
:40078000C80F0640880F06406C01002080B500AF074B074A1268F0218A4390210A431A60044B054A12881A60C046BD4680BDC04610000140880F06406C01002080B584B039
:4007C00000AF78600023FB6009E07A68FB68D3181B781800FFF766FFFB680133FB607A68FB68D3181B78002BEFD1C046BD4604B080BDC04680B582B000AF78607B6818004C
:40080000FFF750FF0D20FFF74DFF0A20FFF74AFFC046BD4602B080BD80B500AF064B1B78002B04D100F00AF8034B01221A7000F0EDF8C046BD4680BD6E01002080B584B0DB
:4008400000AF03210E2000F017FB554B19000E2000F0ECFA534B01221A60534B1B68002B01DA524900E05249524B524A12680A431A60514B514A1A60514B524A1A60524BC6
:40088000C02212061A60514B514A1A60514B504A1A60514B504A1268802149020A431A604E4B00221A604E4B00221A604D4B01221A604D4B02221A604C4B1B687B607B6853
:4008C0004B4A13407B607B68012213437B60474B7A681A600023FB605BE0464ADC239B0113407B60FB689B00434A944663447A681A60404A012313400AD0384B374A11683E
:400900000120FA68904002001204120C0A431A60384A022313400AD0314B314A11680120FA68904002001204120C0A431A60314A80239B00134003D080235B00BB6002E0F9
:4009400080235B01BB602B4A80235B00134005D12A4BFA6852000021D15204E0274BFA6852000021D152BB68254A53438022D20094466344002B02DA224A94466344DB1208
:400980001BB21900204BFA689200D150FB680133FB60FB68002BA0D0C046BD4604B080BD650B000020001A4080031A40400210534002005300001A4004001A40FC000080B2
:4009C00018001A40F401DB051C001A4010001A400200020014001A4000031A4028021A4038021A4018021A40000F1A4030001A40FFFFFFDF0204000080001A407401002031
:400A000010270000FF0700007001002080B500AF084B1B68002B09DB064B064A1268802109060A431A600A2000F086FAC046BD4680BDC04600001A4080B500AF044B044ACC
:400A40001268802149020A431A60C046BD4680BD04001A4080B584B000AF78607B68002B02D0002000F05CFA7B68002B09D17B689B00084A944663441B681B041B0CFB6012
:400A800001E00023FB60FB681BB21800BD4604B080BDC04680011A4080B582B000AF786039607B68002B02D0002000F039FA044B7A6892003968D150C046BD4602B080BD93
:400AC0007001002080B584B000AF78600A00BB1C1A807B68002B02D0002000F021FA1E4B7A685200D35A19B2BB1C1A888BB2D31A9AB2BB1C1A80BB1C00229B5E174A5A430A
:400B0000BB1C00215B5E002B08DD154B79688900CB58002B00DA01335B1008E0104B79688900CB58002B00DA01335B105B42D0180B4B7A689200D358190000F0ADFA0300C2
:400B40001A000E23FB181A800E23FB1800229B5E1800BD4604B080BD74010020102700007001002080B582B000AF054B1B687B60034B7A681A60C046BD4602B080BDC04649
:400B800010021A4080B582B000AF786000F050F87B68180000F00AF8032000F015F800F03BF8C046BD4602B080BDC04680B582B000AF7860034B7A689A67C046BD4602B09B
:400BC00080BDC0460000002090B585B000AF0200FB1D1A701623FB600B23FC1800F0CAF9030023700A4B0A4A12680A491140FA1D1078FA68904002000A431A600B23FB1804
:400C00001B78180000F0BAF9C046BD4605B090BD0CE400E0FFFF3FFF80B500AF034B8022D2011A60C046BD4680BDC04600E100E080B500AF034B8022D2011A60C046BD46F7
:400C400080BDC04680E100E090B585B000AF78600C23FC1800F08EF9030023707B68022B00D8AFE07B68302B00D9ABE05C4B1B78DBB21A007B689A420AD35A4A0F23FB1820
:400C800012781A70584A0E23FB1812781A703FE0564B1B78DBB21A007B689A420AD3544A0F23FB1812781A70524A0E23FB1812781A702DE0504B1B78DBB21A007B689A4204
:400CC0000AD34E4A0F23FB1812781A704C4A0E23FB1812781A701BE04A4B1B78DBB21A007B689A420AD3484A0F23FB1812781A70464A0E23FB1812781A7009E0444A0F2356
:400D0000FB1812781A70434A0E23FB1812781A707B68DA1E0B23FB183F498A5C1A700B23FB181B782F2B0DD97B682A2B0AD93B4B19221A60052000F013F90D23FB1819228A
:400D40001A7007E0354B1B68DAB20D23FB183F210A401A700B23FA180D23FB1812781B789A4208D22D4B7A68033A2B498A5C1A60052000F0F5F82A4B7A6826498C466244FB
:400D80001278D2B21A60274B0F22BA1812781A60254B0E22BA1812781A60052000F0CCF80B23FA180D23FB1812781B789A420CD91A4B7A68033A18498A5C1A60052000F028
:400DC000CFF802E0002000F0ABF80C23FB181B78180000F0D3F8C046BD4605B090BDC046C0F1FF0FC1F1FF0FC2F1FF0FC3F1FF0FC4F1FF0FC5F1FF0FC6F1FF0FC7F1FF0FCA
:400E0000C8F1FF0FC9F1FF0FCAF1FF0FCBF1FF0FCCF1FF0FCDF1FF0F381600002CFF0B4028FF0B401CFF0B4020FF0B4080B584B000AF02003960FB1D1A7080239B05FB6000
:400E4000FB1D1B781F2B02D9002000F069F8FB1D1B7810339B00FA68D3181B68BB60FB1D1B7810339B00FA68D3183A681A60BB681800BD4604B080BD90B587B000AF02006F
:400E8000FB1D1A70BB1D0A1C1A70BB1D1B78032B02D9002000F044F8FB1D1B781F2B02D9002000F03DF8FB1D1B7803221340DB0006337B611323FC1800F05CF803002370FC
:400EC000FB1D1B789B08DBB29B00144A944663441B68FB6003227B699A401300DA43FB681340FB60BB1D1A787B699A401300FA681343FB60FB1D1B789B08DBB29B00074A86
:400F000094466344FA681A601323FB181B78180000F034F8C046BD4607B090BD00E400E080B582B000AF0200FB1D1A7001BEC046BD4602B080BDC04680B582B000AF0200E4
:400F4000BB1D1A80BB1D1B88044A12785343180000F006F8C046BD4602B080BDD40000200230800804D0C0460138FDD1C046C046C0467047EFF3108072B6704780F3108864
:400F80007047C046002243088B4274D303098B425FD3030A8B4244D3030B8B4228D3030C8B420DD3FF22090212BA030C8B4202D31212090265D0030B8B4219D300E0090A9E
:400FC000C30B8B4201D3CB03C01A5241830B8B4201D38B03C01A5241430B8B4201D34B03C01A5241030B8B4201D30B03C01A5241C30A8B4201D3CB02C01A5241830A8B4247
:4010000001D38B02C01A5241430A8B4201D34B02C01A5241030A8B4201D30B02C01A5241CDD2C3098B4201D3CB01C01A524183098B4201D38B01C01A524143098B4201D3BA
:401040004B01C01A524103098B4201D30B01C01A5241C3088B4201D3CB00C01A524183088B4201D38B00C01A524143088B4201D34B00C01A5241411A00D2014652411046C8
:401080007047FFE701B5002000F0F0F802BDC0460029F7D076E7704703460B437FD4002243088B4274D303098B425FD3030A8B4244D3030B8B4228D3030C8B420DD3FF2202
:4010C000090212BA030C8B4202D31212090265D0030B8B4219D300E0090AC30B8B4201D3CB03C01A5241830B8B4201D38B03C01A5241430B8B4201D34B03C01A5241030BBE
:401100008B4201D30B03C01A5241C30A8B4201D3CB02C01A5241830A8B4201D38B02C01A5241430A8B4201D34B02C01A5241030A8B4201D30B02C01A5241CDD2C3098B42BB
:4011400001D3CB01C01A524183098B4201D38B01C01A524143098B4201D34B01C01A524103098B4201D30B01C01A5241C3088B4201D3CB00C01A524183088B4201D38B0015
:40118000C01A524143088B4201D34B00C01A5241411A00D201465241104670475DE0CA0F00D04942031000D34042534000229C4603098B422DD3030A8B4212D3FC2289015A
:4011C00012BA030A8B420CD3890192118B4208D3890192118B4204D389013AD0921100E08909C3098B4201D3CB01C01A524183098B4201D38B01C01A524143098B4201D362
:401200004B01C01A524103098B4201D30B01C01A5241C3088B4201D3CB00C01A524183088B4201D38B00C01A5241D9D243088B4201D34B00C01A5241411A00D2014663469B
:4012400052415B10104601D34042002B00D54942704763465B1000D3404201B5002000F005F802BD0029F8D016E770477047C046F0B557464E4645464300E0B446028846E7
:40128000760A1F0EC40F002F47D0FF2F25D0002380259A469946F600ED042E437F3F434642465D02D20F5B006D0A1B0E904640D0FF2B39D080220020ED00D20415437F3BAC
:4012C000FB1842465746591C62408C4607430F2F5CD86F49BF00C9598F46002E45D108239A46063B9946DAE7424602282DD0032800D1C3E0012800D0A2E00025002602401D
:40130000D4B27602ED05760A2E43E407264330001CBC90469946A246F0BD002E1AD104239A46033B9946BAE72A00511E8A41901CC6E70120002DC3D0280000F017F9431F20
:4013400076309D4043420020BAE70124FF2514400026D6E7300000F009F9431F9E400023763047429A46994699E70C239A46093B994694E780260024F603FF25C1E73500C0
:401380004846B2E7350022004846AEE72904090C0800370C3604360C2C0C7943704367437443060C64183619B14203D980214902884647440004000C310409188D01681E10
:4013C0008541890E2943350CED19AD010D43290104D5012369081D4063460D4319007F31002925DD680704D00F202840042800D00435280103D5274980330D401900FE293D
:40140000A3DC0124AD016E0A1440CDB279E78020C003064207D0054205D128434602760A4446FF256DE706437602760AFF2568E70124611A1B2905DD14400025002660E77B
:401440006346CBE72E002023CE40591A8D406B1E9D412E43730704D00F233340042B00D00436730104D5012401251440002648E70124B601760A1440002542E78026012444
:40148000F6032E437602760A1440FF2539E7C04668160000FFFFFFF74302590A4300C20F1B0E00207E2B0EDD9D2B0DDC802000040143952B0BDC9620C31AD9400B00584290
:4014C000002A00D118007047034BD018FBE7963B99400B00F3E7C046FFFFFF7F70B5002830D0C317C5185D40C40F280000F03EF89E231B1A962B0DDC9622D21A95406A02B2
:40150000520AD8B25202C005520AE40702432243100070BD992B19DC9922D21A9540124A2A40690704D00F210D40042D00D00432510103D50C4B1A409F231B1A9201520ACA
:40154000D8B2DFE7002400200022DBE705222E00121AB921D6402A00C91A8A40551EAA4135001543DBE7C046FFFFFFFB1C2101231B04984201D3000C10391B0A984201D3AA
:40158000000A08391B09984201D30009043902A2105C40187047C04604030202010101010000000000000000014B18687047C046400100200E4B70B500251E000D4CE41A92
:4015C000A410A54204D0AB00F35898470135F8E700F06CF8084B00251E00084CE41AA410A54204D0AB00F35898470135F8E770BDB8160000B8160000B8160000C016000090
:4016000003008218934202D019700133FAE77047000000004368616E6E656C2000000000203D20002D000000206D560000300F40000400400F400004030405060708090A61
:401640000B0C0E0F101112131415161718191B1C1D1E1F2021222325262728292A2B2E2F30313233343500008C130000EA120000EA120000E81200007E1300007E130000FB
:4016800074130000E81200007E130000741300007E130000E81200008413000084130000841300000E14000043000000F8B5C046F8BC08BC9E467047E10100007D050000B2
:4016C000F8B5C046F8BC08BC9E467047B9010000E0160000C800002080000000300000000000000000366E01C05D0000180000000000E02E010000000000000000000000F3
:40170000000000000000000000000000000000000000000000000000A8160000000000000000000000000000000000000000000000000000000000000000000000000000EB
:40174000000000000000000000000000000000000000000000000000E000002000000000000000000000000000000000000000000000000000000000000000000000000069
:401780000000000000000000000000000000000000000000000000000000000000000000000000000000000000000000000000000000000000000000000000000000000029
:4017C00000000000000000000000000000000000000000000000000000000000000000000000000000000000000000000000000000000000000000000000000000000000E9
:4018000000000000000000000000000000000000000000000000000000000000000000000000000000000000000000000000000000000000000000000000000000000000A8
:401840000000000000000000000000000000000000000000000000000000000000000000000000000000000000000000000000000000000000000000000000000000000068
:0200000490303A
:02000000695D38
:0200000490402A
:200000000000000000000000000000000000000000000000000000000000000000000000E0
:0200000490501A
:0C000000000204C81193110104CF7AF033
:0200000490600A
:0100000001FE
:00000001FF