:400000000010002011000000E5030000E503000010B500F007FAC04670B5204C23688022D20213432360182001F05AF922681C4B134023601B4A1C4B1A6030221B4B1A60CD
:40004000103A1B4B1A60103A1A4B1A6001321A4B1A602032194B1A6080221206184B1A6000252560174A184B1A60184A184B1A60184A194B1A60194A194B1A60194A1A4BE4
:400080001A601A4A1A4B1A601A49092001F0E6F8092001F0CDF8184B1D6070BD00010B40FFFFFBFF0600008004010B400C0202401402024018020240340202403C02024026
:4000C00008010B40FE00008000000240FE0000C0400002401000008080000240BF12008004000240F301008044000240DF0100C084000240F11400000C020B4010B572B618
:4001000000240FE02C486200131959000B00411889881A5AC31858880004104300F036F90134E4B2012CEDD923490C312348603000F012F9224A234B1A60EE221202224BF5
:400140001A6099231B04214A13608021C903204A1160204A1360204A1360802292051F4B1A601F490B783C22934314221343DBB20B701C4A117816230B43DBB213702822AA
:40018000194B1A60C7229202184B1A602022184B1A603E23174A1360174A1360D8221201164B1A600423164A1360164A1360FFF733FF00F011F910BD802400000026000071
:4001C00000309900000001400C00014000500F4008500F4010500F4030500F4038500F4001700F4000700F40000004400800044018000440000104401801044008030440B1
:40020000000404401804044010B5064C2378002B07D1054B002B02D0044800E000BF0123237010BD880100200000000064240000084B10B5002B03D00749084800E000BF1F
:4002400007480368002B00D110BD064B002BFBD09847F9E7000000008C01002064240000C00000200000000010B58EB062B61422002109A801F0BFFC1422002104A801F01D
:40028000BAFC00F083FA00F0E9F900F073F900F059FA00F015FD00F059FD00F06BFC00F055FB0028FBD1053000F0AEFD0990012000F0AAFD0A90022000F0A6FD0B900320A9
:4002C00000F0A2FD0C90042000F09EFD0D90142204A909A801F080FC00282AD134E0A30009AA9B58012B22D122001A4901A801F08BFC01A800F0BEFA002C03D1032001F0DC
:4003000049F914E0012C03D1022001F043F90EE0022C03D1012001F03DF908E0032C03D1002001F037F902E0032001F033F9013400E00024042CD2DD04A909A80B0002002E
:4003400013CA13C303CA03C300F010FE00F012FCA5E7C04668240000F0B50025002711E0BB00C658F3B2FF22964308E06A008A181478A419527822700135013BDBB2002B00
:40038000F4D10137092FEBD9F0BDC04610B50A00002101F030FC10BD0C4B1B68002803D080221206134301E05B005B08074A1360074B1B68002803D080229204134301E030
:4003C000044A1340024A13607047C04680031A4008010B40FFFFFFFD10B50120FFF7DCFF10BDC04610B501F0CBFB03680C2B00D1FEE7FEE710B50300084A1068C318084AB3
:400400009A1A802A02DC054A136005E001F0B8FB0C2303600120404210BDC046C4000020D002002070B50F4E0F4D13E029686B68AC68002202E001C901C30432A242FAD197
:40044000E868002202E0002102C304328242FAD11035013E002EE9D101F098FBFFF704FFFEE7C04601000000F427000010B500230AE0032B03D89A000949505800E00948ED
:400480009900094A885001332F2BF2D9FFF736FE8022D205116801230B43136010BDC04600000000E503000000000020034A117880235B420B43DBB21370704772000F4057
:4004C000014B18707047C04602000F40014B18707047C04642000F40014B18707047C04622000F40014B18707047C04682000F40014B1878C0B2704762000F40014B187802
:40050000C0B2704752000F4010B501E0FFF7F6FFFFF7EEFFC306F9D410BDC04610B513490B783F22934309221343DBB20B70104C227801231343DBB22370C620FFF7C0FF85
:40054000C620FFF7C3FF6320FFF7C6FF0020FFF7C9FF01F02FF8227810231343DBB2237001F02CF8FFF7D0FF10BDC04672000F4092000F4010B5064B1B78002B04D1FFF778
:40058000CDFF0122024B1A70FFF790FF10BDC046A4010020034A117880235B420B43DBB21370704773000F40014B18707047C04603000F40014B18707047C04643000F4065
:4005C000014B18707047C04623000F40014B18707047C04683000F40014B1878C0B2704763000F40014B1878C0B2704753000F4010B501E0FFF7F6FFFFF7EEFFC306F9D42D
:4006000010BDC04610B513490B783F22934309221343DBB20B70104C227801231343DBB22370C820FFF7C0FFC820FFF7C3FF6420FFF7C6FF0020FFF7C9FF00F0BBFF227855
:4006400010231343DBB2237000F0B8FFFFF7D0FF10BDC04673000F4093000F4010B5064B1B78002B04D1FFF7CDFF0122024B1A70FFF790FF10BDC046A5010020034A117895
:4006800080235B420B43DBB21370704770000F40014B18707047C04601000F40014B18707047C04641000F40014B18707047C04621000F40014B18707047C04681000F40C2
:4006C000014B1878C0B2704761000F40014B1878C0B2704751000F4010B501E0FFF7F6FFFFF7EEFFC306F9D410BDC04610B513490B783F22934309221343DBB20B70104C03
:40070000227801231343DBB223703220FFF7C0FF3220FFF7C3FF1920FFF7C6FF0020FFF7C9FF00F047FF227810231343DBB2237000F044FFFFF7D0FF10BDC04670000F409F
:4007400091000F4010B5064B1B78002B04D1FFF7CDFF0122024B1A70FFF790FF10BDC046A601002010B500F06FF810BD10B500F01DF810BD10B5044A1368802109060B4309
:400780001360FFF7EFFF10BD0000074010B5064B1B78002B04D1FFF7E9FF0122024B1A70FFF7E8FF10BDC046A8010020134A144B1A600023134A13601349144A1160144A22
:4007C00014490A6007201449086014490B6006381349086013490A60134A1360134A1360134A1360134A1360134A1360134A1360134A13601268134B1A8070470B000002D0
:40080000000007404000074001000A004800074007000080000307400403074010030740440007400002074004020740880E0740C80E0740480F0740080F0740C80F0740A2
:40084000880F0740AA010020064A1168064B0B40902109040B431360044B1A88044B1A607047C04600000140FFFF0FFFAA010020880F074070B50500002402E000F0A2FEBE
:400880000134285D0028F9D170BDC04670B516480368DBB2154A13700F24A3431900144D2B780F2213400B43E13293432A78A243134303600F4A104B1A60104A104B1A606E
:4008C000104A1168104B0B40C021C9000B4313600F2000F0B7FC0D490F2000F0BFFC03210F2000F0CDFC70BD00FF08401002002062F1FF0F00020001080008400008A00103
:400900000400084010000140FFF0FFFF910F000010B500F07BFC00F05DFC0021002000F061FC0021002000F079FC00F065FC00F047FC044A136804490B4313600F2000F06A
:4009400077FC10BD0400084000100880024B1878012318407047C046AC0100204000024B181880887047C046AC010020F8B5104F3E5C3818037A5D005D19EDB29B00DCB213
:4009800000F018FEB300FB181E6932680F21A1408A4311000422A2400A435C6A23680721A9408B432360326000F008FEF8BDC04688260000F8B5194A145C13181F7AB90065
:4009C000C9B27D007D19EDB2154B185CA300D3181E6933680F228A4093433360022800D10020012801D1002600E0062600F0E2FDA4000A4B1C19616A0B680722AA40934376
:400A00001A003300AB4013430B6000F0D7FDA16B0B680122BA4093430B60F8BD882600003402002010B5002403E02000FFF7C2FF0134042CF9D910BD044A11684002C023D0
:400A4000DB001840084310607047C04604000840CA0807231940063B8B40825C134201D0012000E00020704710B504000134E4B2052C06D0210004481430FFF7E9FF0028F0
:400A8000F4D0200010BDC046C8000020F8B50400234B1B184C229B5C9B00224A9E5801002148FFF7D5FF214B9E4203D88640FF231B041E431E4B185D013880B2002100F0C6
:400AC00091FB1C4B185D013880B2002100F0A6FB0F2000F0B7FB18480168184B1940184B1B5D184A125D120413430B430360164F3D68164B1D40164B1D430F2000F098FB17
:400B00002000FFF733FF00F055FD04003D60002000F046FD0F4B1E60200000F04FFDF8BD88260000C800002014020020FFFFFEFF3C0200201C0200200800084000FF80FF1D
:400B4000240200202C02002004000840FF1FDFFF200020000C00084010B5054B00221A70C2B29A7381221A70FFF790FF10BDC046AC01002010B50C4C00232370FF33A37356
:400B8000A07BC0B2FFF770FFA073A37BDBB2042B08D8217801230B43DBB22370A07BC0B2FFF774FF10BDC046AC01002070B50500184B1C68A4B24300174AD3189C80174B41
:400BC0001B184C229B5C9B00154A9A58154B9A4208D801001448FFF73BFF6B000E4AD31804419C802800FFF7E5FE0F2000F02AFB0E4A11680E4B0B40A02109020B43136072
:400C00000C4A11680C4B0B4013600F2000F010FB70BDC0460C000840AC01002088260000C8000020FFFFFEFF1402002004000840FF1FDFFF0800084000FF80FF10B5CC08DC
:400C400007231940063B8B40DBB2002A04D0041922781343237003E0041922789A43227010BDC04670B50600002400250BE03000FFF772FFFFF76AFE0128FBD03000FFF770
:400C80006DFE24180135002DF1D0A0B270BDC046014B19547047C0463402002010B5002404E000212000FFF7F3FF0134042CF8D9FFF7ECFD0020FFF7BFFEFFF7B3FE10BDC6
:400CC00010B50B4BDB7B002B04D1FFF7E7FF0122074BDA73FFF71CFE00F020FA0122044B1A74044A13688021C9030B43136010BDAC0100200400084030B5094B1B5C4200FC
:400D00000849545A0849545208180025057305750648C05CCB181877054BD45230BDC046D4260000B0010020C0010020F40000205C02002010B50400FFF70EFFFFF706FE3D
:400D40000028FBD12000FFF7D7FF10BD10B5002403E02000FFF7EEFF0134042CF9D910BDF0B5474680B40400224B1D5C224B5F5D224B5E5D224B5B5D984601002148243091
:400D8000FFF766FE002810D01E4B1B191B7DBE1BB34223DA1B4E3000243000222100FFF74DFF751943462B7718E0164B1B191B7DBE19B3420EDB134B5D192B7F013BDBB285
:400DC0002B77002B0AD1012221000E482430FFF735FF03E00B4B5D1943462B77210009482430FFF735FE002800D0012004BC9046F0BDC046D42600007002002068020020F2
:400E0000F4000020C001002070B5084B1C5C1818057A651900262000FFF7A2FF002800D001260134A542F6D8300070BDF0260000401849004018800880B27047F0B54746AB
:400E400080B482B004003C4B1E5C3C4B9B5D019342003B4BD75A3B4B5B7B002B08D03A4D9046515B3800FFF7E3FF070043465853E1B2334A354800F073FC6300344A9A5A87
:400E8000974207D30021334B1955BD1AADB20123984603E0D51BADB2002398464346002B15D12D4B9B5D9D4211D92A4B1B5D254A1219127A934206D32000FFF71DFF00221F
:400EC000244B1A551EE00133224A13551AE06B469B889D4206D9204B9B5D9D4212D24346002B0FD113029C46194801190B7B66463343FF18BF1A3A0A6300C2520F7300225F
:400F0000144B1A556B469E88B5420DD94346002B0AD0FF2D04D90E4B1C19FF23237507E00B4B1C19257503E0094B1C190023237502B004BC9046F0BDD426000044020020C8
:400F4000B0010020F40000205C020020B4020020C00100204C0200205402002010B5040000F064F82000FFF769FF10BD10B5002409E021000548FFF76BFD002802D020005B
:400F8000FFF7ECFF0134042CF3D910BDDC00002010B50F2000F056F901221E4B1A601E4B1878C0B2FFF702FE1C4B1B785BB2002B05DA1A4A137801218B43137026E0164CE1
:400FC0002078C0B2FFF750FD20702378DBB2042B05D8114B1878C0B2FFF758FD16E00F4B1A7801218A431A701B785B060ED500220B4B1A7006E00B4AD15C0B4AD1540133ED
:40100000074A1370064B1B78002BF4D00F2000F00FF910BD14000840BA010020AC010020E501002018020020DC00002070B582B0154B1C5C154EC1B2154D00953300220084
:40104000144800F00BFC335D295D134A1155DB2B03D8DB08114A135514E0EC2B03D81B090E4A13550EE0F42B03D85B090B4A135508E0F92B03D89B09084A135502E00022A1
:40108000064B1A5502B070BDD42600007002002044020020B40200205402002068020020024A136840218B431360704704000840044A1168044B0B40802189000B43136011
:4010C0007047C04608000840FFFCFFFC70B5002208E00D498B5C5D080C4CA55401335B088B54013203789A42F3D30F2000F0AAF8074A1168074B0B4007490B4313600F209D
:4011000000F096F870BDC046240200202C02002008000840FFFCFFFC0002000170B5204B05221A705A709A701332DA801D4A9A801D4A9A60FFF7B4FF002304E099001B48DF
:401140001B4A88500133164A52789342F6D3002306E00421174AD1540239174AD1540133042BF6D9FFF7A4FF144D0D4C2900200000F056FA200000F064FA2900200000F00C
:401180004FFA200000F07EFA2000FFF79FFF002403E02000FFF74AFF0134042CF9D970BDB4020020CC040000002700000000FF0FC80000201C0200203C0200209A0D0000DA
:4011C000034A1368802109060B4313607047C04600000240024A13685B005B081360704700000240034A13681B0C1B04034313607047C04600000240034A13688021090688
:401200000B4313607047C04640000240024A13685B005B081360704740000240034A13681B0C1B04034313607047C046400002401F2318401E3B8340014A13607047C04646
:4012400000E100E01F2318401E3B8340014A13607047C04680E100E001BE704770B504000D001F2802D90020FFF7F6FF1034A40080239B059C4664442068256070BDC0466D
:4012800070B504000E00032902D90020FFF7E4FF1F2C02D90020FFF7DFFF03252540ED00063500F087F9A408A400074B9C46644421680323AB4099430B003100A940194395
:4012C000216000F07BF970BD00E400E010B5034B1B7B584300F064F910BDC0460C010020F0B557464E46C0B483B0040000F062F90190E71E2D2F74D83F4B1B78DBB29C42F5
:4013000008D83E4B1B78DBB29A463D4B1B78DBB2994631E03B4B1B78DBB29C4208D83A4B1B78DBB29A46394B1B78DBB2994623E0374B1B78DBB29C4208D8364B1B78DBB23C
:401340009A46354B1B78DBB2994615E0334B1B78DBB29C4208D8324B1B78DBB29A46314B1B78DBB2994607E02F4B1B78DBB29A462E4B1B78DBB299462D4BDE5D2F2E09D9FA
:401380002A2C07D919222B4B1A60052000F008F9192503E0274B1D683F231D40B54206D9234BDA5D234B1A60052000F0F9F81F4B9C4664442378DBB21F4A13601F4B52467C
:4013C0001A601F4B4A461A600520FFF77FFFB5420AD2174BDA5D174B1A60052000F0E0F802E00020FFF738FF019800F0E7F803B00CBC91469A46F0BDC0F1FF0FC1F1FF0F3C
:40140000C2F1FF0FC3F1FF0FC4F1FF0FC5F1FF0FC6F1FF0FC7F1FF0FC8F1FF0FC9F1FF0FCAF1FF0FCBF1FF0FCCF1FF0FCDF1FF0F6C2700002CFF0B4028FF0B401CFF0B407D
:4014400020FF0B40034B1868C0231B02184000D00120704700010B4010B500F0ABF8044A1368C02109020B43136000F0A7F810BD00010B4010B500F09DF808490A68084B12
:401480001A408024E40122430A600A6813408022120213430B6000F091F810BD00010B40FF3FFFFF70B5050000F084F80400FFF7C9FF002803D0FFF7DDFF012100E0002128
:4014C00008482840084A1568084B2B40184310601368012901D1FFF7BFFF200000F06EF870BDC0460404040010020B40FBFBFBFF10B5244B1B685B0715D5234B1B685B0759
:401500000ED5224BD969042001401F4C22688A432260DA698243DA611B69002B00D098470420FFF7BFFF174B1B685B0518D5164B1B685B0510D5154BD9698022D200114035
:40154000114802688A430260D969114A0A40DA615B69002B00D098478020C000FFF7A2FF084B1B685B030CD5074B1B685B0304D5064B9B69002B00D098478020C002FFF71A
:4015800091FF10BD10020B4020010020E8010020FFFBFFFF014B18707047C04671000F400230800804D0C0460138FDD1C046C046C0467047EFF3108072B6704780F310881E
:4015C0007047C046044B1B680F221340082BF9D0024B18607047C0460802074040020740F7B59C180023071C08268025019100922370237800982B432370BB689B6C984713
:40160000019B984202D22378AB432370013E6D08002EEED12378F82B01D9F8232370F7BD70B5051C0E1C00242B789C4208D2AB68221C281C311C1B68FFF7D2FF0134F3E77F
:4016400070BD38B5051C00242B789C4219D2AA6813681B5DDB080F2B00D90F23D16BD268C95C1155AA68042B04D9936D906B211C012203E0936D906B211C002298470134A7
:40168000E2E738BDF0B5041C002687B063789E4262D2A3685A6C925D0392002A01D1013203921A6C925D019201992278914251D29A689B69515C0F221140B2000492002271
:4016C00005910499019D5A50019B5B000293039B019A9B189D423DD2A768E388A0885843FB68595D00F060F93B68595D00F0D2F8059B5843194B40005A2802D95B08400870
:40170000FAE7BA6904991B0C1B045350A36882085B6B01215855A368C008DB69029F5A550F22A36849421B6A5855A3685B6A5A55A368986AC1530021D86AC153186B9B68F8
:40174000C1535B19197801350A401A703B1C02330293BCE7013699E707B0F0BD0000FFFFF0B585684E002B6B925B9B191C8887B0141B0094AC6A1A80A45B6B6A0294EC6A44
:401780005F5CA45B2B6A03946C6B7F00645C5B180494AC680193645C1B780594009CE40FA4460F24251C6744009C3D40AC46E51764196C409C4203D2012B05D0013B00E0F6
:4017C0000133FF273F2B00D89F00019D2B7065460F2D29D0002D24D0BC4225D8059C029F24090094974200D9171C039D954200D2151C009A092A01D8141C01343A1C0A2C80
:4018000014D1EA1B934206D9049A92089A42924152429B1A00E001338268D26953543A1C04E0151C644601E0151C00246746836824015B6A5F5483689F6ABA53DA6A9B6832
:4018400095530F225B181D782A401A7083689B6859180B781C430C7007B0F0BD70B58068446BC069655C405CFF213F2801D88100C9B246B2FF24002E01DB4000C4B28D42EA
:4018800001D9291C6C08012081439954049B9C5470BD0000002243088B4274D303098B425FD3030A8B4244D3030B8B4228D3030C8B420DD3FF22090212BA030C8B4202D34F
:4018C0001212090265D0030B8B4219D300E0090AC30B8B4201D3CB03C01A5241830B8B4201D38B03C01A5241430B8B4201D34B03C01A5241030B8B4201D30B03C01A524122
:40190000C30A8B4201D3CB02C01A5241830A8B4201D38B02C01A5241430A8B4201D34B02C01A5241030A8B4201D30B02C01A5241CDD2C3098B4201D3CB01C01A5241830936
:401940008B4201D38B01C01A524143098B4201D34B01C01A524103098B4201D30B01C01A5241C3088B4201D3CB00C01A524183088B4201D38B00C01A524143088B4201D34D
:401980004B00C01A5241411A00D20146524110467047FFE701B5002000F0F0F802BDC0460029F7D076E7704703460B437FD4002243088B4274D303098B425FD3030A8B42AE
:4019C00044D3030B8B4228D3030C8B420DD3FF22090212BA030C8B4202D31212090265D0030B8B4219D300E0090AC30B8B4201D3CB03C01A5241830B8B4201D38B03C01A36
:401A00005241430B8B4201D34B03C01A5241030B8B4201D30B03C01A5241C30A8B4201D3CB02C01A5241830A8B4201D38B02C01A5241430A8B4201D34B02C01A5241030ABA
:401A40008B4201D30B02C01A5241CDD2C3098B4201D3CB01C01A524183098B4201D38B01C01A524143098B4201D34B01C01A524103098B4201D30B01C01A5241C3088B427C
:401A800001D3CB00C01A524183088B4201D38B00C01A524143088B4201D34B00C01A5241411A00D201465241104670475DE0CA0F00D04942031000D34042534000229C46CE
:401AC00003098B422DD3030A8B4212D3FC22890112BA030A8B420CD3890192118B4208D3890192118B4204D389013AD0921100E08909C3098B4201D3CB01C01A52418309A0
:401B00008B4201D38B01C01A524143098B4201D34B01C01A524103098B4201D30B01C01A5241C3088B4201D3CB00C01A524183088B4201D38B00C01A5241D9D243088B42B4
:401B400001D34B00C01A5241411A00D20146634652415B10104601D34042002B00D54942704763465B1000D3404201B5002000F005F802BD0029F8D016E770477047C04683
:401B8000014B18687047C046840100200E4B70B500251E000D4CE41AA410A54204D0AB00F35898470135F8E700F012FE084B00251E00084CE41AA410A54204D0AB00F35839
:401BC00098470135F8E770BDDC270000DC270000DC270000E427000030B50024A24208D0035D651C0C5DA34201D0181B02E02C00F4E7002030BD03008218934202D01970F5
:401C00000133FAE7704700000EB410B59DB002A9029008610B48822488604861012040421FABC881084804CBA400006801938C8100F06EF80023029A13701DB010BC08BC5D
:401C400003B01847FFFFFF7F84010020F0B58E6885B007000C00039201939E4243D890238A89DB001A423ED003250969236801985B1A029363695D43EB0F5D19029B6D1061
:401C800001331B18AB4200D91D00530510D52900380000F041FB061E14D0029A216900F0D0FAA289194B134080221343A38112E02A00380000F090FB061E0CD12169380098
:401CC00000F0DEFA0C23402201203B60A38940421343A38117E0029B2661F61826606561019EED1AA560019BB34200D21E0032000399206800F0AEFA0020A3689B1BA36034
:401D000023689E19266005B0F0BDC0467FFBFFFFF0B59FB0029005938B890F0016001B0610D50B69002B0DD1402100F0F5FA38603861002804D10C23029A01381360D8E084
:401D400040237B61002306AD6B6120336B761033AB7634002378002B03D1A31B049312D003E0252BF9D00134F4E7A31B320039000298FFF76BFF431C00D1B4E06A69049B80
:401D8000944663446B612378002B00D1ABE00122002352426A6002A95432521801342B60EB60AB601370AB65534E21780522300000F03CFA002807D00123801B83402A6802
:401DC000013413432B60EFE72B68DA0604D55322202102A8121811701A0704D553222B2102A81218117022782A2A03D0099B00200A210EE0059A111D12680591002A01DB0F
:401E0000099204E05242EA60022213432B6001340BE02278303A092A04D84B4301349B180120F6E7002800D0099323782E2B1ED163782A2B0AD1059B02341A1D1B680592F0
:401E4000002B01DA01235B42079310E000230A201A0001346B6021783039092904D84243013452180123F6E7002B00D00792234E21780322300000F0D9F9002806D040235F
:401E8000801B83402A68013413432B60217806221B48661C297600F0C9F9002812D0194B002B06D10722059B073393430833059314E005AB00933A00134B2900029800E097
:401EC00000BF07E005AB00933A000F4B2900029800F08AF80390039B013304D06B69039A9B186B6135E7BB890B985B0601D5012040421FB0F0BDC0469C270000A22700001C
:401F0000A6270000000000004D1C0000F7B5170001938A680B6900900C00934200DA130022003B6043321278002A01D001333B6023689B0602D53B6802333B60062523689E
:401F40001D401ED0230043331B785A1E9341226892061CD53020E1184331087021005A1C45310978A2184332023311700FE022000123193201990098089EB047431C0ED057
:401F80000135E3683A689B1A9D42F0DBDAE72200019943320098089DA847431C02D10120404220E006232068E1683A6803400025042B03D18D1AEB43DB171D40A3682269EB
:401FC000934201DD9B1AED180027BD420AD0220001231A3201990098089EB047431CDED00137F2E70020FEBDF0B58BB006920A0043320793059004920A7E0C00109B6E2A87
:4020000000D1ABE011D8632A22D009D8002A00D1B5E0582A00D0C5E045310A70814A4FE0642A1DD0692A1BD0BCE0732A00D1AAE009D86F2A29D0702A00D0B3E020220968DA
:402040000A43226037E0752A1FD0782A33D0A9E00E001A684236111D196013683370A4E021681A68080606D4490604D5111D19600023D55E02E0111D19601568002D3BDA0D
:402080002D23049A6D42137036E021681A68080606D4490604D51568111D1960ADB202E0111D196015685F4B227E039308276F2A1DD00A271BE022007821453211705A4A2E
:4020C00019680392081D226818600D68100602D4500600D5ADB2D30702D520231A4322601027002D03D1202322689A4322602300002243331A7002E00A274A4B0393636833
:40210000A360002B09DB0422216891432160002D05D1049E002B11D07BE0002D79D0049E28003900FFF73CFC039B013E5B5C280033703900FFF7AEFB051EF1D1082F09D1A9
:402140002368DB0706D563682269934202DC3023013E3370049B9B1B23612BE009681A68080607D4490605D5111D19601368A28A1A8004E0111D1960136862691A6000239A
:40218000049E236116E01A68111D1960166800216268300000F04AF8002801D0801B6060636803E0260042363270012323610023049A1370079B09AA00932100069B05989A
:4021C000FFF7A4FE431C02D10120404227E02369320006990598079DA847431CF4D0236800259B070FD4099BE068984217DA180015E022000123193206990598079EB04759
:40220000431CE1D00135E368099A9B1A9D42F0DBE9E72600039B42361B7833708EE70BB0F0BDC046AD270000BE270000C9B28218904204D003788B4202D00130F8E7002028
:402240007047002310B59A4203D0CC5CC4540133F9E710BD10B5884202D98B18984201D3002305E09B1A013A08D3995C8154FAE7934203D0CC5CC4540133F9E710BD0000ED
:4022800070B50500002944D00C1F2368002B00DAE418280000F0D8F81E4A13681100002B02D16360146031E0A3420DD92268A018834203D118685B688218226063600C60AA
:4022C00024E0A24203D813005A68002AF9D11E689819A0420BD12168711858181960824214D110685268411819605A600EE0A04202D90C232B6009E021686018824203D114
:40230000106852684118216062605C60280000F09CF870BD0C020020032370B5CD1C9D43083506000C2D01D20C2501E0002D01DBA94202D90C23336048E0300000F084F842
:40234000234B1C681A002100002913D00B685B1B0DD40B2B02D90B60CC181EE08C4202D1636813601AE04B6863600C0016E00C004968E9E7174C2368002B03D1300000F011
:4023800051F820602900300000F04CF8431C18D00323C41C9C43A0420DD12560300000F054F8200007220B30231D9043C31A0ED05A42E2500BE0211A300000F033F8431CFA
:4023C000EBD10C233000336000F03FF8002070BD0C02002008020020F8B506000C001500002904D11100FFF797FF040018E0002A03D1FFF745FF2C0012E000F027F88542CC
:402400000ED929003000FFF787FF071E07D021002A00FFF716FF21003000FFF731FF3C002000F8BD002370B5064C050008002360FDF7E0FF431C03D12368002B00D02B60C5
:4024400070BDC046C8020020704770470B1F1A68101F002A04DA891804390B68D01804387047000000000000427574746F6E20256420707265737365642E0D0A0000000042
:4024800000300F40000400400F4000047101810D820D830D38803E40528058045B045D305F01800282018C018E029204930194409A709E109F02A20BA60CAF02B010B1013C
:4024C000B220B440B502B60FBE40BF10C010C105C5D1C602C807C9FFCAFFCBFFCDA0CF04D018D405D804D904DA04DB04DC33DD33DF01E040E2C0E440E540E6C0E8C0EAC036
:40250000ECC0EEC005420D020E120F08170518011D121E101F80260127482E803501374047404F89568057405C405F096F05710180408110C090C2F0C430CA10CC90D0107F
:40254000D210D6D00A010F0114041A0727012E08300432023408350136013F104020410545D14602480749FF4AFF4BFF4DA04F04501852805405580459045A045B045C01ED
:402580005D115F01604062C06440654066C068C06AC06CC06EC086018701920893019404A607B001B202B301B408B604BF04C020C105C5D1C720C823C9FFCAFFCBFFCDA0C6
:4025C000CF04D018D280D405D804D904DA04DB04DC01DD11DF01E040E2C0E440E540E6C0E8C0EAC0ECC0EEC00004051009020A100E200F0810201780180419821A101D70BF
:402600001E601F20220427082F20300238043F8040044520482249014F895002574059815A085E405F09710277809D42AF80B401C044C26CC484CA40CC01CE12D024D21870
:40264000D6DB5720D440AF20EE106C407008DC036102A102B448B502D802EC08010A100A04000F4038300F4020310F4052320F402D330F4002400F4002410F4003420F40BF
:4026800006430F4002600F40010101010100000001020304050000000000014004000140080001400C000140100001400800044008010440080204400803044008040440CA
:4026C0000000044000010440000204400003044000040440000102030400000002000000040000000800000010000000200000000001020304000000010101010100000025
:40270000240200202C020020040100201C0200203C020020D4260000C8000020940200207802002080020020A8020020880200209C020020C0020020140200205C270000A3
:40274000F0260000F8260000650C00008D0A00005D090000510A00003D0C000001010102020202040404040404040404030405060708090A0B0C0E0F1011121314151617E0
:4027800018191B1C1D1E1F2021222325262728292A2B2E2F3031323334354300232D302B2000686C4C006566674546470030313233343536373839414243444546003031F8
:4027C00032333435363738396162636465660000F8B5C046F8BC08BC9E467047310200006D040000F8B5C046F8BC08BC9E4670470902000008280000C0000020C8000000C5
:40280000480100000000000000000000D00200200000FF0F0000FF0F0000FF0F0000FF0F0000FF0F1F00000008010440080104400801044008010440080104400505050563
:40284000050000001E1E1E1E1E0100000202020202000000010000000000E02EC05D00001800000000366E01040404000000000000000000000000000000000000000000BD
:402880000000000000000000000000009A27000000000000000000000000000000000000000000000000000000000000000000000000000000000000000000000000000057
:4028C0000000000000000000000000002401002000000000000000000000000000000000000000000000000000000000000000000000000000000000000000000000000093
:402900000000000000000000000000000000000000000000000000000000000000000000000000000000000000000000000000000000000000000000000000000000000097
:402940000000000000000000000000000000000000000000000000000000000000000000000000000000000000000000000000000000000000000000000000000000000057
:402980000000000000000000000000000000000000000000000000000000000000000000000000000000000000000000000000000000000000000000000000000000000017
:4029C00000000000000000000000000000000000000000000000000000000000000000000000000000000000000000000000000000000000000000000000000000000000D7
:0200000490303A
:0200000047C4F3
:0200000490402A
:200000000000000000000000000000000000000000000000000000000000000000000000E0
:0200000490501A
:0C000000000204C81193110104D55957E7
:0200000490600A
:0100000001FE
:00000001FF