:400000000010002011000000910500009105000080B500AF00F0C6FA80B500AF184B184A12688021C9020A431A60182000F032FE134B134A126813490A401A60124B134A02
:400040001A60134B20221A60124B10221A60124B30221A60114B822212061A60084B00221A600F4B0F4A1A600F4B104A1A60104B104A1A60104B00221A60C046BD4680BD72
:4000800000010B40FFFFFBFF04010B4006000080080202401C0202403002024008010B400000024017000080400002403801008080000240BF0300800C020B4080B582B0DA
:4000C00000AF72B6FB1D00221A7022E0FB1D1A7813005B009B185B003B4A9B183B603B681A78597809020A43997809040A43DB781B06134318003B681A795B791B02134342
:400100009BB2190000F0E8F9FB1D1A78FB1D01321A70FB1D1B78012BD8D92C4A2C4B1100180000F0E9F92B4BC02292041A602A4BEE2212021A60294B90221A60284B992250
:4001400012041A60274B8A22D2051A60264B992212041A60254B992212041A60244A244B1B78DBB23C218B43DBB214210B43DBB21370204A1F4B1B78DBB216210B43DBB2BB
:4001800013701D4B40221A601C4B802252031A601B4B08221A601B4B08221A601A4BD82212011A60194B02221A60194B30221A60184B02221A60FFF72FFF00F0DFF9C0467B
:4001C000BD4602B080BDC046D4140000F4140000E0140000040001400C0001401000014010500F4018500F4020500F4030500F4001700F4000700F4000010440080104403B
:4002000000020440180204400803044000040440080404401804044010B5064C2378002B07D1054B002B02D0044800E000BF0123237010BD4801002000000000B81400002D
:40024000084B10B5002B03D00749084800E000BF07480368002B00D110BD064B002BFBD09847F9E7000000004C010020B8140000C80000200000000090B585B000AF0D2326
:40028000FB1800221A700E23FB1800221A8000F021FA00F0F9FA00F089FE2D4B180000F097FC62B600F004FCC0462A4B1B78DBB2002BFAD0002000F009FC03001A003B0002
:4002C0001A800D23FB1818780D23FB181A783B005200D35E0A22BC18190000F019FC030023800E23FA180A23FB180021525E00215B5E9A4204D1184B1B78DBB2002B13D0CA
:400300000A23FB1800229A5E0D23FB181B781100180000F025F80E23FB180A22BA1812881A800D4B00221A700A4B00221A700A23FB1800229A5E13001B029B1A0749180035
:4003400000F09AFF0300DBB2180000F0C3FEABE78904000068010020690100208813000080B582B000AF0200FB1D1A703B1D0A1C1A800C2000F0CEF93F4B180000F056FA37
:40038000FB1D1A78FB1D01321A70FB1DFA1D127830321A70FB1D1B78180000F0BBF9374B180000F043FA3B1D00229B5E002B09DA334B180000F03AFA3B1D1B885B429AB2CC
:4003C0003B1D1A803B1D00229A5EFA239900100000F0C8FE03003033180000F09BF93B1D00229A5EFA239900100000F041FF0B001A003B1D1A803B1D00229B5E642118008C
:4004000000F0B0FE03003033180000F083F93B1D00229B5E6421180000F02AFF0B001A003B1D1A803B1D00229B5E0A21180000F099FE03003033180000F06CF93B1D00226A
:400440009B5E0A21180000F013FF0B001A003B1D1A803B1D00229B5E3033180000F05AF9084B180000F0E2F9002000F0FBF9C046BD4602B080BDC046BC140000C814000012
:40048000CC140000D014000080B582B000AF0C4B1B687B607B68012213400AD0094B1A68094B1A60094A084B1B681360084B01221A70084B7A681A60C046BD4602B080BD93
:4004C0001C021A403C021A406401002030021A406801002010021A4080B582B000AF786039603A687B680021180000F0DDFFC046BD4602B080BDC04680B586B000AF7860E5
:40050000396000233B6100237B612FE07B699B007A68D3181B68BB600F23FB18BA681A70BB68FF229343BB6018E03B695B003A68D3181B781A00BB68D31819003B695B00EE
:400540003A68D3185B780B703B6901333B610F23FB181A780F23FB18013A1A700F23FB181B78002BE1D17B6901337B617B69042BCCD9C046BD4606B080BDC04680B500AF04
:40058000024B08221A60C046BD4680BD00031A4080B500AF00F05CFF03001B680C2B00D1FEE7FEE780B586B000AF224B7B61224B3B61204B7B6135E03B691B68FB603B6932
:4005C0005B68BB603B699B683B6000237B600CE0FB681A68BB681A60BB680433BB60FB680433FB607B6804337B607A683B689A42EED13B69DB683B6000237B6008E0BB6865
:4006000000221A60BB680433BB607B6804337B607A683B689A42F2D13B6910333B617B69013B7B617B69002BC6D100F017FFFFF723FEFEE701000000D815000080B582B014
:4006400000AF00237B600FE07B68032B04D8104B7A689200D35800E00E4B0F4A796889008B507B6801337B607B682F2BECD9FFF725FD0A4B00221A608023DB058022D20527
:40068000126801210A431A60C046BD4602B080BD000000009105000000000020C000002080B500AF00F04CF8C046BD4680BDC04680B500AF064B064A1268802109060A43E9
:4006C0001A6000F019F800F01DF8C046BD4680BD0000064080B500AF064B1B78002B04D1FFF7DEFF034B01221A70FFF7E1FFC046BD4680BD6A01002080B500AFC046BD46C4
:4007000080BDC04680B500AF00F078F8C046BD4680BDC04680B582B000AF7860C046064B1B680F221340082BF9D0044B7A681A60C046BD4602B080BD080206404002064023
:4007400080B500AF1A4B1B4A1A601B4B00221A601A4B1B4A1A601B4B07221A601A4B07221A601A4B00221A60194B01221A60194B194A1A60194B00221A60194B00221A60B7
:40078000184B00221A60184B00221A60174B00221A60174B00221A60164B00221A60154B1B689AB2144B1A80C046BD4680BDC046000006400700000240000640480006406B
:4007C00001000A0000030640040306401003064044000640000206400700008004020640880E0640C80E0640480F0640080F0640C80F0640880F06406C01002080B500AFFD
:40080000074B074A1268F0218A4390210A431A60044B054A12881A60C046BD4680BDC04610000140880F06406C01002080B584B000AF78600023FB6009E07A68FB68D31805
:400840001B781800FFF766FFFB680133FB607A68FB68D3181B78002BEFD1C046BD4604B080BDC04680B582B000AF78607B681800FFF750FF0D20FFF74DFF0A20FFF74AFFCC
:40088000C046BD4602B080BD80B500AF064B1B78002B04D100F00AF8034B01221A7000F0F1F8C046BD4680BD6E01002080B584B000AF03210E2000F005FB574B19000E209A
:4008C00000F0DAFA554B01221A60554B1B68002B01DA544900E05449544B544A12680A431A60534B534A1A60534B544A1A60544BC02212061A60534B534A1A60534B524AC9
:400900001A60534B524A1268802149020A431A60504B00221A60504B00221A604F4B01221A604F4B02221A604E4B1B687B607B684D4A13407B607B68012213437B60494B8F
:400940007A681A600023FB605EE0484ADC239B0113407B60FB689B00454A944663447A681A60424A012313400AD03A4B394A11680120FA68904002001204120C0A431A60EC
:400980003A4A022313400AD0334B334A11680120FA68904002001204120C0A431A60334A80239B00134003D080235B00BB6002E080235B01BB602D4A80235B00134005D109
:4009C0002C4BFA6852000021D15209E0BB68002B00DA01335B1019B2264BFA685200D152BB68254A5343254A944663442249180000F042FC03001BB21900214BFA689200B3
:400A0000D150FB680133FB60FB68002B9DD0C046BD4604B080BDC046B10B000020001A4080031A40700210537002005300001A4004001A40F400008018001A40FF01FE055A
:400A40001C001A4010001A400200020014001A4000031A4028021A4038021A4018021A40000F1A4030001A40FFFFFFDF0204000080001A4074010020102700008813000025
:400A80007001002080B500AF084B1B68002B09DB064B064A1268802109060A431A600A2000F070FAC046BD4680BDC04600001A4080B500AF044B044A1268802149020A43EC
:400AC0001A60C046BD4680BD04001A4080B584B000AF78607B68002B02D0002000F046FA7B68002B09D17B689B00084A944663441B681B041B0CFB6001E00023FB60FB6899
:400B00001BB21800BD4604B080BDC04680011A4080B584B000AF78600A00BB1C1A807B68002B02D0002000F021FA1E4B7A685200D35A19B2BB1C1A888BB2D31A9AB2BB1C2A
:400B40001A80BB1C00229B5E174A5A43BB1C00215B5E002B08DD154B79688900CB58002B00DA01335B1008E0104B79688900CB58002B00DA01335B105B42D0180B4B7A6868
:400B80009200D358190000F077FB03001A000E23FB181A800E23FB1800229B5E1800BD4604B080BD74010020102700007001002080B582B000AF054B1B687B60034B7A6846
:400BC0001A60C046BD4602B080BDC04610021A4080B582B000AF786000F050F87B68180000F00AF8032000F015F800F03BF8C046BD4602B080BDC04680B582B000AF7860CF
:400C0000034B7A689A67C046BD4602B080BDC0460000002090B585B000AF0200FB1D1A701623FB600B23FC1800F094FA030023700A4B0A4A12680A491140FA1D1078FA68E6
:400C4000904002000A431A600B23FB181B78180000F084FAC046BD4605B090BD0CE400E0FFFF3FFF80B500AF034B8022D2011A60C046BD4680BDC04600E100E080B500AF58
:400C8000034B8022D2011A60C046BD4680BDC04680E100E090B585B000AF78600C23FC1800F058FA030023707B68022B00D8AFE07B68302B00D9ABE05C4B1B78DBB21A0054
:400CC0007B689A420AD35A4A0F23FB1812781A70584A0E23FB1812781A703FE0564B1B78DBB21A007B689A420AD3544A0F23FB1812781A70524A0E23FB1812781A702DE0D3
:400D0000504B1B78DBB21A007B689A420AD34E4A0F23FB1812781A704C4A0E23FB1812781A701BE04A4B1B78DBB21A007B689A420AD3484A0F23FB1812781A70464A0E2351
:400D4000FB1812781A7009E0444A0F23FB1812781A70434A0E23FB1812781A707B68DA1E0B23FB183F498A5C1A700B23FB181B782F2B0DD97B682A2B0AD93B4B19221A6019
:400D8000052000F0DDF90D23FB1819221A7007E0354B1B68DAB20D23FB183F210A401A700B23FA180D23FB1812781B789A4208D22D4B7A68033A2B498A5C1A60052000F07D
:400DC000BFF92A4B7A6826498C4662441278D2B21A60274B0F22BA1812781A60254B0E22BA1812781A60052000F0CCF80B23FA180D23FB1812781B789A420CD91A4B7A6805
:400E0000033A18498A5C1A60052000F099F902E0002000F0ABF80C23FB181B78180000F09DF9C046BD4605B090BDC046C0F1FF0FC1F1FF0FC2F1FF0FC3F1FF0FC4F1FF0F2F
:400E4000C5F1FF0FC6F1FF0FC7F1FF0FC8F1FF0FC9F1FF0FCAF1FF0FCBF1FF0FCCF1FF0FCDF1FF0F841500002CFF0B4028FF0B401CFF0B4020FF0B4080B584B000AF0200FF
:400E80003960FB1D1A7080239B05FB60FB1D1B781F2B02D9002000F069F8FB1D1B7810339B00FA68D3181B68BB60FB1D1B7810339B00FA68D3183A681A60BB681800BD4674
:400EC00004B080BD90B587B000AF0200FB1D1A70BB1D0A1C1A70BB1D1B78032B02D9002000F044F8FB1D1B781F2B02D9002000F03DF8FB1D1B7803221340DB0006337B61C2
:400F00001323FC1800F026F903002370FB1D1B789B08DBB29B00144A944663441B68FB6003227B699A401300DA43FB681340FB60BB1D1A787B699A401300FA681343FB601D
:400F4000FB1D1B789B08DBB29B00074A94466344FA681A601323FB181B78180000F0FEF8C046BD4607B090BD00E400E080B582B000AF0200FB1D1A7001BEC046BD4602B06E
:400F800080BDC04680B582B000AF0200BB1D1A80BB1D1B88044A12785343180000F0D0F8C046BD4602B080BDD400002080B500AF064B1B78002B04D100F00AF8034B012294
:400FC0001A7000F047F8C046BD4680BD6F01002090B583B000AF1D4B1B78DAB2FB1D3F218A431A70194AFB1D1B780C210B43DBB21370174A164B1B78DBB201210B43DBB26D
:401000001370FF2000F036F8FF2000F053F87F2000F060F8002000F06DF8BC1D00F09AF8030023700A4A0A4B1B78DBB210210B43DBB21370BB1D1B78180000F08FF800F007
:4010400029F8C046BD4603B090BDC04672000F4092000F4080B500AF0549054B1B78DBB2802252421343DBB20B70C046BD4680BD72000F4080B582B000AF0200FB1D1A70A7
:40108000034AFB1D1B781370C046BD4602B080BD02000F4080B500AF01E000F045F800F039F803001A0010231340F6D1C046BD4680BDC04680B582B000AF0200FB1D1A70E9
:4010C000034AFB1D1B781370C046BD4602B080BD42000F4080B582B000AF0200FB1D1A70034AFB1D1B781370C046BD4602B080BD22000F4080B582B000AF0200FB1D1A7094
:40110000034AFB1D1B781370C046BD4602B080BD82000F4080B500AF024B1B78DBB21800BD4680BD62000F4080B500AF024B1B78DBB21800BD4680BD52000F4000000000C7
:401140000230800804D0C0460138FDD1C046C046C0467047EFF3108072B6704780F310887047C046002243088B4274D303098B425FD3030A8B4244D3030B8B4228D3030C90
:401180008B420DD3FF22090212BA030C8B4202D31212090265D0030B8B4219D300E0090AC30B8B4201D3CB03C01A5241830B8B4201D38B03C01A5241430B8B4201D34B03AA
:4011C000C01A5241030B8B4201D30B03C01A5241C30A8B4201D3CB02C01A5241830A8B4201D38B02C01A5241430A8B4201D34B02C01A5241030A8B4201D30B02C01A5241B8
:40120000CDD2C3098B4201D3CB01C01A524183098B4201D38B01C01A524143098B4201D34B01C01A524103098B4201D30B01C01A5241C3088B4201D3CB00C01A5241830848
:401240008B4201D38B00C01A524143088B4201D34B00C01A5241411A00D20146524110467047FFE701B5002000F0F0F802BDC0460029F7D076E7704703460B437FD40022B4
:4012800043088B4274D303098B425FD3030A8B4244D3030B8B4228D3030C8B420DD3FF22090212BA030C8B4202D31212090265D0030B8B4219D300E0090AC30B8B4201D30B
:4012C000CB03C01A5241830B8B4201D38B03C01A5241430B8B4201D34B03C01A5241030B8B4201D30B03C01A5241C30A8B4201D3CB02C01A5241830A8B4201D38B02C01A78
:401300005241430A8B4201D34B02C01A5241030A8B4201D30B02C01A5241CDD2C3098B4201D3CB01C01A524183098B4201D38B01C01A524143098B4201D34B01C01A524139
:4013400003098B4201D30B01C01A5241C3088B4201D3CB00C01A524183088B4201D38B00C01A524143088B4201D34B00C01A5241411A00D201465241104670475DE0CA0FB1
:4013800000D04942031000D34042534000229C4603098B422DD3030A8B4212D3FC22890112BA030A8B420CD3890192118B4208D3890192118B4204D389013AD0921100E051
:4013C0008909C3098B4201D3CB01C01A524183098B4201D38B01C01A524143098B4201D34B01C01A524103098B4201D30B01C01A5241C3088B4201D3CB00C01A5241830894
:401400008B4201D38B00C01A5241D9D243088B4201D34B00C01A5241411A00D20146634652415B10104601D34042002B00D54942704763465B1000D3404201B5002000F08C
:4014400005F802BD0029F8D016E770477047C046014B18687047C046400100200E4B70B500251E000D4CE41AA410A54204D0AB00F35898470135F8E700F09CF8084B0025F7
:401480001E00084CE41AA410A54204D0AB00F35898470135F8E770BDC0150000C0150000C0150000C815000003008218934202D019700133FAE77047000000004368616EC7
:4014C0006E656C2000000000203D20002D000000206D560000300F40000400400F40000401000F4028320F4019330F4004410F4002600F40820D010116051C0C22012D01EC
:401500002E02300832023401360437013E104030410545D046024710482649FF4AFF4BFF4DA04F04501852805405580459045A045B045F01604062C06440654066C068C065
:401540006AC06CC06EC00D080F02168017401D081E081F8226402F023F0245084F81568057415E885F0177408780C2A0C490CA10CE80D040D210D6D063028701D640E61012
:4015800001011001030405060708090A0B0C0E0F101112131415161718191B1C1D1E1F2021222325262728292A2B2E2F3031323334354300F8B5C046F8BC08BC9E4670471F
:4015C000410200003D060000F8B5C046F8BC08BC9E46704719020000E8150000C800002080000000300000000000000000366E01C05D0000180000000000E02E0100000006
:401600000000000000000000000000000000000000000000000000000000000000000000B215000000000000000000000000000000000000000000000000000000000000E3
:401640000000000000000000000000000000000000000000000000000000000000000000E0000020000000000000000000000000000000000000000000000000000000006A
:40168000000000000000000000000000000000000000000000000000000000000000000000000000000000000000000000000000000000000000000000000000000000002A
:4016C00000000000000000000000000000000000000000000000000000000000000000000000000000000000000000000000000000000000000000000000000000000000EA
:4017000000000000000000000000000000000000000000000000000000000000000000000000000000000000000000000000000000000000000000000000000000000000A9
:401740000000000000000000000000000000000000000000000000000000000000000000000000000000000000000000000000000000000000000000000000000000000069
:0200000490303A
:020000003BF5CE
:0200000490402A
:200000000000000000000000000000000000000000000000000000000000000000000000E0
:0200000490501A
:0C000000000204C81193110104CF4D88C8
:0200000490600A
:0100000001FE
:00000001FF