:400000000010002011000000890400008904000080B500AF00F042FA80B500AF154B154A12688021C9020A431A60182000F080FB104B104A126810490A401A600F4B104A62
:400040001A60104B10221A600F4B20221A600F4B802212061A60074B00221A600C4B0D4A1A600D4B0D4A1A600D4B00221A60C046BD4680BD00010B40FFFFFBFF04010B404E
:4000800006000080080202403002024008010B40000002403801008040000240BF0300800C020B4080B582B000AF72B6FB1D00221A7022E0FB1D1A7813005B009B185B0064
:4000C000424A9B183B603B681A78597809020A43997809040A43DB781B06134318003B681A795B791B0213439BB2190000F074F9FB1D1A78FB1D01321A70FB1D1B78012BE5
:40010000D8D9334A334B1100180000F075F9324BC02292051A60314B314A1A60314B90221A60314B992212041A60304B802212061A602F4B992212041A602E4B992212047E
:400140001A602D4B8022D2051A602C4A2B4B1B78DBB23C218B43DBB214210B43DBB21370274A274B1B78DBB216210B43DBB21370244BA0221A60244BC12212041A60234BB0
:40018000C02212011A60224B80221A60214B8022D2031A60204BC02212021A601F4B80221A601F4B1F4A1A601F4B02221A601F4B30221A601E4B02221A60FFF72DFF00F0E5
:4001C0005DF9C046BD4602B080BDC046E40F00000C100000F00F0000000001400C00014000EE00301000014000500F4008500F4020500F4030500F4038500F4001700F4035
:4002000000700F4000000440080004400C00044000020440080204400C0204400003044008030440800DC00000040440080404401804044010B5064C2378002B07D1054B59
:40024000002B02D0044800E000BF0123237010BD4801002000000000880F0000084B10B5002B03D00749084800E000BF07480368002B00D110BD064B002BFBD09847F9E734
:40028000000000004C010020880F0000C80000200000000080B582B000AF00F0A7FB0300012B15D1174B180000F026FAFF237B600AE07B68DBB2180000F00EFD052000F08C
:4002C00035FB7B68013B7B607B68022BF1DC14E00D4B180000F010FA01233B600AE03B68DBB2180000F0F8FC052000F01FFB3B6801333B603B68FF2BF1DDC046BD4602B0CD
:4003000080BDC0468C0F0000A00F000080B582B000AF00F045FB0300012B15D1174B180000F0EAF9FF237B600AE07B68DBB2180000F09AFD052000F0F9FA7B68013B7B6090
:400340007B68022BF1DC14E00D4B180000F0D4F901233B600AE03B68DBB2180000F084FD052000F0E3FA3B6801333B603B68FF2BF1DDC046BD4602B080BDC046B40F00005D
:40038000CC0F000080B500AFFFF784FF00F03CFBC046BD4680BDC04680B500AFFFF7B6FF00F00CFBC046BD4680BDC04680B500AF00F00CF900F0FCFB00F0C2FC044B1800EB
:4003C00000F03AFB034B180000F094FB62B6FEE7850300009903000080B582B000AF786039603A687B680021180000F0C5FDC046BD4602B080BDC04680B586B000AF7860EB
:40040000396000233B6100237B612FE07B699B007A68D3181B68BB600F23FB18BA681A70BB68FF229343BB6018E03B695B003A68D3181B781A00BB68D31819003B695B00EF
:400440003A68D3185B780B703B6901333B610F23FB181A780F23FB18013A1A700F23FB181B78002BE1D17B6901337B617B69062BCCD9C046BD4606B080BDC04680B500AF03
:40048000C046BD4680BDC04680B500AF00F048FD03001B680C2B00D1FEE7FEE780B586B000AF224B7B61224B3B61204B7B6135E03B691B68FB603B695B68BB603B699B680C
:4004C0003B6000237B600CE0FB681A68BB681A60BB680433BB60FB680433FB607B6804337B607A683B689A42EED13B69DB683B6000237B6008E0BB6800221A60BB680433F5
:40050000BB607B6804337B607A683B689A42F2D13B6910333B617B69013B7B617B69002BC6D100F003FDFFF741FFFEE7010000006C11000080B582B000AF00237B600FE0D6
:400540007B68032B04D8104B7A689200D35800E00E4B0F4A796889008B507B6801337B607B682F2BECD9FFF79DFD0A4B00221A608023DB058022D205126801210A431A60E9
:40058000C046BD4602B080BD000000008904000000000020C000002080B500AF00F036F8C046BD4680BDC04680B500AF064B064A1268802109060A431A6000F019F800F001
:4005C0001DF8C046BD4680BD0000064080B500AF064B1B78002B04D1FFF7DEFF034B01221A70FFF7E1FFC046BD4680BD6401002080B500AFC046BD4680BDC04680B500AF0F
:4006000000F062F8C046BD4680BDC04680B500AF1A4B1B4A1A601B4B00221A601A4B1B4A1A601B4B07221A601A4B07221A601A4B00221A60194B01221A60194B194A1A6062
:40064000194B00221A60194B00221A60184B00221A60184B00221A60174B00221A60174B00221A60164B00221A60154B1B689AB2144B1A80C046BD4680BDC04600000640C9
:4006800007000002400006404800064001000A0000030640040306401003064044000640000206400700008004020640880E0640C80E0640480F0640080F0640C80F06406F
:4006C000880F06406601002080B500AF074B074A1268F0218A4390210A431A60044B054A12881A60C046BD4680BDC04610000140880F06406601002080B584B000AF78609C
:400700000023FB6009E07A68FB68D3181B78180000F0F0FBFB680133FB607A68FB68D3181B78002BEFD1C046BD4604B080BDC04690B585B000AF78600C23FC1800F0D2FBFB
:40074000030023707B68022B00D8AFE07B68302B00D9ABE05C4B1B78DBB21A007B689A420AD35A4A0F23FB1812781A70584A0E23FB1812781A703FE0564B1B78DBB21A005C
:400780007B689A420AD3544A0F23FB1812781A70524A0E23FB1812781A702DE0504B1B78DBB21A007B689A420AD34E4A0F23FB1812781A704C4A0E23FB1812781A701BE05A
:4007C0004A4B1B78DBB21A007B689A420AD3484A0F23FB1812781A70464A0E23FB1812781A7009E0444A0F23FB1812781A70434A0E23FB1812781A707B68DA1E0B23FB18EA
:400800003F498A5C1A700B23FB181B782F2B0DD97B682A2B0AD93B4B19221A60052000F057FB0D23FB1819221A7007E0354B1B68DAB20D23FB183F210A401A700B23FA18BA
:400840000D23FB1812781B789A4208D22D4B7A68033A2B498A5C1A60052000F039FB2A4B7A6826498C4662441278D2B21A60274B0F22BA1812781A60254B0E22BA18127873
:400880001A60052000F078F80B23FA180D23FB1812781B789A420CD91A4B7A68033A18498A5C1A60052000F013FB02E0002000F031F80C23FB181B78180000F017FBC04660
:4008C000BD4605B090BDC046C0F1FF0FC1F1FF0FC2F1FF0FC3F1FF0FC4F1FF0FC5F1FF0FC6F1FF0FC7F1FF0FC8F1FF0FC9F1FF0FCAF1FF0FCBF1FF0FCCF1FF0FCDF1FF0F20
:40090000181100002CFF0B4028FF0B401CFF0B4020FF0B4080B582B000AF0200FB1D1A7001BEC046BD4602B080BDC04680B582B000AF786009E00D4B1B68180000F0C8FAE3
:400940007B680B4A944663447B607A6880231B029A42F0D8074B1B687A685343180000F0B7FAC046BD4602B080BDC046D80000200080FFFFD000002080B582B000AF02001B
:40098000BB1D1A80BB1D1B88044A12785343180000F09EFAC046BD4602B080BDD400002080B500AF044B1B68202213405B09DBB21800BD4680BDC0460400044080B582B007
:4009C00000AF094B1B68DAB2FB1D20210A401A70054BFA1D12781A60FB1D1B785B09DBB21800BD4602B080BD1000044080B500AF044B1B6880221340DB09DBB21800BD461C
:400A000080BDC0460402044080B582B000AF094B1B68DAB2FB1D7F218A431A70054BFA1D12781A60FB1D1B78DB09DBB21800BD4602B080BD1002044080B582B000AF7860CC
:400A400000F04EF87B68180000F00AF8032000F015F800F03BF8C046BD4602B080BDC04680B582B000AF7860034B7A689A64C046BD4602B080BDC0460000002090B585B05E
:400A800000AF0200FB1D1A701623FB600B23FC1800F028FA030023700A4B0A4A12680A491140FA1D1078FA68904002000A431A600B23FB181B78180000F018FAC046BD460D
:400AC00005B090BD00E400E0FFFF3FFF80B500AF024B04221A60C046BD4680BD00E100E080B500AF024B04221A60C046BD4680BD80E100E080B582B000AF786000F04EF8A0
:400B00007B68180000F00AF8032000F015F800F03BF8C046BD4602B080BDC04680B582B000AF7860034B7A681A64C046BD4602B080BDC0460000002090B585B000AF0200A2
:400B4000FB1D1A700623FB600B23FC1800F0CAF9030023700B4B0B4A1268C0218A431100FA1D1078FA68904002000A431A600B23FB181B78180000F0B9F9C046BD4605B0FA
:400B800090BDC04600E400E080B500AF024B01221A60C046BD4680BD00E100E080B500AF024B01221A60C046BD4680BD80E100E080B500AF064B1B78002B04D100F00AF83A
:400BC000034B01221A7000F047F8C046BD4680BD6801002090B583B000AF1D4B1B78DAB2FB1D3F218A431A70194AFB1D1B780C210B43DBB21370174A164B1B78DBB20121E2
:400C00000B43DBB21370FF2000F036F8FF2000F053F87F2000F060F8002000F06DF8BC1D00F060F9030023700A4A0A4B1B78DBB210210B43DBB21370BB1D1B78180000F0E0
:400C400055F900F029F8C046BD4603B090BDC04672000F4092000F4080B500AF0549054B1B78DBB2802252421343DBB20B70C046BD4680BD72000F4080B582B000AF02000F
:400C8000FB1D1A70034AFB1D1B781370C046BD4602B080BD02000F4080B500AF01E000F045F800F039F803001A0010231340F6D1C046BD4680BDC04680B582B000AF0200ED
:400CC000FB1D1A70034AFB1D1B781370C046BD4602B080BD42000F4080B582B000AF0200FB1D1A70034AFB1D1B781370C046BD4602B080BD22000F4080B582B000AF020098
:400D0000FB1D1A70034AFB1D1B781370C046BD4602B080BD82000F4080B500AF024B1B78DBB21800BD4680BD62000F4080B500AF024B1B78DBB21800BD4680BD52000F4029
:400D400080B500AF064B1B78002B04D100F00AF8034B01221A7000F047F8C046BD4680BD6901002090B583B000AF1D4B1B78DAB2FB1D3F218A431A70194AFB1D1B780C2107
:400D80000B43DBB21370174A164B1B78DBB201210B43DBB21370FF2000F036F8FF2000F053F87F2000F060F8002000F06DF8BC1D00F098F8030023700A4A0A4B1B78DBB2C8
:400DC00010210B43DBB21370BB1D1B78180000F08DF800F029F8C046BD4603B090BDC04673000F4093000F4080B500AF0549054B1B78DBB2802252421343DBB20B70C0466C
:400E0000BD4680BD73000F4080B582B000AF0200FB1D1A70034AFB1D1B781370C046BD4602B080BD03000F4080B500AF01E000F045F800F039F803001A0010231340F6D1B4
:400E4000C046BD4680BDC04680B582B000AF0200FB1D1A70034AFB1D1B781370C046BD4602B080BD43000F4080B582B000AF0200FB1D1A70034AFB1D1B781370C046BD4629
:400E800002B080BD23000F4080B582B000AF0200FB1D1A70034AFB1D1B781370C046BD4602B080BD83000F4080B500AF024B1B78DBB21800BD4680BD63000F4080B500AF93
:400EC000024B1B78DBB21800BD4680BD53000F400230800804D0C0460138FDD1C046C046C0467047EFF3108072B6704780F310887047C04680B582B000AF7860C046064BC9
:400F00001B680F221340082BF9D0044B7A681A60C046BD4602B080BD0802064040020640014B18687047C046400100200E4B70B500251E000D4CE41AA410A54204D0AB0017
:400F4000F35898470135F8E700F0FEF8084B00251E00084CE41AA410A54204D0AB00F35898470135F8E770BD5411000054110000541100005C11000003008218934202D0FE
:400F800019700133FAE77047000000004C65667420446F6F72204F70656E65642E0D0A004C65667420446F6F7220436C6F7365642E0D0A00526967687420446F6F72204FBE
:400FC00070656E65642E0D0A00000000526967687420446F6F7220436C6F7365642E0D0A0000000000300F40000400400F40000402000F404E320F402C330F4002400F40BA
:4010000003410F4003430F4002600F40820D830D0A040F011401180727012E08300132023408350136043F104020410545D14602480749FF4AFF4BFF4DA04F045018528000
:401040005405580459045A045B045F01604062C06440654066C068C06AC06CC06EC086048701920893019C01A407B001B204B301B408B602BF04C020C105C5D1C720C8237C
:40108000C9FFCAFFCBFFCDA0CF04D018D280D405D804D904DA04DB04DF01E040E2C0E440E540E6C0E8C0EAC0ECC0EEC00004051009020A010E200F081020178018041A61FD
:4010C0001D301EA01F60220427082F20300238043F8040044520482249014F895002574059015A485E805F097102778082108740C044C269C484CA40CC01CE12D024D21866
:40110000D6DBE4046208D8408608A608E21067028301D60101011001030405060708090A0B0C0E0F101112131415161718191B1C1D1E1F2021222325262728292A2B2E2FCE
:401140003031323334354300F8B5C046F8BC08BC9E4670475D02000035050000F8B5C046F8BC08BC9E4670473502000080110000C800002080000000280000000000000080
:401180000000000000366E01C05D0000180000000000E02E0100000000000000000000000000000000000000000000000000000000000000000000004611000000000000EF
:4011C0000000000000000000000000000000000000000000000000000000000000000000000000000000000000000000000000000000000000000000E000002000000000EF
:4012000000000000000000000000000000000000000000000000000000000000000000000000000000000000000000000000000000000000000000000000000000000000AE
:40124000000000000000000000000000000000000000000000000000000000000000000000000000000000000000000000000000000000000000000000000000000000006E
:40128000000000000000000000000000000000000000000000000000000000000000000000000000000000000000000000000000000000000000000000000000000000002E
:4012C00000000000000000000000000000000000000000000000000000000000000000000000000000000000000000000000000000000000000000000000000000000000EE
:0200000490303A
:020000002019C5
:0200000490402A
:200000000000000000000000000000000000000000000000000000000000000000000000E0
:0200000490501A
:0C000000000204C81193110104CE31ACC1
:0200000490600A
:0100000001FE
:00000001FF