:400000000040002011000000010500000105000010B500F07DFAC04670B51222264B1A6000F086FB254800F0F3FD012000F0A0FB302000F0E7FA224A224B1A60224C8025DC
:40004000ED052560214A116802230B431360204A204B1A600022204B1A60204A136808218B431360FA20C00000F02EFB1C4800F021FB1C4A1C4B1A601C4B1D4A1A608821FF
:4000800089011C4A11601C4A1A60802212061B4B1A608022D2021A4B1A604122194B1A60013A194B1A601949082000F0F1FA082000F0E2FA256070BD30001040001BB70059
:4000C0000600008004010B400C020B4078002E402D3E00007C002E4064F02E406CF02E40DC050000007FBB00040301400000014041FF00800003014040FF008008010B404F
:4001000000010B401C010140080101408908000010B572B600221F4B1A6000240FE01E486200131959000B00411889881A5AC31858880004104300F0DDF90134E4B2012C2E
:40014000EDD9EE221206154B1A6099231B04144A1360144A1360144A1360144A1360144A117806230B43DBB21370D8221204114B1A60114A114B1A602023114A1360C4211D
:400180008902104A1160104A1360FFF745FF00F0A1F910BD6CF02E406C120000000002400003024000500F4010500F4030500F4000700F4008000440B60D00000801044084
:4001C00000030440080304401803044010B5064C2378002B07D1054B002B02D0044800E000BF0123237010BD5801002000000000CC100000084B10B5002B03D0074908488E
:4002000000E000BF07480368002B00D110BD064B002BFBD09847F9E7000000005C010020CC100000C00000200000000070B5084D8400605D00F0B6F92C19607800F0BEF93F
:40024000A07800F0C7F9E07800F0D0F970BDC046D010000010B5074A136801331360072B02DD0022034B1A60024B1868FFF7DEFF10BDC0467401002010B5074A1368013B8A
:400280001360002B02DA0722034B1A60024B1868FFF7CCFF10BDC0467401002070B500F0ABFC040001281CD1104B5A689B689A4207DA9B1A0D4DEB60FFF7CCFF6B68013308
:4002C0006B600A4B5A689B689A4207DDD21A074DEA60FFF7D1FF6B68013B6B60012000F091FC200000F08EFC70BDC0467401002070B5050000F024FC040029000C2000F0AC
:4003000021FD084B1860002509E0064B1868844202DA00F01DFC012500F012FC0400002DF3D070BDC400002010B5054B5B685843B421490000F006FD024B986010BDC04685
:40034000C40000207401002010B50E4800F0AEFB0D4800F0ABFB0D4800F0A8FB0C4C200000F0A4FB0B4800F0A1FB0B4800F09EFB200000F09BFB094800F098FB084800F001
:4003800095FB10BDF4100000201100004C11000064110000801100009C110000B8110000D411000030B583B000F06AFBC0B24D2801D0532860D14D2801D14D2500E053250B
:4003C000002455E000F05CFBC0B2002807D00300303BDBB2092B02D801AB18550134032C01D14D2D03D0012C42D1532D40D14D2D11D1234800F05AFB01A800F057FB0A2055
:4004000000F0C6FA0D2000F0C3FA01A800F086FD1C4B18610DE0532D0BD101A800F07EFD194B9860062806DD06229A60174800F03DFB002319E0002806DC0122124B9A6023
:40044000134800F033FBF4E7124800F02FFB01A800F02CFB0A2000F09BFA0D2000F098FAE7E7002101AAD1540133022BF9DD5825582DA7D1012000E0002003B030BDC0465F
:400480000012000074010020C400002014120000381200005C12000010B562B60A4800F039FB00F099FB00F055FAFFF74DFFFFF779FF0028FBD0054B1869FFF735FF044BD0
:4004C0009868FFF715FFF2E79D02000074010020C40000200323044A1360044A13600022034B1A607047C0463000304030003140000E3F4010B50A00002100F041FD10BDF9
:4005000010B500F011FD03680C2B00D1FEE7FEE770B50F4E0F4D13E029686B68AC68002202E001C901C30432A242FAD1E868002202E0002102C304328242FAD11035013E78
:40054000002EE9D100F0F6FCFFF7A6FFFEE7C04601000000D013000010B50E4A136801218B43136000230AE0032B03D89A000A49505800E009489900094A885001332F2B1E
:40058000F2D9FFF7C5FD034A116801230B43136010BDC04600001040000000000105000000000020044A1368DBB201218B430840184310607047C0460001044004490A68AA
:4005C000D2B202239A43400018401043086070470001044004490A68D2B204239A43800018401043086070470001044004490A68D2B208239A43C00018401043086070477B
:400600000001044010B586B0040000F00AFB0E4B1B6800930D4B1B680193033C0C4B1B5D02930C4B1B68039304AA0B4B04936B4605930A4B1A600A490A4A11601B6800F052
:40064000F4FA06B010BDC04608010B4000010B407812000030001040B6EA0000080010401700008004001040024B1B68012018407047C0460C002E401F2318401E3B834040
:40068000014A13607047C04600E100E001BE704770B504000D001F2802D90020FFF7F6FF1034A40080239B059C4664442068256070BDC04610B5034B1B7B584300F0A8FA5A
:4006C00010BDC046D000002010B504000F4A116801230B4313600E4A0E4B1A600E4A1368802109020B431360002809D100200CE00120FFF7DFFFFFF7B7FF002804D1013C63
:40070000002CF5D1102000E0002010BD60F02E400220000078002E4010002E40034B1868C0231B02184000D00120704700010B4010B50D4B1A6801218A431A601A680220C0
:4007400082431A60094A10683024A043203C204310601068093CA043014311601A68802109060A431A6010BD00F02E4000FF2E4070B51D4B1B6801241C40002802D001286F
:4007800016D02BE0184B19680122914319601968022081431960154B19682E3081432038014319601968093881430A431A6018E00D4B1A6802218A431A600C4A1068072579
:4007C000A84301431160116830208143103801431160196801220A431A6002E00020FFF755FF200070BDC04600F02E4000FF2E4010B500F016FA044A1368C02109020B4332
:40080000136000F012FA10BD00010B4010B500F008FA08490A68084B1A408024E40122430A600A6813408022120213430B6000F0FCF910BD00010B40FF3FFFFF70B5050011
:4008400000F0EFF90400FFF769FF002803D0FFF7DDFF012100E0002108482840084A1568084B2B40184310601368012901D1FFF7BFFF200000F0D9F970BDC04604040400F2
:4008800010020B40FBFBFBFF10B5244B1B685B0715D5234B5B685B070ED5224B596A042001401F4C62688A4362605A6A82435A629B69002B00D098470420FFF7BFFF174BBC
:4008C0001B685B0518D5164B5B685B0510D5154B596A8022D2001140114842688A434260596A114A0A405A62DB69002B00D098478020C000FFF7A2FF084B1B685B030CD517
:40090000074B5B685B0304D5064B1B6A002B00D098478020C002FFF791FF10BD10020B40E400002088010020FFFBFFFF10B500F091F810BD10B500F039F810BD10B5044A33
:400940001368802109060B431360FFF7EFFF10BD0000254010B5064B1B78002B04D1FFF7E9FF0122024B1A70FFF7E8FF10BDC046B0010020014B18687047C0464003254042
:40098000024B1B681F2018407047C04608032540044B1B681F221340082BF9D0024B18607047C0460802254040022540154A164B1A600023154A13601549164A1160164AEB
:4009C00016490A6007201649086016490B6006381549086015490A60154A13600421154A1160154A1360154A1360154A1360154A1360154A1360154A13601268144B1A8084
:400A00007047C0460B000002000025404000254001000A00480025400700008000032540040325401003254044002540000225400402254050002540880E2540C80E2540F1
:400A4000480F2540080F2540C80F2540880F2540B2010020064A1168064B0B40902109040B431360044B1A88044B1A607047C04600030240FFFF0FFFB2010020880F2540B8
:400A800010B5FFF77DFF002802D0FFF773FF00E00020054B1A68D8239B001A4203D01A00014B1A60002010BDC00F254070B50500002402E0FFF76CFF0134285D0028F9D1C8
:400AC00070BDC0468423014AD05070470000002010B5040000F0A5F8044A1168044B0B40A4031C43146000F0A0F810BD10E400E0FF3FFFFF80229202014B1A607047C0468B
:400B000000E100E080229202014B1A607047C04680E100E010B50400FFF7F4FF2000FFF7D1FF0320FFF7D4FFFFF7E4FF10BDC0460004000C014B18607047C04608012040D0
:400B4000024B18680004000C7047C046080120400004000C014B18607047C0461401204070B504000D0000F05CF8AC40024B1C6000F05BF870BDC0460800204010B500F0AA
:400B800050F8064A116801230B43136000F04DF818210120FFF7E4FF10BDC04600002040014B18607047C0463801204010B580229204074B1A600C22064B1A600120FFF7B1
:400BC000EFFF0120FFF7C4FF0020FFF7B1FF10BD000120402401204010B5064B1B78002B04D1FFF7E3FF0122024B1A70FFF7C6FF10BDC046B4010020014B18687047C0464D
:400C000030012040014B18607047C046300120400230800803D00138FDD1C046C046C0467047EFF3108072B6704780F310887047002243088B4274D303098B425FD3030A08
:400C40008B4244D3030B8B4228D3030C8B420DD3FF22090212BA030C8B4202D31212090265D0030B8B4219D300E0090AC30B8B4201D3CB03C01A5241830B8B4201D38B03D0
:400C8000C01A5241430B8B4201D34B03C01A5241030B8B4201D30B03C01A5241C30A8B4201D3CB02C01A5241830A8B4201D38B02C01A5241430A8B4201D34B02C01A52417B
:400CC000030A8B4201D30B02C01A5241CDD2C3098B4201D3CB01C01A524183098B4201D38B01C01A524143098B4201D34B01C01A524103098B4201D30B01C01A5241C308CA
:400D00008B4201D3CB00C01A524183088B4201D38B00C01A524143088B4201D34B00C01A5241411A00D20146524110467047FFE701B5002000F0F0F802BDC0460029F7D0B5
:400D400076E7704703460B437FD4002243088B4274D303098B425FD3030A8B4244D3030B8B4228D3030C8B420DD3FF22090212BA030C8B4202D31212090265D0030B8B427E
:400D800019D300E0090AC30B8B4201D3CB03C01A5241830B8B4201D38B03C01A5241430B8B4201D34B03C01A5241030B8B4201D30B03C01A5241C30A8B4201D3CB02C01A97
:400DC0005241830A8B4201D38B02C01A5241430A8B4201D34B02C01A5241030A8B4201D30B02C01A5241CDD2C3098B4201D3CB01C01A524183098B4201D38B01C01A5241FD
:400E000043098B4201D34B01C01A524103098B4201D30B01C01A5241C3088B4201D3CB00C01A524183088B4201D38B00C01A524143088B4201D34B00C01A5241411A00D24D
:400E400001465241104670475DE0CA0F00D04942031000D34042534000229C4603098B422DD3030A8B4212D3FC22890112BA030A8B420CD3890192118B4208D38901921154
:400E80008B4204D389013AD0921100E08909C3098B4201D3CB01C01A524183098B4201D38B01C01A524143098B4201D34B01C01A524103098B4201D30B01C01A5241C30882
:400EC0008B4201D3CB00C01A524183088B4201D38B00C01A5241D9D243088B4201D34B00C01A5241411A00D20146634652415B10104601D34042002B00D5494270476346F4
:400F00005B1000D3404201B5002000F005F802BD0029F8D016E770477047C04610B50A22002100F0C7F810BD014B18687047C0464C0100200E4B70B500251E000D4CE41A71
:400F4000A410A54204D0AB00F35898470135F8E700F02CFA084B00251E00084CE41AA410A54204D0AB00F35898470135F8E770BDB8130000B8130000B8130000C013000060
:400F800003008218934202D019700133FAE77047F0B51E00454B87B01B680192029308220B00059003911C7802995D1C09194878104001D02B00F6E72D2C04D19D1C5C7897
:400FC0000123009304E000902B2C01D15C789D1C002E02D0102E0AD162E0302C5ED120222B789343582B54D110266C780235009F31007B1E9F412E4BFF183800FFF79EFED3
:40100000380004913100FFF713FE00230322070094461800029A121951780422114201D0303C07E06246114017D03722012900D02032A41AA64210DD5A1C0BD0B84207D8FB
:4010400002D1049B9C4203DC70430123201801E001235B422C780135DCE75A1C0BD10098059A431E9841124BC01822231360019B002B0AD117E0009A002A00D04042019AF9
:40108000002A10D0039A002B00D06A1E019B1A6009E03024002EAAD10826A8E70A26A6E7302C9CD0A3E707B0F0BDC04650010020FFFFFF7F10B513000A0001000248006852
:4010C000FFF766FF10BDC0464C010020000000000100000001010000000100000001010000000100000001010000000101000001080000003D3D3D3D3D3D3D3D3D4D6F74EC
:401100006F7220436F6E74726F6C205465726D696E616C3D3D3D3D3D3D3D3D3D0A0D00002A2A2A2A2A2A2A2A2A2A2A2A2A2A2A20436F6D6D616E6473202A2A2A2A2A2A2A27
:401140002A2A2A2A2A2A2A2A0A0D00000953583A200953657473207468652073706565642E0A0D00090958206D75737420626520636F6D70726568656E6465640A0D00001C
:4011800009096265747765656E203120616E6420362072706D732E0A0D0000000A094D583A2009536574732074686520706F736974696F6E2E0A0D0009096265747765658F
:4011C0006E2030C2BA20616E6420393939C2BA2E0A0D00003D3D3D3D3D3D3D3D3D3D3D3D3D3D3D3D3D3D3D3D3D3D3D3D3D3D3D3D3D3D3D3D3D3D3D3D3D3D3D3D0A0D000037
:4012000054686520706F736974696F6E2069733A20000000496E76616C69642073706565642E2053657474656420746F203672706D2E0D0A00000000496E76616C6964201F
:4012400073706565642E2053657474656420746F203172706D2E0D0A000000005468652073706565642069733A20000000300F40000400400F400004030405060708090ACC
:401280000B0C0E0F101112131415161718191B1C1D1E1F2021222325262728292A2B2E2F303132333435430000202020202020202020282828282820202020202020202027
:4012C0002020202020202020208810101010101010101010101010101004040404040404040404101010101010104141414141410101010101010101010101010101010128
:401300000101010110101010101042424242424202020202020202020202020202020202020202021010101020000000000000000000000000000000000000000000000035
:40134000000000000000000000000000000000000000000000000000000000000000000000000000000000000000000000000000000000000000000000000000000000006D
:401380000000000000000000000000000000000000000000000000000000000000000000000000000000000000000000F8B5C046F8BC08BC9E467047F50100005905000013
:4013C000F8B5C046F8BC08BC9E467047CD010000E0130000C0000020980000006000000000000000020000000010000006000000010000000000C05D80BB000030000000ED
:40140000006CDC02F0000000040404000000000000000000000000000000000000000000000000000000000000000000A612000000000000000000000000000000000000AE
:401440000000000000000000000000000000000000000000000000000000000000000000000000000000000000000000EC000020A8120000000000000000000000000000A6
:40148000000000000000000000000000000000000000000000000000000000000000000000000000000000000000000000000000000000000000000000000000000000002C
:4014C00000000000000000000000000000000000000000000000000000000000000000000000000000000000000000000000000000000000000000000000000000000000EC
:4015000000000000000000000000000000000000000000000000000000000000000000000000000000000000000000000000000000000000000000000000000000000000AB
:40154000000000000000000000000000000000000000000000000000000000000000000000000000000000000000000000000000000000000000000000000000000000006B
:020000040001F9
:0200000490303A
:02000000F0DF2F
:0200000490402A
:4000000000000000000000000000000000000000000000000000000000000000000000000000000000000000000000000000000000000000000000000000000000000000C0
:400040000000000000000000000000000000000000000000000000000000000000000000000000000000000000000000000000000000000000000000000000000000000080
:0200000490501A
:0C00000000020E34119E00010E3A027D39
:0200000490600A
:0100000001FE
:00000001FF